{
  "contractName": "RentalAgreement",
  "abi": [
    {
      "inputs": [
        {
          "internalType": "string",
          "name": "_houseAddress",
          "type": "string"
        },
        {
          "internalType": "uint256",
          "name": "_rentCost",
          "type": "uint256"
        },
        {
          "internalType": "uint256",
          "name": "_securityDeposit",
          "type": "uint256"
        },
        {
          "internalType": "uint256",
          "name": "_managementFeePercent",
          "type": "uint256"
        },
        {
          "internalType": "uint256",
          "name": "_start",
          "type": "uint256"
        },
        {
          "internalType": "uint256",
          "name": "_end",
          "type": "uint256"
        }
      ],
      "stateMutability": "nonpayable",
      "type": "constructor"
    },
    {
      "anonymous": false,
      "inputs": [
        {
          "indexed": false,
          "internalType": "address",
          "name": "party",
          "type": "address"
        },
        {
          "indexed": false,
          "internalType": "uint256",
          "name": "timestamp",
          "type": "uint256"
        }
      ],
      "name": "AgreedToTerms",
      "type": "event"
    },
    {
      "anonymous": false,
      "inputs": [
        {
          "indexed": false,
          "internalType": "uint256",
          "name": "timestamp",
          "type": "uint256"
        }
      ],
      "name": "ContractSigned",
      "type": "event"
    },
    {
      "anonymous": false,
      "inputs": [
        {
          "indexed": false,
          "internalType": "uint256",
          "name": "timestamp",
          "type": "uint256"
        }
      ],
      "name": "ContractTerminated",
      "type": "event"
    },
    {
      "anonymous": false,
      "inputs": [
        {
          "indexed": false,
          "internalType": "uint256",
          "name": "amount",
          "type": "uint256"
        },
        {
          "indexed": false,
          "internalType": "uint256",
          "name": "timestamp",
          "type": "uint256"
        }
      ],
      "name": "DamagesClaimed",
      "type": "event"
    },
    {
      "anonymous": false,
      "inputs": [
        {
          "indexed": false,
          "internalType": "uint256",
          "name": "timestamp",
          "type": "uint256"
        }
      ],
      "name": "DepositPaid",
      "type": "event"
    },
    {
      "anonymous": false,
      "inputs": [
        {
          "indexed": false,
          "internalType": "uint256",
          "name": "amount",
          "type": "uint256"
        },
        {
          "indexed": false,
          "internalType": "uint256",
          "name": "timestamp",
          "type": "uint256"
        }
      ],
      "name": "DepositReturned",
      "type": "event"
    },
    {
      "anonymous": false,
      "inputs": [
        {
          "indexed": false,
          "internalType": "uint256",
          "name": "timestamp",
          "type": "uint256"
        }
      ],
      "name": "RentPaid",
      "type": "event"
    },
    {
      "inputs": [],
      "name": "active",
      "outputs": [
        {
          "internalType": "bool",
          "name": "",
          "type": "bool"
        }
      ],
      "stateMutability": "view",
      "type": "function",
      "constant": true
    },
    {
      "inputs": [
        {
          "internalType": "address",
          "name": "",
          "type": "address"
        }
      ],
      "name": "balance",
      "outputs": [
        {
          "internalType": "uint256",
          "name": "",
          "type": "uint256"
        }
      ],
      "stateMutability": "view",
      "type": "function",
      "constant": true
    },
    {
      "inputs": [],
      "name": "depositHeld",
      "outputs": [
        {
          "internalType": "uint256",
          "name": "",
          "type": "uint256"
        }
      ],
      "stateMutability": "view",
      "type": "function",
      "constant": true
    },
    {
      "inputs": [],
      "name": "depositPaid",
      "outputs": [
        {
          "internalType": "bool",
          "name": "",
          "type": "bool"
        }
      ],
      "stateMutability": "view",
      "type": "function",
      "constant": true
    },
    {
      "inputs": [],
      "name": "end",
      "outputs": [
        {
          "internalType": "uint256",
          "name": "",
          "type": "uint256"
        }
      ],
      "stateMutability": "view",
      "type": "function",
      "constant": true
    },
    {
      "inputs": [],
      "name": "houseAddress",
      "outputs": [
        {
          "internalType": "string",
          "name": "",
          "type": "string"
        }
      ],
      "stateMutability": "view",
      "type": "function",
      "constant": true
    },
    {
      "inputs": [],
      "name": "landlord",
      "outputs": [
        {
          "internalType": "address",
          "name": "",
          "type": "address"
        }
      ],
      "stateMutability": "view",
      "type": "function",
      "constant": true
    },
    {
      "inputs": [],
      "name": "managementFeePercent",
      "outputs": [
        {
          "internalType": "uint256",
          "name": "",
          "type": "uint256"
        }
      ],
      "stateMutability": "view",
      "type": "function",
      "constant": true
    },
    {
      "inputs": [
        {
          "internalType": "uint256",
          "name": "",
          "type": "uint256"
        }
      ],
      "name": "paidRent",
      "outputs": [
        {
          "internalType": "uint256",
          "name": "id",
          "type": "uint256"
        },
        {
          "internalType": "uint256",
          "name": "value",
          "type": "uint256"
        },
        {
          "internalType": "uint256",
          "name": "timestamp",
          "type": "uint256"
        }
      ],
      "stateMutability": "view",
      "type": "function",
      "constant": true
    },
    {
      "inputs": [],
      "name": "propertyManager",
      "outputs": [
        {
          "internalType": "address",
          "name": "",
          "type": "address"
        }
      ],
      "stateMutability": "view",
      "type": "function",
      "constant": true
    },
    {
      "inputs": [],
      "name": "propertyManagerAgreed",
      "outputs": [
        {
          "internalType": "bool",
          "name": "",
          "type": "bool"
        }
      ],
      "stateMutability": "view",
      "type": "function",
      "constant": true
    },
    {
      "inputs": [],
      "name": "rentCost",
      "outputs": [
        {
          "internalType": "uint256",
          "name": "",
          "type": "uint256"
        }
      ],
      "stateMutability": "view",
      "type": "function",
      "constant": true
    },
    {
      "inputs": [],
      "name": "securityDeposit",
      "outputs": [
        {
          "internalType": "uint256",
          "name": "",
          "type": "uint256"
        }
      ],
      "stateMutability": "view",
      "type": "function",
      "constant": true
    },
    {
      "inputs": [],
      "name": "start",
      "outputs": [
        {
          "internalType": "uint256",
          "name": "",
          "type": "uint256"
        }
      ],
      "stateMutability": "view",
      "type": "function",
      "constant": true
    },
    {
      "inputs": [],
      "name": "tenant",
      "outputs": [
        {
          "internalType": "address",
          "name": "",
          "type": "address"
        }
      ],
      "stateMutability": "view",
      "type": "function",
      "constant": true
    },
    {
      "inputs": [],
      "name": "tenantAgreed",
      "outputs": [
        {
          "internalType": "bool",
          "name": "",
          "type": "bool"
        }
      ],
      "stateMutability": "view",
      "type": "function",
      "constant": true
    },
    {
      "inputs": [],
      "name": "signAsTenant",
      "outputs": [],
      "stateMutability": "nonpayable",
      "type": "function"
    },
    {
      "inputs": [],
      "name": "signAsPropertyManager",
      "outputs": [],
      "stateMutability": "nonpayable",
      "type": "function"
    },
    {
      "inputs": [],
      "name": "payDeposit",
      "outputs": [],
      "stateMutability": "payable",
      "type": "function",
      "payable": true
    },
    {
      "inputs": [],
      "name": "payRent",
      "outputs": [],
      "stateMutability": "payable",
      "type": "function",
      "payable": true
    },
    {
      "inputs": [],
      "name": "terminateContract",
      "outputs": [],
      "stateMutability": "nonpayable",
      "type": "function"
    },
    {
      "inputs": [],
      "name": "resignContract",
      "outputs": [],
      "stateMutability": "nonpayable",
      "type": "function"
    },
    {
      "inputs": [
        {
          "internalType": "uint256",
          "name": "amount",
          "type": "uint256"
        }
      ],
      "name": "claimDamages",
      "outputs": [],
      "stateMutability": "nonpayable",
      "type": "function"
    },
    {
      "inputs": [],
      "name": "returnDeposit",
      "outputs": [],
      "stateMutability": "nonpayable",
      "type": "function"
    },
    {
      "inputs": [],
      "name": "withdraw",
      "outputs": [],
      "stateMutability": "nonpayable",
      "type": "function"
    },
    {
      "inputs": [
        {
          "internalType": "uint256",
          "name": "paymentIndex",
          "type": "uint256"
        }
      ],
      "name": "getPayment",
      "outputs": [
        {
          "components": [
            {
              "internalType": "uint256",
              "name": "id",
              "type": "uint256"
            },
            {
              "internalType": "uint256",
              "name": "value",
              "type": "uint256"
            },
            {
              "internalType": "uint256",
              "name": "timestamp",
              "type": "uint256"
            }
          ],
          "internalType": "struct RentalAgreement.Payment",
          "name": "",
          "type": "tuple"
        }
      ],
      "stateMutability": "view",
      "type": "function",
      "constant": true
    }
  ],
  "bytecode": "0x60806040523480156200001157600080fd5b506040516200253b3803806200253b833981810160405281019062000037919062000213565b336000806101000a81548173ffffffffffffffffffffffffffffffffffffffff021916908373ffffffffffffffffffffffffffffffffffffffff16021790555085600690805190602001906200008f929190620000da565b508460038190555083600481905550826005819055508160098190555080600a819055506000600860006101000a81548160ff02191690831515021790555050505050505062000417565b828054620000e89062000369565b90600052602060002090601f0160209004810192826200010c576000855562000158565b82601f106200012757805160ff191683800117855562000158565b8280016001018555821562000158579182015b82811115620001575782518255916020019190600101906200013a565b5b5090506200016791906200016b565b5090565b5b80821115620001865760008160009055506001016200016c565b5090565b6000620001a16200019b84620002f6565b620002c2565b905082815260208101848484011115620001ba57600080fd5b620001c784828562000333565b509392505050565b600082601f830112620001e157600080fd5b8151620001f38482602086016200018a565b91505092915050565b6000815190506200020d81620003fd565b92915050565b60008060008060008060c087890312156200022d57600080fd5b600087015167ffffffffffffffff8111156200024857600080fd5b6200025689828a01620001cf565b96505060206200026989828a01620001fc565b95505060406200027c89828a01620001fc565b94505060606200028f89828a01620001fc565b9350506080620002a289828a01620001fc565b92505060a0620002b589828a01620001fc565b9150509295509295509295565b6000604051905081810181811067ffffffffffffffff82111715620002ec57620002eb620003ce565b5b8060405250919050565b600067ffffffffffffffff821115620003145762000313620003ce565b5b601f19601f8301169050602081019050919050565b6000819050919050565b60005b838110156200035357808201518184015260208101905062000336565b8381111562000363576000848401525b50505050565b600060028204905060018216806200038257607f821691505b602082108114156200039957620003986200039f565b5b50919050565b7f4e487b7100000000000000000000000000000000000000000000000000000000600052602260045260246000fd5b7f4e487b7100000000000000000000000000000000000000000000000000000000600052604160045260246000fd5b620004088162000329565b81146200041457600080fd5b50565b61211480620004276000396000f3fe6080604052600436106101815760003560e01c8063a989eeb6116100d1578063dc1997ea1161008a578063e7356cb511610064578063e7356cb5146104b4578063ef3ab330146104df578063efbe1c1c1461050a578063f74760681461053557610181565b8063dc1997ea1461040d578063de56cd8114610438578063e3d670d71461047757610181565b8063a989eeb61461030d578063adf0779114610336578063be9a655514610361578063c2e2df521461038c578063c6da8611146103b7578063d7cee31e146103e257610181565b806348b41c811161013e57806373f351c81161011857806373f351c8146102aa57806376e6ad13146102d55780637e88f603146102ec578063a709c4fe1461030357610181565b806348b41c81146102725780635c274b861461028957806373e5be311461029357610181565b806302fb0c5e14610186578063220e5ab3146101b15780632fd949ca146101dc5780632fe9794e146101f35780633280a8361461021e5780633ccfd60b1461025b575b600080fd5b34801561019257600080fd5b5061019b610560565b6040516101a89190611b96565b60405180910390f35b3480156101bd57600080fd5b506101c6610573565b6040516101d39190611dae565b60405180910390f35b3480156101e857600080fd5b506101f1610579565b005b3480156101ff57600080fd5b5061020861070b565b6040516102159190611b96565b60405180910390f35b34801561022a57600080fd5b5061024560048036038101906102409190611677565b61071e565b6040516102529190611d93565b60405180910390f35b34801561026757600080fd5b5061027061079e565b005b34801561027e57600080fd5b5061028761091a565b005b610291610a6c565b005b34801561029f57600080fd5b506102a8610bbd565b005b3480156102b657600080fd5b506102bf610d9e565b6040516102cc9190611dae565b60405180910390f35b3480156102e157600080fd5b506102ea610da4565b005b3480156102f857600080fd5b50610301610da6565b005b61030b610f93565b005b34801561031957600080fd5b50610334600480360381019061032f9190611677565b6112ca565b005b34801561034257600080fd5b5061034b6113db565b6040516103589190611b52565b60405180910390f35b34801561036d57600080fd5b50610376611401565b6040516103839190611dae565b60405180910390f35b34801561039857600080fd5b506103a1611407565b6040516103ae9190611b96565b60405180910390f35b3480156103c357600080fd5b506103cc61141a565b6040516103d99190611dae565b60405180910390f35b3480156103ee57600080fd5b506103f7611420565b6040516104049190611bb1565b60405180910390f35b34801561041957600080fd5b506104226114ae565b60405161042f9190611b52565b60405180910390f35b34801561044457600080fd5b5061045f600480360381019061045a9190611677565b6114d2565b60405161046e93929190611df2565b60405180910390f35b34801561048357600080fd5b5061049e6004803603810190610499919061164e565b61150c565b6040516104ab9190611dae565b60405180910390f35b3480156104c057600080fd5b506104c9611524565b6040516104d69190611b52565b60405180910390f35b3480156104eb57600080fd5b506104f461154a565b6040516105019190611b96565b60405180910390f35b34801561051657600080fd5b5061051f61155d565b60405161052c9190611dae565b60405180910390f35b34801561054157600080fd5b5061054a611563565b6040516105579190611dae565b60405180910390f35b600860009054906101000a900460ff1681565b60045481565b60008054906101000a900473ffffffffffffffffffffffffffffffffffffffff1673ffffffffffffffffffffffffffffffffffffffff163373ffffffffffffffffffffffffffffffffffffffff1614806106205750600160009054906101000a900473ffffffffffffffffffffffffffffffffffffffff1673ffffffffffffffffffffffffffffffffffffffff163373ffffffffffffffffffffffffffffffffffffffff16145b806106785750600260009054906101000a900473ffffffffffffffffffffffffffffffffffffffff1673ffffffffffffffffffffffffffffffffffffffff163373ffffffffffffffffffffffffffffffffffffffff16145b6106b7576040517f08c379a00000000000000000000000000000000000000000000000000000000081526004016106ae90611c33565b60405180910390fd5b6000600860006101000a81548160ff0219169083151502179055507f5760684a9ae00ee4a9ccadd1b4cc0c9bc48ff36d7c91399445204ca23ec18857426040516107019190611dae565b60405180910390a1565b600260159054906101000a900460ff1681565b610726611603565b600b8281548110610760577f4e487b7100000000000000000000000000000000000000000000000000000000600052603260045260246000fd5b906000526020600020906003020160405180606001604052908160008201548152602001600182015481526020016002820154815250509050919050565b6000600c60003373ffffffffffffffffffffffffffffffffffffffff1673ffffffffffffffffffffffffffffffffffffffff16815260200190815260200160002054905060008111610825576040517f08c379a000000000000000000000000000000000000000000000000000000000815260040161081c90611d13565b60405180910390fd5b6000600c60003373ffffffffffffffffffffffffffffffffffffffff1673ffffffffffffffffffffffffffffffffffffffff1681526020019081526020016000208190555060003373ffffffffffffffffffffffffffffffffffffffff168260405161089090611b3d565b60006040518083038185875af1925050503d80600081146108cd576040519150601f19603f3d011682016040523d82523d6000602084013e6108d2565b606091505b5050905080610916576040517f08c379a000000000000000000000000000000000000000000000000000000000815260040161090d90611c53565b60405180910390fd5b5050565b600160009054906101000a900473ffffffffffffffffffffffffffffffffffffffff1673ffffffffffffffffffffffffffffffffffffffff163373ffffffffffffffffffffffffffffffffffffffff1614156109ab576040517f08c379a00000000000000000000000000000000000000000000000000000000081526004016109a290611d73565b60405180910390fd5b33600260006101000a81548173ffffffffffffffffffffffffffffffffffffffff021916908373ffffffffffffffffffffffffffffffffffffffff1602179055506001600260156101000a81548160ff021916908315150217905550610a0f611569565b7fc87f5d9973d13782a473eaa8ad5386eeb7b6e5d9eb3136cf46385dfea7d455f3600260009054906101000a900473ffffffffffffffffffffffffffffffffffffffff1642604051610a62929190611b6d565b60405180910390a1565b600160009054906101000a900473ffffffffffffffffffffffffffffffffffffffff1673ffffffffffffffffffffffffffffffffffffffff163373ffffffffffffffffffffffffffffffffffffffff1614610afc576040517f08c379a0000000000000000000000000000000000000000000000000000000008152600401610af390611c73565b60405180910390fd5b600260169054906101000a900460ff1615610b4c576040517f08c379a0000000000000000000000000000000000000000000000000000000008152600401610b4390611bd3565b60405180910390fd5b6004543414610b5a57600080fd5b346007819055506001600260166101000a81548160ff0219169083151502179055507f488a0a49d4886026f694d753c0642d9174e8d821a25c5992b222c4970a00621142604051610bab9190611dae565b60405180910390a1610bbb611569565b565b60008054906101000a900473ffffffffffffffffffffffffffffffffffffffff1673ffffffffffffffffffffffffffffffffffffffff163373ffffffffffffffffffffffffffffffffffffffff161415610c4c576040517f08c379a0000000000000000000000000000000000000000000000000000000008152600401610c4390611c13565b60405180910390fd5b600260009054906101000a900473ffffffffffffffffffffffffffffffffffffffff1673ffffffffffffffffffffffffffffffffffffffff163373ffffffffffffffffffffffffffffffffffffffff161415610cdd576040517f08c379a0000000000000000000000000000000000000000000000000000000008152600401610cd490611cb3565b60405180910390fd5b33600160006101000a81548173ffffffffffffffffffffffffffffffffffffffff021916908373ffffffffffffffffffffffffffffffffffffffff1602179055506001600260146101000a81548160ff021916908315150217905550610d41611569565b7fc87f5d9973d13782a473eaa8ad5386eeb7b6e5d9eb3136cf46385dfea7d455f3600160009054906101000a900473ffffffffffffffffffffffffffffffffffffffff1642604051610d94929190611b6d565b60405180910390a1565b60055481565b565b60008054906101000a900473ffffffffffffffffffffffffffffffffffffffff1673ffffffffffffffffffffffffffffffffffffffff163373ffffffffffffffffffffffffffffffffffffffff1614610e34576040517f08c379a0000000000000000000000000000000000000000000000000000000008152600401610e2b90611bf3565b60405180910390fd5b600060075411610e79576040517f08c379a0000000000000000000000000000000000000000000000000000000008152600401610e7090611cf3565b60405180910390fd5b6000600754905060006007819055506000600160009054906101000a900473ffffffffffffffffffffffffffffffffffffffff1673ffffffffffffffffffffffffffffffffffffffff1682604051610ed090611b3d565b60006040518083038185875af1925050503d8060008114610f0d576040519150601f19603f3d011682016040523d82523d6000602084013e610f12565b606091505b5050905080610f56576040517f08c379a0000000000000000000000000000000000000000000000000000000008152600401610f4d90611c53565b60405180910390fd5b7f43f1a62374b03888ce7ed69d5599d19e6aa7c4e5863ab594bdaae22bd3637aae8242604051610f87929190611dc9565b60405180910390a15050565b600160009054906101000a900473ffffffffffffffffffffffffffffffffffffffff1673ffffffffffffffffffffffffffffffffffffffff163373ffffffffffffffffffffffffffffffffffffffff1614611023576040517f08c379a000000000000000000000000000000000000000000000000000000000815260040161101a90611c73565b60405180910390fd5b600860009054906101000a900460ff16611072576040517f08c379a000000000000000000000000000000000000000000000000000000000815260040161106990611d33565b60405180910390fd5b60035434146110b6576040517f08c379a00000000000000000000000000000000000000000000000000000000081526004016110ad90611c93565b60405180910390fd5b600a544211156110fb576040517f08c379a00000000000000000000000000000000000000000000000000000000081526004016110f290611cd3565b60405180910390fd5b600060646005543461110d9190611ed7565b6111179190611ea6565b9050600081346111279190611f31565b905080600c60008060009054906101000a900473ffffffffffffffffffffffffffffffffffffffff1673ffffffffffffffffffffffffffffffffffffffff1673ffffffffffffffffffffffffffffffffffffffff16815260200190815260200160002060008282546111999190611e50565b9250508190555081600c6000600260009054906101000a900473ffffffffffffffffffffffffffffffffffffffff1673ffffffffffffffffffffffffffffffffffffffff1673ffffffffffffffffffffffffffffffffffffffff16815260200190815260200160002060008282546112119190611e50565b92505081905550600b60405180606001604052806001600b805490506112379190611e50565b815260200134815260200142815250908060018154018082558091505060019003906000526020600020906003020160009091909190915060008201518160000155602082015181600101556040820151816002015550507f6f6f663a95cfc56731d5c426da5aa1a62df862a4b97f25aac9f299409791628a426040516112be9190611dae565b60405180910390a15050565b60075481111561130f576040517f08c379a000000000000000000000000000000000000000000000000000000000815260040161130690611d53565b60405180910390fd5b80600760008282546113219190611f31565b9250508190555080600c60008060009054906101000a900473ffffffffffffffffffffffffffffffffffffffff1673ffffffffffffffffffffffffffffffffffffffff1673ffffffffffffffffffffffffffffffffffffffff16815260200190815260200160002060008282546113989190611e50565b925050819055507fe9a7bf6a4ff808bee0de7a737fb73a2c5f2a5977125e17c58c30cf6b1bb5bdb281426040516113d0929190611dc9565b60405180910390a150565b600160009054906101000a900473ffffffffffffffffffffffffffffffffffffffff1681565b60095481565b600260149054906101000a900460ff1681565b60075481565b6006805461142d90611fe0565b80601f016020809104026020016040519081016040528092919081815260200182805461145990611fe0565b80156114a65780601f1061147b576101008083540402835291602001916114a6565b820191906000526020600020905b81548152906001019060200180831161148957829003601f168201915b505050505081565b60008054906101000a900473ffffffffffffffffffffffffffffffffffffffff1681565b600b81815481106114e257600080fd5b90600052602060002090600302016000915090508060000154908060010154908060020154905083565b600c6020528060005260406000206000915090505481565b600260009054906101000a900473ffffffffffffffffffffffffffffffffffffffff1681565b600260169054906101000a900460ff1681565b600a5481565b60035481565b600260149054906101000a900460ff1680156115915750600260159054906101000a900460ff165b80156115a95750600260169054906101000a900460ff165b15611601576001600860006101000a81548160ff0219169083151502179055507faf3c49f5413fd292e2325b0fe214de144a222b00cb6ec21214fdc04b5d6c5913426040516115f89190611dae565b60405180910390a15b565b60405180606001604052806000815260200160008152602001600081525090565b600081359050611633816120b0565b92915050565b600081359050611648816120c7565b92915050565b60006020828403121561166057600080fd5b600061166e84828501611624565b91505092915050565b60006020828403121561168957600080fd5b600061169784828501611639565b91505092915050565b6116a981611f65565b82525050565b6116b881611f77565b82525050565b60006116c982611e29565b6116d38185611e3f565b93506116e3818560208601611fad565b6116ec8161209f565b840191505092915050565b6000611704601483611e3f565b91507f4465706f73697420616c726561647920706169640000000000000000000000006000830152602082019050919050565b6000611744601683611e3f565b91507f4f6e6c79206c616e646c6f726420616c6c6f7765642e000000000000000000006000830152602082019050919050565b6000611784602083611e3f565b91507f4c616e646c6f72642063616e277420626520686973206f776e2074656e616e746000830152602082019050919050565b60006117c4601c83611e3f565b91507f4e6f74206120706172747920696e207468697320636f6e7472616374000000006000830152602082019050919050565b6000611804600f83611e3f565b91507f5472616e73666572206661696c656400000000000000000000000000000000006000830152602082019050919050565b6000611844601783611e3f565b91507f4f6e6c792074656e616e7420697320616c6c6f7765642e0000000000000000006000830152602082019050919050565b6000611884600d83611e3f565b91507f57726f6e6720616d6f756e742e000000000000000000000000000000000000006000830152602082019050919050565b60006118c4603083611e3f565b91507f43616e6e6f7420626520612074656e616e74206f6e20612070726f706572747960008301527f207468617420796f75206d616e616765000000000000000000000000000000006020830152604082019050919050565b600061192a601083611e3f565b91507f4c656173652068617320656e6465642e000000000000000000000000000000006000830152602082019050919050565b600061196a600f83611e3f565b91507f4e6f206465706f736974206c65667400000000000000000000000000000000006000830152602082019050919050565b60006119aa601683611e3f565b91507f4e6f2062616c616e636520746f207769746864726177000000000000000000006000830152602082019050919050565b60006119ea600083611e34565b9150600082019050919050565b6000611a04601a83611e3f565b91507f4c6561736520686173206e6f74206265656e207369676e65642e0000000000006000830152602082019050919050565b6000611a44601c83611e3f565b91507f4e6f7420656e6f756768206d6f6e657920696e206465706f7369742e000000006000830152602082019050919050565b6000611a84603183611e3f565b91507f54656e616e742063616e2774206d616e616765207468652070726f706572747960008301527f2074686579206172652072656e74696e670000000000000000000000000000006020830152604082019050919050565b606082016000820151611af36000850182611b1f565b506020820151611b066020850182611b1f565b506040820151611b196040850182611b1f565b50505050565b611b2881611fa3565b82525050565b611b3781611fa3565b82525050565b6000611b48826119dd565b9150819050919050565b6000602082019050611b6760008301846116a0565b92915050565b6000604082019050611b8260008301856116a0565b611b8f6020830184611b2e565b9392505050565b6000602082019050611bab60008301846116af565b92915050565b60006020820190508181036000830152611bcb81846116be565b905092915050565b60006020820190508181036000830152611bec816116f7565b9050919050565b60006020820190508181036000830152611c0c81611737565b9050919050565b60006020820190508181036000830152611c2c81611777565b9050919050565b60006020820190508181036000830152611c4c816117b7565b9050919050565b60006020820190508181036000830152611c6c816117f7565b9050919050565b60006020820190508181036000830152611c8c81611837565b9050919050565b60006020820190508181036000830152611cac81611877565b9050919050565b60006020820190508181036000830152611ccc816118b7565b9050919050565b60006020820190508181036000830152611cec8161191d565b9050919050565b60006020820190508181036000830152611d0c8161195d565b9050919050565b60006020820190508181036000830152611d2c8161199d565b9050919050565b60006020820190508181036000830152611d4c816119f7565b9050919050565b60006020820190508181036000830152611d6c81611a37565b9050919050565b60006020820190508181036000830152611d8c81611a77565b9050919050565b6000606082019050611da86000830184611add565b92915050565b6000602082019050611dc36000830184611b2e565b92915050565b6000604082019050611dde6000830185611b2e565b611deb6020830184611b2e565b9392505050565b6000606082019050611e076000830186611b2e565b611e146020830185611b2e565b611e216040830184611b2e565b949350505050565b600081519050919050565b600081905092915050565b600082825260208201905092915050565b6000611e5b82611fa3565b9150611e6683611fa3565b9250827fffffffffffffffffffffffffffffffffffffffffffffffffffffffffffffffff03821115611e9b57611e9a612012565b5b828201905092915050565b6000611eb182611fa3565b9150611ebc83611fa3565b925082611ecc57611ecb612041565b5b828204905092915050565b6000611ee282611fa3565b9150611eed83611fa3565b9250817fffffffffffffffffffffffffffffffffffffffffffffffffffffffffffffffff0483118215151615611f2657611f25612012565b5b828202905092915050565b6000611f3c82611fa3565b9150611f4783611fa3565b925082821015611f5a57611f59612012565b5b828203905092915050565b6000611f7082611f83565b9050919050565b60008115159050919050565b600073ffffffffffffffffffffffffffffffffffffffff82169050919050565b6000819050919050565b60005b83811015611fcb578082015181840152602081019050611fb0565b83811115611fda576000848401525b50505050565b60006002820490506001821680611ff857607f821691505b6020821081141561200c5761200b612070565b5b50919050565b7f4e487b7100000000000000000000000000000000000000000000000000000000600052601160045260246000fd5b7f4e487b7100000000000000000000000000000000000000000000000000000000600052601260045260246000fd5b7f4e487b7100000000000000000000000000000000000000000000000000000000600052602260045260246000fd5b6000601f19601f8301169050919050565b6120b981611f65565b81146120c457600080fd5b50565b6120d081611fa3565b81146120db57600080fd5b5056fea2646970667358221220cb1469d124dea3ccd663a883f242953a441267f0a7f811bbde042017d23a33b064736f6c63430008000033",
  "immutableReferences": {},
  "source": "// SPDX-License-Identifier: MIT\r\npragma solidity ^0.8.0;\r\n\r\ncontract RentalAgreement{\r\n   address public landlord;\r\n   address public tenant;\r\n   address public propertyManager;\r\n\r\n   bool public tenantAgreed;\r\n   bool public propertyManagerAgreed;\r\n   bool public depositPaid;\r\n\r\n   uint public rentCost;\r\n   uint public securityDeposit;\r\n   uint public managementFeePercent;\r\n   string public houseAddress;\r\n   \r\n   uint public depositHeld;\r\n   bool public active;\r\n\r\n   uint public start;\r\n   uint public end;\r\n\r\n   struct Payment{\r\n      uint id;\r\n      uint value;\r\n      uint timestamp;\r\n   }\r\n\r\n   Payment[] public paidRent;\r\n\r\n   mapping(address => uint) public balance; \r\n\r\n   event RentPaid(uint timestamp);\r\n   event ContractSigned(uint timestamp);\r\n   event ContractTerminated(uint timestamp);\r\n   event AgreedToTerms(address party, uint timestamp);\r\n   event DepositPaid(uint timestamp);\r\n   event DamagesClaimed(uint amount, uint timestamp);\r\n   event DepositReturned(uint amount, uint timestamp);\r\n\r\n   constructor (\r\n      string memory _houseAddress,\r\n      uint _rentCost,\r\n      uint _securityDeposit,\r\n      uint _managementFeePercent, \r\n      uint _start, \r\n      uint _end\r\n   ) {\r\n      landlord = msg.sender;\r\n      houseAddress = _houseAddress;\r\n      rentCost = _rentCost;\r\n      securityDeposit = _securityDeposit;\r\n      managementFeePercent = _managementFeePercent;\r\n      start = _start;\r\n      end = _end;\r\n      active = false;\r\n   }\r\n\r\n   function signAsTenant() external {\r\n      require(msg.sender!=landlord, \"Landlord can't be his own tenant\");\r\n      require(msg.sender!=propertyManager, \"Cannot be a tenant on a property that you manage\");\r\n      tenant = msg.sender;\r\n      tenantAgreed = true;\r\n      signContract();\r\n\r\n      emit AgreedToTerms(tenant, block.timestamp);\r\n   }\r\n\r\n   function signAsPropertyManager() external {\r\n      require(msg.sender!=tenant, \"Tenant can't manage the property they are renting\");\r\n      propertyManager = msg.sender;\r\n      propertyManagerAgreed = true;\r\n      signContract();\r\n\r\n      emit AgreedToTerms(propertyManager, block.timestamp);\r\n   }\r\n\r\n   function payDeposit() external payable{\r\n      require(msg.sender == tenant, \"Only tenant is allowed.\");\r\n      require(!depositPaid, \"Deposit already paid\");\r\n      require(msg.value == securityDeposit);\r\n\r\n      depositHeld = msg.value;\r\n      depositPaid = true;\r\n\r\n      emit DepositPaid(block.timestamp);\r\n\r\n      signContract();\r\n   }\r\n\r\n   function signContract() internal {\r\n      if(tenantAgreed && propertyManagerAgreed && depositPaid){\r\n      active = true;\r\n      emit ContractSigned(block.timestamp);}\r\n   }\r\n\r\n   function payRent () external payable {\r\n      require(msg.sender == tenant, \"Only tenant is allowed.\");\r\n      require(active, \"Lease has not been signed.\");\r\n      require(msg.value == rentCost, \"Wrong amount.\");\r\n      require(block.timestamp <= end, \"Lease has ended.\");\r\n\r\n      uint managementFee = (msg.value * managementFeePercent) /100;\r\n      uint landlordFee = msg.value - managementFee;\r\n\r\n      balance[landlord] += landlordFee;\r\n      balance[propertyManager] += managementFee;\r\n\r\n      paidRent.push(Payment({\r\n         id : paidRent.length + 1,\r\n         value : msg.value,\r\n         timestamp : block.timestamp\r\n      }));\r\n\r\n      emit RentPaid(block.timestamp);\r\n   }\r\n\r\n   function terminateContract() external {\r\n      require(msg.sender == landlord || \r\n      msg.sender == tenant || \r\n      msg.sender == propertyManager, \r\n      \"Not a party in this contract\");\r\n      active = false;\r\n\r\n      emit ContractTerminated(block.timestamp);\r\n   }\r\n\r\n   function resignContract() external {\r\n      \r\n   }\r\n\r\n   function claimDamages(uint amount) external {\r\n      require(amount <= depositHeld, \"Not enough money in deposit.\");\r\n      depositHeld -= amount;\r\n      balance[landlord] += amount;\r\n\r\n      emit DamagesClaimed(amount, block.timestamp);\r\n   }\r\n\r\n   function returnDeposit() external {\r\n      require(msg.sender == landlord, \"Only landlord allowed.\");\r\n      require(depositHeld > 0, \"No deposit left\");\r\n\r\n      uint amountToReturn = depositHeld;\r\n      depositHeld = 0;\r\n      (bool returned, ) = payable(tenant).call{value: amountToReturn}(\"\");\r\n      require(returned, \"Transfer failed\");\r\n      \r\n      emit DepositReturned(amountToReturn, block.timestamp);\r\n   }\r\n\r\n   function withdraw() external {\r\n      uint amount = balance[msg.sender];\r\n      require(amount > 0, \"No balance to withdraw\");\r\n   \r\n      balance[msg.sender] = 0;\r\n      (bool sent, ) = payable(msg.sender).call{value: amount}(\"\");\r\n      require(sent, \"Transfer failed\");\r\n   }\r\n\r\n   function getPayment(uint paymentIndex) public view returns(Payment memory) {\r\n      return paidRent[paymentIndex];\r\n   }\r\n}",
  "sourcePath": "C:\\Users\\tamel\\Documents\\uni\\3 semestras\\blockchain\\blockchain-04\\contracts\\RentalAgreement.sol",
  "compiler": {
    "name": "solc",
    "version": "0.8.0+commit.c7dfd78e.Emscripten.clang"
  },
  "schemaVersion": "3.4.16",
  "updatedAt": "2025-12-10T12:31:08.591Z",
  "networkType": "ethereum",
  "devdoc": {
    "kind": "dev",
    "methods": {},
    "version": 1
  },
  "userdoc": {
    "kind": "user",
    "methods": {},
    "version": 1
  }
}