{
  "contractName": "RentalAgreement",
  "abi": [
    {
      "inputs": [
        {
          "internalType": "uint256",
          "name": "_rentCost",
          "type": "uint256"
        },
        {
          "internalType": "uint256",
          "name": "_securityDeposit",
          "type": "uint256"
        },
        {
          "internalType": "uint256",
          "name": "_managementFeePercent",
          "type": "uint256"
        },
        {
          "internalType": "uint256",
          "name": "_start",
          "type": "uint256"
        },
        {
          "internalType": "uint256",
          "name": "_end",
          "type": "uint256"
        }
      ],
      "stateMutability": "nonpayable",
      "type": "constructor"
    },
    {
      "anonymous": false,
      "inputs": [
        {
          "indexed": false,
          "internalType": "address",
          "name": "party",
          "type": "address"
        },
        {
          "indexed": false,
          "internalType": "uint256",
          "name": "timestamp",
          "type": "uint256"
        }
      ],
      "name": "AgreedToTerms",
      "type": "event"
    },
    {
      "anonymous": false,
      "inputs": [
        {
          "indexed": false,
          "internalType": "uint256",
          "name": "timestamp",
          "type": "uint256"
        }
      ],
      "name": "ContractSigned",
      "type": "event"
    },
    {
      "anonymous": false,
      "inputs": [
        {
          "indexed": false,
          "internalType": "uint256",
          "name": "timestamp",
          "type": "uint256"
        }
      ],
      "name": "ContractTerminated",
      "type": "event"
    },
    {
      "anonymous": false,
      "inputs": [
        {
          "indexed": false,
          "internalType": "uint256",
          "name": "amount",
          "type": "uint256"
        },
        {
          "indexed": false,
          "internalType": "uint256",
          "name": "timestamp",
          "type": "uint256"
        }
      ],
      "name": "DamagesClaimed",
      "type": "event"
    },
    {
      "anonymous": false,
      "inputs": [
        {
          "indexed": false,
          "internalType": "uint256",
          "name": "timestamp",
          "type": "uint256"
        }
      ],
      "name": "DepositPaid",
      "type": "event"
    },
    {
      "anonymous": false,
      "inputs": [
        {
          "indexed": false,
          "internalType": "uint256",
          "name": "amount",
          "type": "uint256"
        },
        {
          "indexed": false,
          "internalType": "uint256",
          "name": "timestamp",
          "type": "uint256"
        }
      ],
      "name": "DepositReturned",
      "type": "event"
    },
    {
      "anonymous": false,
      "inputs": [
        {
          "indexed": false,
          "internalType": "uint256",
          "name": "timestamp",
          "type": "uint256"
        }
      ],
      "name": "RentPaid",
      "type": "event"
    },
    {
      "anonymous": false,
      "inputs": [
        {
          "indexed": false,
          "internalType": "uint256",
          "name": "timestamp",
          "type": "uint256"
        }
      ],
      "name": "TermsChanged",
      "type": "event"
    },
    {
      "inputs": [],
      "name": "active",
      "outputs": [
        {
          "internalType": "bool",
          "name": "",
          "type": "bool"
        }
      ],
      "stateMutability": "view",
      "type": "function",
      "constant": true
    },
    {
      "inputs": [
        {
          "internalType": "address",
          "name": "",
          "type": "address"
        }
      ],
      "name": "balance",
      "outputs": [
        {
          "internalType": "uint256",
          "name": "",
          "type": "uint256"
        }
      ],
      "stateMutability": "view",
      "type": "function",
      "constant": true
    },
    {
      "inputs": [],
      "name": "depositHeld",
      "outputs": [
        {
          "internalType": "uint256",
          "name": "",
          "type": "uint256"
        }
      ],
      "stateMutability": "view",
      "type": "function",
      "constant": true
    },
    {
      "inputs": [],
      "name": "depositPaid",
      "outputs": [
        {
          "internalType": "bool",
          "name": "",
          "type": "bool"
        }
      ],
      "stateMutability": "view",
      "type": "function",
      "constant": true
    },
    {
      "inputs": [],
      "name": "end",
      "outputs": [
        {
          "internalType": "uint256",
          "name": "",
          "type": "uint256"
        }
      ],
      "stateMutability": "view",
      "type": "function",
      "constant": true
    },
    {
      "inputs": [],
      "name": "landlord",
      "outputs": [
        {
          "internalType": "address",
          "name": "",
          "type": "address"
        }
      ],
      "stateMutability": "view",
      "type": "function",
      "constant": true
    },
    {
      "inputs": [],
      "name": "managementFeePercent",
      "outputs": [
        {
          "internalType": "uint256",
          "name": "",
          "type": "uint256"
        }
      ],
      "stateMutability": "view",
      "type": "function",
      "constant": true
    },
    {
      "inputs": [
        {
          "internalType": "uint256",
          "name": "",
          "type": "uint256"
        }
      ],
      "name": "paidRent",
      "outputs": [
        {
          "internalType": "uint256",
          "name": "id",
          "type": "uint256"
        },
        {
          "internalType": "uint256",
          "name": "value",
          "type": "uint256"
        },
        {
          "internalType": "uint256",
          "name": "timestamp",
          "type": "uint256"
        }
      ],
      "stateMutability": "view",
      "type": "function",
      "constant": true
    },
    {
      "inputs": [],
      "name": "propertyManager",
      "outputs": [
        {
          "internalType": "address",
          "name": "",
          "type": "address"
        }
      ],
      "stateMutability": "view",
      "type": "function",
      "constant": true
    },
    {
      "inputs": [],
      "name": "propertyManagerAgreed",
      "outputs": [
        {
          "internalType": "bool",
          "name": "",
          "type": "bool"
        }
      ],
      "stateMutability": "view",
      "type": "function",
      "constant": true
    },
    {
      "inputs": [],
      "name": "rentCost",
      "outputs": [
        {
          "internalType": "uint256",
          "name": "",
          "type": "uint256"
        }
      ],
      "stateMutability": "view",
      "type": "function",
      "constant": true
    },
    {
      "inputs": [],
      "name": "securityDeposit",
      "outputs": [
        {
          "internalType": "uint256",
          "name": "",
          "type": "uint256"
        }
      ],
      "stateMutability": "view",
      "type": "function",
      "constant": true
    },
    {
      "inputs": [],
      "name": "start",
      "outputs": [
        {
          "internalType": "uint256",
          "name": "",
          "type": "uint256"
        }
      ],
      "stateMutability": "view",
      "type": "function",
      "constant": true
    },
    {
      "inputs": [],
      "name": "tenant",
      "outputs": [
        {
          "internalType": "address",
          "name": "",
          "type": "address"
        }
      ],
      "stateMutability": "view",
      "type": "function",
      "constant": true
    },
    {
      "inputs": [],
      "name": "tenantAgreed",
      "outputs": [
        {
          "internalType": "bool",
          "name": "",
          "type": "bool"
        }
      ],
      "stateMutability": "view",
      "type": "function",
      "constant": true
    },
    {
      "inputs": [],
      "name": "signAsTenant",
      "outputs": [],
      "stateMutability": "nonpayable",
      "type": "function"
    },
    {
      "inputs": [],
      "name": "signAsPropertyManager",
      "outputs": [],
      "stateMutability": "nonpayable",
      "type": "function"
    },
    {
      "inputs": [],
      "name": "payDeposit",
      "outputs": [],
      "stateMutability": "payable",
      "type": "function",
      "payable": true
    },
    {
      "inputs": [],
      "name": "payRent",
      "outputs": [],
      "stateMutability": "payable",
      "type": "function",
      "payable": true
    },
    {
      "inputs": [],
      "name": "terminateContract",
      "outputs": [],
      "stateMutability": "nonpayable",
      "type": "function"
    },
    {
      "inputs": [
        {
          "internalType": "uint256",
          "name": "cost",
          "type": "uint256"
        }
      ],
      "name": "changeRentCost",
      "outputs": [],
      "stateMutability": "nonpayable",
      "type": "function"
    },
    {
      "inputs": [
        {
          "internalType": "uint256",
          "name": "cost",
          "type": "uint256"
        }
      ],
      "name": "changeDepositValue",
      "outputs": [],
      "stateMutability": "nonpayable",
      "type": "function"
    },
    {
      "inputs": [
        {
          "internalType": "uint256",
          "name": "percentage",
          "type": "uint256"
        }
      ],
      "name": "changeManagementFee",
      "outputs": [],
      "stateMutability": "nonpayable",
      "type": "function"
    },
    {
      "inputs": [
        {
          "internalType": "uint256",
          "name": "date",
          "type": "uint256"
        }
      ],
      "name": "changeStartDate",
      "outputs": [],
      "stateMutability": "nonpayable",
      "type": "function"
    },
    {
      "inputs": [
        {
          "internalType": "uint256",
          "name": "date",
          "type": "uint256"
        }
      ],
      "name": "changeEndDate",
      "outputs": [],
      "stateMutability": "nonpayable",
      "type": "function"
    },
    {
      "inputs": [
        {
          "internalType": "uint256",
          "name": "amount",
          "type": "uint256"
        }
      ],
      "name": "claimDamages",
      "outputs": [],
      "stateMutability": "nonpayable",
      "type": "function"
    },
    {
      "inputs": [],
      "name": "returnDeposit",
      "outputs": [],
      "stateMutability": "nonpayable",
      "type": "function"
    },
    {
      "inputs": [],
      "name": "withdraw",
      "outputs": [],
      "stateMutability": "nonpayable",
      "type": "function"
    },
    {
      "inputs": [
        {
          "internalType": "uint256",
          "name": "paymentIndex",
          "type": "uint256"
        }
      ],
      "name": "getPayment",
      "outputs": [
        {
          "components": [
            {
              "internalType": "uint256",
              "name": "id",
              "type": "uint256"
            },
            {
              "internalType": "uint256",
              "name": "value",
              "type": "uint256"
            },
            {
              "internalType": "uint256",
              "name": "timestamp",
              "type": "uint256"
            }
          ],
          "internalType": "struct RentalAgreement.Payment",
          "name": "",
          "type": "tuple"
        }
      ],
      "stateMutability": "view",
      "type": "function",
      "constant": true
    }
  ],
  "bytecode": "0x60806040523480156200001157600080fd5b5060405162002986380380620029868339818101604052810190620000379190620000d7565b336000806101000a81548173ffffffffffffffffffffffffffffffffffffffff021916908373ffffffffffffffffffffffffffffffffffffffff16021790555084600381905550836004819055508260058190555081600881905550806009819055506000600760006101000a81548160ff02191690831515021790555050505050506200017d565b600081519050620000d18162000163565b92915050565b600080600080600060a08688031215620000f057600080fd5b60006200010088828901620000c0565b95505060206200011388828901620000c0565b94505060406200012688828901620000c0565b93505060606200013988828901620000c0565b92505060806200014c88828901620000c0565b9150509295509295909350565b6000819050919050565b6200016e8162000159565b81146200017a57600080fd5b50565b6127f9806200018d6000396000f3fe6080604052600436106101c15760003560e01c8063a709c4fe116100f7578063dbae72c311610095578063e7356cb511610064578063e7356cb51461057f578063ef3ab330146105aa578063efbe1c1c146105d5578063f747606814610600576101c1565b8063dbae72c3146104af578063dc1997ea146104d8578063de56cd8114610503578063e3d670d714610542576101c1565b8063bb98d98f116100d1578063bb98d98f14610405578063be9a65551461042e578063c2e2df5214610459578063c6da861114610484576101c1565b8063a709c4fe146103a7578063a989eeb6146103b1578063adf07791146103da576101c1565b80633ccfd60b116101645780635c274b861161013e5780635c274b861461034457806373e5be311461034e57806373f351c8146103655780637e88f60314610390576101c1565b80633ccfd60b146102ed57806345737b1e1461030457806348b41c811461032d576101c1565b80632d2cba47116101a05780632d2cba47146102455780632fd949ca1461026e5780632fe9794e146102855780633280a836146102b0576101c1565b8062739f2a146101c657806302fb0c5e146101ef578063220e5ab31461021a575b600080fd5b3480156101d257600080fd5b506101ed60048036038101906101e89190611d81565b61062b565b005b3480156101fb57600080fd5b50610204610786565b604051610211919061230d565b60405180910390f35b34801561022657600080fd5b5061022f610799565b60405161023c9190612543565b60405180910390f35b34801561025157600080fd5b5061026c60048036038101906102679190611d81565b61079f565b005b34801561027a57600080fd5b506102836108fa565b005b34801561029157600080fd5b5061029a610a94565b6040516102a7919061230d565b60405180910390f35b3480156102bc57600080fd5b506102d760048036038101906102d29190611d81565b610aa7565b6040516102e49190612528565b60405180910390f35b3480156102f957600080fd5b50610302610b27565b005b34801561031057600080fd5b5061032b60048036038101906103269190611d81565b610ca3565b005b34801561033957600080fd5b50610342610dfe565b005b61034c610f50565b005b34801561035a57600080fd5b506103636110a1565b005b34801561037157600080fd5b5061037a611282565b6040516103879190612543565b60405180910390f35b34801561039c57600080fd5b506103a5611288565b005b6103af611475565b005b3480156103bd57600080fd5b506103d860048036038101906103d39190611d81565b6117ac565b005b3480156103e657600080fd5b506103ef6118bd565b6040516103fc91906122c9565b60405180910390f35b34801561041157600080fd5b5061042c60048036038101906104279190611d81565b6118e3565b005b34801561043a57600080fd5b50610443611a3e565b6040516104509190612543565b60405180910390f35b34801561046557600080fd5b5061046e611a44565b60405161047b919061230d565b60405180910390f35b34801561049057600080fd5b50610499611a57565b6040516104a69190612543565b60405180910390f35b3480156104bb57600080fd5b506104d660048036038101906104d19190611d81565b611a5d565b005b3480156104e457600080fd5b506104ed611bb8565b6040516104fa91906122c9565b60405180910390f35b34801561050f57600080fd5b5061052a60048036038101906105259190611d81565b611bdc565b60405161053993929190612587565b60405180910390f35b34801561054e57600080fd5b5061056960048036038101906105649190611d58565b611c16565b6040516105769190612543565b60405180910390f35b34801561058b57600080fd5b50610594611c2e565b6040516105a191906122c9565b60405180910390f35b3480156105b657600080fd5b506105bf611c54565b6040516105cc919061230d565b60405180910390f35b3480156105e157600080fd5b506105ea611c67565b6040516105f79190612543565b60405180910390f35b34801561060c57600080fd5b50610615611c6d565b6040516106229190612543565b60405180910390f35b60001515600760009054906101000a900460ff16151514610681576040517f08c379a000000000000000000000000000000000000000000000000000000000815260040161067890612428565b60405180910390fd5b60008054906101000a900473ffffffffffffffffffffffffffffffffffffffff1673ffffffffffffffffffffffffffffffffffffffff163373ffffffffffffffffffffffffffffffffffffffff161461070f576040517f08c379a000000000000000000000000000000000000000000000000000000000815260040161070690612388565b60405180910390fd5b806008819055506000600260146101000a81548160ff0219169083151502179055506000600260156101000a81548160ff0219169083151502179055507fd2835878ea6162878fc85888082376470d4b4277d91c0fadb875a36d70ba1af54260405161077b9190612543565b60405180910390a150565b600760009054906101000a900460ff1681565b60045481565b60001515600760009054906101000a900460ff161515146107f5576040517f08c379a00000000000000000000000000000000000000000000000000000000081526004016107ec90612428565b60405180910390fd5b60008054906101000a900473ffffffffffffffffffffffffffffffffffffffff1673ffffffffffffffffffffffffffffffffffffffff163373ffffffffffffffffffffffffffffffffffffffff1614610883576040517f08c379a000000000000000000000000000000000000000000000000000000000815260040161087a90612388565b60405180910390fd5b806005819055506000600260146101000a81548160ff0219169083151502179055506000600260156101000a81548160ff0219169083151502179055507fd2835878ea6162878fc85888082376470d4b4277d91c0fadb875a36d70ba1af5426040516108ef9190612543565b60405180910390a150565b60008054906101000a900473ffffffffffffffffffffffffffffffffffffffff1673ffffffffffffffffffffffffffffffffffffffff163373ffffffffffffffffffffffffffffffffffffffff1614806109a15750600160009054906101000a900473ffffffffffffffffffffffffffffffffffffffff1673ffffffffffffffffffffffffffffffffffffffff163373ffffffffffffffffffffffffffffffffffffffff16145b806109f95750600260009054906101000a900473ffffffffffffffffffffffffffffffffffffffff1673ffffffffffffffffffffffffffffffffffffffff163373ffffffffffffffffffffffffffffffffffffffff16145b610a38576040517f08c379a0000000000000000000000000000000000000000000000000000000008152600401610a2f906123a8565b60405180910390fd5b6000600760006101000a81548160ff021916908315150217905550610a5b611288565b7f5760684a9ae00ee4a9ccadd1b4cc0c9bc48ff36d7c91399445204ca23ec1885742604051610a8a9190612543565b60405180910390a1565b600260159054906101000a900460ff1681565b610aaf611d0d565b600a8281548110610ae9577f4e487b7100000000000000000000000000000000000000000000000000000000600052603260045260246000fd5b906000526020600020906003020160405180606001604052908160008201548152602001600182015481526020016002820154815250509050919050565b6000600b60003373ffffffffffffffffffffffffffffffffffffffff1673ffffffffffffffffffffffffffffffffffffffff16815260200190815260200160002054905060008111610bae576040517f08c379a0000000000000000000000000000000000000000000000000000000008152600401610ba5906124a8565b60405180910390fd5b6000600b60003373ffffffffffffffffffffffffffffffffffffffff1673ffffffffffffffffffffffffffffffffffffffff1681526020019081526020016000208190555060003373ffffffffffffffffffffffffffffffffffffffff1682604051610c19906122b4565b60006040518083038185875af1925050503d8060008114610c56576040519150601f19603f3d011682016040523d82523d6000602084013e610c5b565b606091505b5050905080610c9f576040517f08c379a0000000000000000000000000000000000000000000000000000000008152600401610c96906123c8565b60405180910390fd5b5050565b60001515600760009054906101000a900460ff16151514610cf9576040517f08c379a0000000000000000000000000000000000000000000000000000000008152600401610cf090612428565b60405180910390fd5b60008054906101000a900473ffffffffffffffffffffffffffffffffffffffff1673ffffffffffffffffffffffffffffffffffffffff163373ffffffffffffffffffffffffffffffffffffffff1614610d87576040517f08c379a0000000000000000000000000000000000000000000000000000000008152600401610d7e90612388565b60405180910390fd5b806009819055506000600260146101000a81548160ff0219169083151502179055506000600260156101000a81548160ff0219169083151502179055507fd2835878ea6162878fc85888082376470d4b4277d91c0fadb875a36d70ba1af542604051610df39190612543565b60405180910390a150565b600160009054906101000a900473ffffffffffffffffffffffffffffffffffffffff1673ffffffffffffffffffffffffffffffffffffffff163373ffffffffffffffffffffffffffffffffffffffff161415610e8f576040517f08c379a0000000000000000000000000000000000000000000000000000000008152600401610e8690612508565b60405180910390fd5b33600260006101000a81548173ffffffffffffffffffffffffffffffffffffffff021916908373ffffffffffffffffffffffffffffffffffffffff1602179055506001600260156101000a81548160ff021916908315150217905550610ef3611c73565b7fc87f5d9973d13782a473eaa8ad5386eeb7b6e5d9eb3136cf46385dfea7d455f3600260009054906101000a900473ffffffffffffffffffffffffffffffffffffffff1642604051610f469291906122e4565b60405180910390a1565b600160009054906101000a900473ffffffffffffffffffffffffffffffffffffffff1673ffffffffffffffffffffffffffffffffffffffff163373ffffffffffffffffffffffffffffffffffffffff1614610fe0576040517f08c379a0000000000000000000000000000000000000000000000000000000008152600401610fd7906123e8565b60405180910390fd5b600260169054906101000a900460ff1615611030576040517f08c379a000000000000000000000000000000000000000000000000000000000815260040161102790612328565b60405180910390fd5b600454341461103e57600080fd5b346006819055506001600260166101000a81548160ff0219169083151502179055507f488a0a49d4886026f694d753c0642d9174e8d821a25c5992b222c4970a0062114260405161108f9190612543565b60405180910390a161109f611c73565b565b60008054906101000a900473ffffffffffffffffffffffffffffffffffffffff1673ffffffffffffffffffffffffffffffffffffffff163373ffffffffffffffffffffffffffffffffffffffff161415611130576040517f08c379a000000000000000000000000000000000000000000000000000000000815260040161112790612368565b60405180910390fd5b600260009054906101000a900473ffffffffffffffffffffffffffffffffffffffff1673ffffffffffffffffffffffffffffffffffffffff163373ffffffffffffffffffffffffffffffffffffffff1614156111c1576040517f08c379a00000000000000000000000000000000000000000000000000000000081526004016111b890612448565b60405180910390fd5b33600160006101000a81548173ffffffffffffffffffffffffffffffffffffffff021916908373ffffffffffffffffffffffffffffffffffffffff1602179055506001600260146101000a81548160ff021916908315150217905550611225611c73565b7fc87f5d9973d13782a473eaa8ad5386eeb7b6e5d9eb3136cf46385dfea7d455f3600160009054906101000a900473ffffffffffffffffffffffffffffffffffffffff16426040516112789291906122e4565b60405180910390a1565b60055481565b60008054906101000a900473ffffffffffffffffffffffffffffffffffffffff1673ffffffffffffffffffffffffffffffffffffffff163373ffffffffffffffffffffffffffffffffffffffff1614611316576040517f08c379a000000000000000000000000000000000000000000000000000000000815260040161130d90612348565b60405180910390fd5b60006006541161135b576040517f08c379a000000000000000000000000000000000000000000000000000000000815260040161135290612488565b60405180910390fd5b6000600654905060006006819055506000600160009054906101000a900473ffffffffffffffffffffffffffffffffffffffff1673ffffffffffffffffffffffffffffffffffffffff16826040516113b2906122b4565b60006040518083038185875af1925050503d80600081146113ef576040519150601f19603f3d011682016040523d82523d6000602084013e6113f4565b606091505b5050905080611438576040517f08c379a000000000000000000000000000000000000000000000000000000000815260040161142f906123c8565b60405180910390fd5b7f43f1a62374b03888ce7ed69d5599d19e6aa7c4e5863ab594bdaae22bd3637aae824260405161146992919061255e565b60405180910390a15050565b600160009054906101000a900473ffffffffffffffffffffffffffffffffffffffff1673ffffffffffffffffffffffffffffffffffffffff163373ffffffffffffffffffffffffffffffffffffffff1614611505576040517f08c379a00000000000000000000000000000000000000000000000000000000081526004016114fc906123e8565b60405180910390fd5b600760009054906101000a900460ff16611554576040517f08c379a000000000000000000000000000000000000000000000000000000000815260040161154b906124c8565b60405180910390fd5b6003543414611598576040517f08c379a000000000000000000000000000000000000000000000000000000000815260040161158f90612408565b60405180910390fd5b6009544211156115dd576040517f08c379a00000000000000000000000000000000000000000000000000000000081526004016115d490612468565b60405180910390fd5b60006064600554346115ef9190612661565b6115f99190612630565b90506000813461160991906126bb565b905080600b60008060009054906101000a900473ffffffffffffffffffffffffffffffffffffffff1673ffffffffffffffffffffffffffffffffffffffff1673ffffffffffffffffffffffffffffffffffffffff168152602001908152602001600020600082825461167b91906125da565b9250508190555081600b6000600260009054906101000a900473ffffffffffffffffffffffffffffffffffffffff1673ffffffffffffffffffffffffffffffffffffffff1673ffffffffffffffffffffffffffffffffffffffff16815260200190815260200160002060008282546116f391906125da565b92505081905550600a60405180606001604052806001600a8054905061171991906125da565b815260200134815260200142815250908060018154018082558091505060019003906000526020600020906003020160009091909190915060008201518160000155602082015181600101556040820151816002015550507f6f6f663a95cfc56731d5c426da5aa1a62df862a4b97f25aac9f299409791628a426040516117a09190612543565b60405180910390a15050565b6006548111156117f1576040517f08c379a00000000000000000000000000000000000000000000000000000000081526004016117e8906124e8565b60405180910390fd5b806006600082825461180391906126bb565b9250508190555080600b60008060009054906101000a900473ffffffffffffffffffffffffffffffffffffffff1673ffffffffffffffffffffffffffffffffffffffff1673ffffffffffffffffffffffffffffffffffffffff168152602001908152602001600020600082825461187a91906125da565b925050819055507fe9a7bf6a4ff808bee0de7a737fb73a2c5f2a5977125e17c58c30cf6b1bb5bdb281426040516118b292919061255e565b60405180910390a150565b600160009054906101000a900473ffffffffffffffffffffffffffffffffffffffff1681565b60001515600760009054906101000a900460ff16151514611939576040517f08c379a000000000000000000000000000000000000000000000000000000000815260040161193090612428565b60405180910390fd5b60008054906101000a900473ffffffffffffffffffffffffffffffffffffffff1673ffffffffffffffffffffffffffffffffffffffff163373ffffffffffffffffffffffffffffffffffffffff16146119c7576040517f08c379a00000000000000000000000000000000000000000000000000000000081526004016119be90612388565b60405180910390fd5b806003819055506000600260146101000a81548160ff0219169083151502179055506000600260156101000a81548160ff0219169083151502179055507fd2835878ea6162878fc85888082376470d4b4277d91c0fadb875a36d70ba1af542604051611a339190612543565b60405180910390a150565b60085481565b600260149054906101000a900460ff1681565b60065481565b60001515600760009054906101000a900460ff16151514611ab3576040517f08c379a0000000000000000000000000000000000000000000000000000000008152600401611aaa90612428565b60405180910390fd5b60008054906101000a900473ffffffffffffffffffffffffffffffffffffffff1673ffffffffffffffffffffffffffffffffffffffff163373ffffffffffffffffffffffffffffffffffffffff1614611b41576040517f08c379a0000000000000000000000000000000000000000000000000000000008152600401611b3890612388565b60405180910390fd5b806004819055506000600260146101000a81548160ff0219169083151502179055506000600260156101000a81548160ff0219169083151502179055507fd2835878ea6162878fc85888082376470d4b4277d91c0fadb875a36d70ba1af542604051611bad9190612543565b60405180910390a150565b60008054906101000a900473ffffffffffffffffffffffffffffffffffffffff1681565b600a8181548110611bec57600080fd5b90600052602060002090600302016000915090508060000154908060010154908060020154905083565b600b6020528060005260406000206000915090505481565b600260009054906101000a900473ffffffffffffffffffffffffffffffffffffffff1681565b600260169054906101000a900460ff1681565b60095481565b60035481565b600260149054906101000a900460ff168015611c9b5750600260159054906101000a900460ff165b8015611cb35750600260169054906101000a900460ff165b15611d0b576001600760006101000a81548160ff0219169083151502179055507faf3c49f5413fd292e2325b0fe214de144a222b00cb6ec21214fdc04b5d6c591342604051611d029190612543565b60405180910390a15b565b60405180606001604052806000815260200160008152602001600081525090565b600081359050611d3d81612795565b92915050565b600081359050611d52816127ac565b92915050565b600060208284031215611d6a57600080fd5b6000611d7884828501611d2e565b91505092915050565b600060208284031215611d9357600080fd5b6000611da184828501611d43565b91505092915050565b611db3816126ef565b82525050565b611dc281612701565b82525050565b6000611dd56014836125c9565b91507f4465706f73697420616c726561647920706169640000000000000000000000006000830152602082019050919050565b6000611e156016836125c9565b91507f4f6e6c79206c616e646c6f726420616c6c6f7765642e000000000000000000006000830152602082019050919050565b6000611e556020836125c9565b91507f4c616e646c6f72642063616e277420626520686973206f776e2074656e616e746000830152602082019050919050565b6000611e95600e836125c9565b91507f4c616e646c6f7264206f6e6c792e0000000000000000000000000000000000006000830152602082019050919050565b6000611ed5601c836125c9565b91507f4e6f74206120706172747920696e207468697320636f6e7472616374000000006000830152602082019050919050565b6000611f15600f836125c9565b91507f5472616e73666572206661696c656400000000000000000000000000000000006000830152602082019050919050565b6000611f556017836125c9565b91507f4f6e6c792074656e616e7420697320616c6c6f7765642e0000000000000000006000830152602082019050919050565b6000611f95600d836125c9565b91507f57726f6e6720616d6f756e742e000000000000000000000000000000000000006000830152602082019050919050565b6000611fd5602d836125c9565b91507f43616e2774206368616e676520746865207465726d73206f6620616e2061637460008301527f69766520636f6e74726163742e000000000000000000000000000000000000006020830152604082019050919050565b600061203b6030836125c9565b91507f43616e6e6f7420626520612074656e616e74206f6e20612070726f706572747960008301527f207468617420796f75206d616e616765000000000000000000000000000000006020830152604082019050919050565b60006120a16010836125c9565b91507f4c656173652068617320656e6465642e000000000000000000000000000000006000830152602082019050919050565b60006120e1600f836125c9565b91507f4e6f206465706f736974206c65667400000000000000000000000000000000006000830152602082019050919050565b60006121216016836125c9565b91507f4e6f2062616c616e636520746f207769746864726177000000000000000000006000830152602082019050919050565b60006121616000836125be565b9150600082019050919050565b600061217b601a836125c9565b91507f4c6561736520686173206e6f74206265656e207369676e65642e0000000000006000830152602082019050919050565b60006121bb601c836125c9565b91507f4e6f7420656e6f756768206d6f6e657920696e206465706f7369742e000000006000830152602082019050919050565b60006121fb6031836125c9565b91507f54656e616e742063616e2774206d616e616765207468652070726f706572747960008301527f2074686579206172652072656e74696e670000000000000000000000000000006020830152604082019050919050565b60608201600082015161226a6000850182612296565b50602082015161227d6020850182612296565b5060408201516122906040850182612296565b50505050565b61229f8161272d565b82525050565b6122ae8161272d565b82525050565b60006122bf82612154565b9150819050919050565b60006020820190506122de6000830184611daa565b92915050565b60006040820190506122f96000830185611daa565b61230660208301846122a5565b9392505050565b60006020820190506123226000830184611db9565b92915050565b6000602082019050818103600083015261234181611dc8565b9050919050565b6000602082019050818103600083015261236181611e08565b9050919050565b6000602082019050818103600083015261238181611e48565b9050919050565b600060208201905081810360008301526123a181611e88565b9050919050565b600060208201905081810360008301526123c181611ec8565b9050919050565b600060208201905081810360008301526123e181611f08565b9050919050565b6000602082019050818103600083015261240181611f48565b9050919050565b6000602082019050818103600083015261242181611f88565b9050919050565b6000602082019050818103600083015261244181611fc8565b9050919050565b600060208201905081810360008301526124618161202e565b9050919050565b6000602082019050818103600083015261248181612094565b9050919050565b600060208201905081810360008301526124a1816120d4565b9050919050565b600060208201905081810360008301526124c181612114565b9050919050565b600060208201905081810360008301526124e18161216e565b9050919050565b60006020820190508181036000830152612501816121ae565b9050919050565b60006020820190508181036000830152612521816121ee565b9050919050565b600060608201905061253d6000830184612254565b92915050565b600060208201905061255860008301846122a5565b92915050565b600060408201905061257360008301856122a5565b61258060208301846122a5565b9392505050565b600060608201905061259c60008301866122a5565b6125a960208301856122a5565b6125b660408301846122a5565b949350505050565b600081905092915050565b600082825260208201905092915050565b60006125e58261272d565b91506125f08361272d565b9250827fffffffffffffffffffffffffffffffffffffffffffffffffffffffffffffffff0382111561262557612624612737565b5b828201905092915050565b600061263b8261272d565b91506126468361272d565b92508261265657612655612766565b5b828204905092915050565b600061266c8261272d565b91506126778361272d565b9250817fffffffffffffffffffffffffffffffffffffffffffffffffffffffffffffffff04831182151516156126b0576126af612737565b5b828202905092915050565b60006126c68261272d565b91506126d18361272d565b9250828210156126e4576126e3612737565b5b828203905092915050565b60006126fa8261270d565b9050919050565b60008115159050919050565b600073ffffffffffffffffffffffffffffffffffffffff82169050919050565b6000819050919050565b7f4e487b7100000000000000000000000000000000000000000000000000000000600052601160045260246000fd5b7f4e487b7100000000000000000000000000000000000000000000000000000000600052601260045260246000fd5b61279e816126ef565b81146127a957600080fd5b50565b6127b58161272d565b81146127c057600080fd5b5056fea2646970667358221220b09cf6a4e4d3090f1bd6e0a7d775ac6162082389446cac6f2ea19c94f8f4153e64736f6c63430008000033",
  "immutableReferences": {},
  "source": "// SPDX-License-Identifier: MIT\r\npragma solidity ^0.8.0;\r\n\r\ncontract RentalAgreement{\r\n   address public landlord;\r\n   address public tenant;\r\n   address public propertyManager;\r\n\r\n   bool public tenantAgreed;\r\n   bool public propertyManagerAgreed;\r\n   bool public depositPaid;\r\n\r\n   uint public rentCost;\r\n   uint public securityDeposit;\r\n   uint public managementFeePercent;\r\n   \r\n   uint public depositHeld;\r\n   bool public active;\r\n\r\n   uint public start;\r\n   uint public end;\r\n\r\n   struct Payment{\r\n      uint id;\r\n      uint value;\r\n      uint timestamp;\r\n   }\r\n\r\n   Payment[] public paidRent;\r\n\r\n   mapping(address => uint) public balance; \r\n\r\n   event RentPaid(uint timestamp);\r\n   event ContractSigned(uint timestamp);\r\n   event ContractTerminated(uint timestamp);\r\n   event AgreedToTerms(address party, uint timestamp);\r\n   event DepositPaid(uint timestamp);\r\n   event DamagesClaimed(uint amount, uint timestamp);\r\n   event DepositReturned(uint amount, uint timestamp);\r\n   event TermsChanged(uint timestamp);\r\n\r\n   constructor (\r\n      uint _rentCost,\r\n      uint _securityDeposit,\r\n      uint _managementFeePercent, \r\n      uint _start, \r\n      uint _end\r\n   ) {\r\n      landlord = msg.sender;\r\n      rentCost = _rentCost;\r\n      securityDeposit = _securityDeposit;\r\n      managementFeePercent = _managementFeePercent;\r\n      start = _start;\r\n      end = _end;\r\n      active = false;\r\n   }\r\n\r\n   function signAsTenant() external {\r\n      require(msg.sender!=landlord, \"Landlord can't be his own tenant\");\r\n      require(msg.sender!=propertyManager, \"Cannot be a tenant on a property that you manage\");\r\n      tenant = msg.sender;\r\n      tenantAgreed = true;\r\n      signContract();\r\n\r\n      emit AgreedToTerms(tenant, block.timestamp);\r\n   }\r\n\r\n   function signAsPropertyManager() external {\r\n      require(msg.sender!=tenant, \"Tenant can't manage the property they are renting\");\r\n      propertyManager = msg.sender;\r\n      propertyManagerAgreed = true;\r\n      signContract();\r\n\r\n      emit AgreedToTerms(propertyManager, block.timestamp);\r\n   }\r\n\r\n   function payDeposit() external payable{\r\n      require(msg.sender == tenant, \"Only tenant is allowed.\");\r\n      require(!depositPaid, \"Deposit already paid\");\r\n      require(msg.value == securityDeposit);\r\n\r\n      depositHeld = msg.value;\r\n      depositPaid = true;\r\n\r\n      emit DepositPaid(block.timestamp);\r\n\r\n      signContract();\r\n   }\r\n\r\n   function signContract() internal {\r\n      if(tenantAgreed && propertyManagerAgreed && depositPaid){\r\n      active = true;\r\n      emit ContractSigned(block.timestamp);}\r\n   }\r\n\r\n   function payRent () external payable {\r\n      require(msg.sender == tenant, \"Only tenant is allowed.\");\r\n      require(active, \"Lease has not been signed.\");\r\n      require(msg.value == rentCost, \"Wrong amount.\");\r\n      require(block.timestamp <= end, \"Lease has ended.\");\r\n\r\n      uint managementFee = (msg.value * managementFeePercent) /100;\r\n      uint landlordFee = msg.value - managementFee;\r\n\r\n      balance[landlord] += landlordFee;\r\n      balance[propertyManager] += managementFee;\r\n\r\n      paidRent.push(Payment({\r\n         id : paidRent.length + 1,\r\n         value : msg.value,\r\n         timestamp : block.timestamp\r\n      }));\r\n\r\n      emit RentPaid(block.timestamp);\r\n   }\r\n\r\n   function terminateContract() external {\r\n      require(msg.sender == landlord || \r\n      msg.sender == tenant || \r\n      msg.sender == propertyManager, \r\n      \"Not a party in this contract\");\r\n      active = false;\r\n      returnDeposit();\r\n\r\n      emit ContractTerminated(block.timestamp);\r\n   }\r\n\r\n   function changeRentCost(uint cost) external {\r\n      require(active==false, \"Can't change the terms of an active contract.\");\r\n      require(msg.sender == landlord, \"Landlord only.\");\r\n      rentCost = cost;\r\n      tenantAgreed = false;\r\n      propertyManagerAgreed = false;\r\n\r\n      emit TermsChanged(block.timestamp);\r\n   }\r\n\r\n   function changeDepositValue(uint cost) external {\r\n      require(active==false, \"Can't change the terms of an active contract.\");\r\n      require(msg.sender == landlord, \"Landlord only.\");\r\n      securityDeposit = cost;\r\n      tenantAgreed = false;\r\n      propertyManagerAgreed = false;\r\n\r\n      emit TermsChanged(block.timestamp);\r\n   }\r\n\r\n   function changeManagementFee(uint percentage) external {\r\n      require(active==false, \"Can't change the terms of an active contract.\");\r\n      require(msg.sender == landlord, \"Landlord only.\");\r\n      managementFeePercent = percentage;\r\n      tenantAgreed = false;\r\n      propertyManagerAgreed = false;\r\n\r\n      emit TermsChanged(block.timestamp);\r\n   }\r\n\r\n      function changeStartDate(uint date) external {\r\n      require(active==false, \"Can't change the terms of an active contract.\");\r\n      require(msg.sender == landlord, \"Landlord only.\");\r\n      start = date;\r\n      tenantAgreed = false;\r\n      propertyManagerAgreed = false;\r\n\r\n      emit TermsChanged(block.timestamp);\r\n   }\r\n\r\n   function changeEndDate(uint date) external {\r\n      require(active==false, \"Can't change the terms of an active contract.\");\r\n      require(msg.sender == landlord, \"Landlord only.\");\r\n      end = date;\r\n      tenantAgreed = false;\r\n      propertyManagerAgreed = false;\r\n\r\n      emit TermsChanged(block.timestamp);\r\n   }\r\n\r\n   function claimDamages(uint amount) external {\r\n      require(amount <= depositHeld, \"Not enough money in deposit.\");\r\n      depositHeld -= amount;\r\n      balance[landlord] += amount;\r\n\r\n      emit DamagesClaimed(amount, block.timestamp);\r\n   }\r\n\r\n   function returnDeposit() public {\r\n      require(msg.sender == landlord, \"Only landlord allowed.\");\r\n      require(depositHeld > 0, \"No deposit left\");\r\n\r\n      uint amountToReturn = depositHeld;\r\n      depositHeld = 0;\r\n      (bool returned, ) = payable(tenant).call{value: amountToReturn}(\"\");\r\n      require(returned, \"Transfer failed\");\r\n      \r\n      emit DepositReturned(amountToReturn, block.timestamp);\r\n   }\r\n\r\n   function withdraw() external {\r\n      uint amount = balance[msg.sender];\r\n      require(amount > 0, \"No balance to withdraw\");\r\n   \r\n      balance[msg.sender] = 0;\r\n      (bool sent, ) = payable(msg.sender).call{value: amount}(\"\");\r\n      require(sent, \"Transfer failed\");\r\n   }\r\n\r\n   function getPayment(uint paymentIndex) public view returns(Payment memory) {\r\n      return paidRent[paymentIndex];\r\n   }\r\n}",
  "sourcePath": "C:\\Users\\tamel\\Documents\\uni\\3 semestras\\blockchain\\blockchain-04\\contracts\\RentalAgreement.sol",
  "compiler": {
    "name": "solc",
    "version": "0.8.0+commit.c7dfd78e.Emscripten.clang"
  },
  "schemaVersion": "3.4.16",
  "updatedAt": "2025-12-14T15:39:09.566Z",
  "networkType": "ethereum",
  "devdoc": {
    "kind": "dev",
    "methods": {},
    "version": 1
  },
  "userdoc": {
    "kind": "user",
    "methods": {},
    "version": 1
  }
}