{
  "contractName": "RentalAgreement",
  "abi": [
    {
      "inputs": [
        {
          "internalType": "address",
          "name": "_tenant",
          "type": "address"
        },
        {
          "internalType": "address",
          "name": "_propertyManager",
          "type": "address"
        },
        {
          "internalType": "string",
          "name": "_houseAddress",
          "type": "string"
        },
        {
          "internalType": "uint256",
          "name": "_rentCost",
          "type": "uint256"
        },
        {
          "internalType": "uint256",
          "name": "_securityDeposit",
          "type": "uint256"
        },
        {
          "internalType": "uint256",
          "name": "_managementFeePercent",
          "type": "uint256"
        },
        {
          "internalType": "uint256",
          "name": "_start",
          "type": "uint256"
        },
        {
          "internalType": "uint256",
          "name": "_end",
          "type": "uint256"
        }
      ],
      "stateMutability": "nonpayable",
      "type": "constructor"
    },
    {
      "anonymous": false,
      "inputs": [
        {
          "indexed": false,
          "internalType": "address",
          "name": "party",
          "type": "address"
        },
        {
          "indexed": false,
          "internalType": "uint256",
          "name": "timestamp",
          "type": "uint256"
        }
      ],
      "name": "AgreedToTerms",
      "type": "event"
    },
    {
      "anonymous": false,
      "inputs": [
        {
          "indexed": false,
          "internalType": "uint256",
          "name": "timestamp",
          "type": "uint256"
        }
      ],
      "name": "ContractSigned",
      "type": "event"
    },
    {
      "anonymous": false,
      "inputs": [
        {
          "indexed": false,
          "internalType": "uint256",
          "name": "timestamp",
          "type": "uint256"
        }
      ],
      "name": "ContractTerminated",
      "type": "event"
    },
    {
      "anonymous": false,
      "inputs": [
        {
          "indexed": false,
          "internalType": "uint256",
          "name": "amount",
          "type": "uint256"
        },
        {
          "indexed": false,
          "internalType": "uint256",
          "name": "timestamp",
          "type": "uint256"
        }
      ],
      "name": "DamagesClaimed",
      "type": "event"
    },
    {
      "anonymous": false,
      "inputs": [
        {
          "indexed": false,
          "internalType": "uint256",
          "name": "timestamp",
          "type": "uint256"
        }
      ],
      "name": "DepositPaid",
      "type": "event"
    },
    {
      "anonymous": false,
      "inputs": [
        {
          "indexed": false,
          "internalType": "uint256",
          "name": "amount",
          "type": "uint256"
        },
        {
          "indexed": false,
          "internalType": "uint256",
          "name": "timestamp",
          "type": "uint256"
        }
      ],
      "name": "DepositReturned",
      "type": "event"
    },
    {
      "anonymous": false,
      "inputs": [
        {
          "indexed": false,
          "internalType": "uint256",
          "name": "timestamp",
          "type": "uint256"
        }
      ],
      "name": "RentPaid",
      "type": "event"
    },
    {
      "inputs": [],
      "name": "active",
      "outputs": [
        {
          "internalType": "bool",
          "name": "",
          "type": "bool"
        }
      ],
      "stateMutability": "view",
      "type": "function"
    },
    {
      "inputs": [
        {
          "internalType": "address",
          "name": "",
          "type": "address"
        }
      ],
      "name": "balance",
      "outputs": [
        {
          "internalType": "uint256",
          "name": "",
          "type": "uint256"
        }
      ],
      "stateMutability": "view",
      "type": "function"
    },
    {
      "inputs": [],
      "name": "depositHeld",
      "outputs": [
        {
          "internalType": "uint256",
          "name": "",
          "type": "uint256"
        }
      ],
      "stateMutability": "view",
      "type": "function"
    },
    {
      "inputs": [],
      "name": "depositPaid",
      "outputs": [
        {
          "internalType": "bool",
          "name": "",
          "type": "bool"
        }
      ],
      "stateMutability": "view",
      "type": "function"
    },
    {
      "inputs": [],
      "name": "end",
      "outputs": [
        {
          "internalType": "uint256",
          "name": "",
          "type": "uint256"
        }
      ],
      "stateMutability": "view",
      "type": "function"
    },
    {
      "inputs": [],
      "name": "houseAddress",
      "outputs": [
        {
          "internalType": "string",
          "name": "",
          "type": "string"
        }
      ],
      "stateMutability": "view",
      "type": "function"
    },
    {
      "inputs": [],
      "name": "landlord",
      "outputs": [
        {
          "internalType": "address",
          "name": "",
          "type": "address"
        }
      ],
      "stateMutability": "view",
      "type": "function"
    },
    {
      "inputs": [],
      "name": "managementFeePercent",
      "outputs": [
        {
          "internalType": "uint256",
          "name": "",
          "type": "uint256"
        }
      ],
      "stateMutability": "view",
      "type": "function"
    },
    {
      "inputs": [
        {
          "internalType": "uint256",
          "name": "",
          "type": "uint256"
        }
      ],
      "name": "paidRent",
      "outputs": [
        {
          "internalType": "uint256",
          "name": "id",
          "type": "uint256"
        },
        {
          "internalType": "uint256",
          "name": "value",
          "type": "uint256"
        },
        {
          "internalType": "uint256",
          "name": "timestamp",
          "type": "uint256"
        }
      ],
      "stateMutability": "view",
      "type": "function"
    },
    {
      "inputs": [],
      "name": "propertyManager",
      "outputs": [
        {
          "internalType": "address",
          "name": "",
          "type": "address"
        }
      ],
      "stateMutability": "view",
      "type": "function"
    },
    {
      "inputs": [],
      "name": "propertyManagerAgreed",
      "outputs": [
        {
          "internalType": "bool",
          "name": "",
          "type": "bool"
        }
      ],
      "stateMutability": "view",
      "type": "function"
    },
    {
      "inputs": [],
      "name": "rentCost",
      "outputs": [
        {
          "internalType": "uint256",
          "name": "",
          "type": "uint256"
        }
      ],
      "stateMutability": "view",
      "type": "function"
    },
    {
      "inputs": [],
      "name": "securityDeposit",
      "outputs": [
        {
          "internalType": "uint256",
          "name": "",
          "type": "uint256"
        }
      ],
      "stateMutability": "view",
      "type": "function"
    },
    {
      "inputs": [],
      "name": "start",
      "outputs": [
        {
          "internalType": "uint256",
          "name": "",
          "type": "uint256"
        }
      ],
      "stateMutability": "view",
      "type": "function"
    },
    {
      "inputs": [],
      "name": "tenant",
      "outputs": [
        {
          "internalType": "address",
          "name": "",
          "type": "address"
        }
      ],
      "stateMutability": "view",
      "type": "function"
    },
    {
      "inputs": [],
      "name": "tenantAgreed",
      "outputs": [
        {
          "internalType": "bool",
          "name": "",
          "type": "bool"
        }
      ],
      "stateMutability": "view",
      "type": "function"
    },
    {
      "inputs": [],
      "name": "agreeToTerms",
      "outputs": [],
      "stateMutability": "nonpayable",
      "type": "function"
    },
    {
      "inputs": [],
      "name": "payDeposit",
      "outputs": [],
      "stateMutability": "payable",
      "type": "function"
    },
    {
      "inputs": [],
      "name": "payRent",
      "outputs": [],
      "stateMutability": "payable",
      "type": "function"
    },
    {
      "inputs": [],
      "name": "terminateContract",
      "outputs": [],
      "stateMutability": "nonpayable",
      "type": "function"
    },
    {
      "inputs": [
        {
          "internalType": "uint256",
          "name": "amount",
          "type": "uint256"
        }
      ],
      "name": "claimDamages",
      "outputs": [],
      "stateMutability": "nonpayable",
      "type": "function"
    },
    {
      "inputs": [],
      "name": "returnDeposit",
      "outputs": [],
      "stateMutability": "nonpayable",
      "type": "function"
    },
    {
      "inputs": [
        {
          "internalType": "uint256",
          "name": "paymentIndex",
          "type": "uint256"
        }
      ],
      "name": "getPayment",
      "outputs": [
        {
          "components": [
            {
              "internalType": "uint256",
              "name": "id",
              "type": "uint256"
            },
            {
              "internalType": "uint256",
              "name": "value",
              "type": "uint256"
            },
            {
              "internalType": "uint256",
              "name": "timestamp",
              "type": "uint256"
            }
          ],
          "internalType": "struct RentalAgreement.Payment",
          "name": "",
          "type": "tuple"
        }
      ],
      "stateMutability": "view",
      "type": "function"
    }
  ],
  "bytecode": "0x60806040523480156200001157600080fd5b50604051620022cc380380620022cc8339818101604052810190620000379190620002ae565b336000806101000a81548173ffffffffffffffffffffffffffffffffffffffff021916908373ffffffffffffffffffffffffffffffffffffffff16021790555087600160006101000a81548173ffffffffffffffffffffffffffffffffffffffff021916908373ffffffffffffffffffffffffffffffffffffffff16021790555086600260006101000a81548173ffffffffffffffffffffffffffffffffffffffff021916908373ffffffffffffffffffffffffffffffffffffffff1602179055508560069080519060200190620001119291906200015e565b508460038190555083600481905550826005819055508160098190555080600a819055506000600860006101000a81548160ff02191690831515021790555050505050505050506200052d565b8280546200016c9062000465565b90600052602060002090601f016020900481019282620001905760008555620001dc565b82601f10620001ab57805160ff1916838001178555620001dc565b82800160010185558215620001dc579182015b82811115620001db578251825591602001919060010190620001be565b5b509050620001eb9190620001ef565b5090565b5b808211156200020a576000816000905550600101620001f0565b5090565b6000620002256200021f84620003be565b6200038a565b9050828152602081018484840111156200023e57600080fd5b6200024b8482856200042f565b509392505050565b6000815190506200026481620004f9565b92915050565b600082601f8301126200027c57600080fd5b81516200028e8482602086016200020e565b91505092915050565b600081519050620002a88162000513565b92915050565b600080600080600080600080610100898b031215620002cc57600080fd5b6000620002dc8b828c0162000253565b9850506020620002ef8b828c0162000253565b975050604089015167ffffffffffffffff8111156200030d57600080fd5b6200031b8b828c016200026a565b96505060606200032e8b828c0162000297565b9550506080620003418b828c0162000297565b94505060a0620003548b828c0162000297565b93505060c0620003678b828c0162000297565b92505060e06200037a8b828c0162000297565b9150509295985092959890939650565b6000604051905081810181811067ffffffffffffffff82111715620003b457620003b3620004ca565b5b8060405250919050565b600067ffffffffffffffff821115620003dc57620003db620004ca565b5b601f19601f8301169050602081019050919050565b6000620003fe8262000405565b9050919050565b600073ffffffffffffffffffffffffffffffffffffffff82169050919050565b6000819050919050565b60005b838110156200044f57808201518184015260208101905062000432565b838111156200045f576000848401525b50505050565b600060028204905060018216806200047e57607f821691505b602082108114156200049557620004946200049b565b5b50919050565b7f4e487b7100000000000000000000000000000000000000000000000000000000600052602260045260246000fd5b7f4e487b7100000000000000000000000000000000000000000000000000000000600052604160045260246000fd5b6200050481620003f1565b81146200051057600080fd5b50565b6200051e8162000425565b81146200052a57600080fd5b50565b611d8f806200053d6000396000f3fe6080604052600436106101405760003560e01c8063be9a6555116100b6578063de56cd811161006f578063de56cd81146103b2578063e3d670d7146103f1578063e7356cb51461042e578063ef3ab33014610459578063efbe1c1c14610484578063f7476068146104af57610140565b8063be9a6555146102c4578063c2e2df52146102ef578063c6da86111461031a578063d17d350314610345578063d7cee31e1461035c578063dc1997ea1461038757610140565b80635c274b86116101085780635c274b861461021a57806373f351c8146102245780637e88f6031461024f578063a709c4fe14610266578063a989eeb614610270578063adf077911461029957610140565b806302fb0c5e14610145578063220e5ab3146101705780632fd949ca1461019b5780632fe9794e146101b25780633280a836146101dd575b600080fd5b34801561015157600080fd5b5061015a6104da565b6040516101679190611831565b60405180910390f35b34801561017c57600080fd5b506101856104ed565b6040516101929190611a29565b60405180910390f35b3480156101a757600080fd5b506101b06104f3565b005b3480156101be57600080fd5b506101c7610685565b6040516101d49190611831565b60405180910390f35b3480156101e957600080fd5b5061020460048036038101906101ff9190611352565b610698565b6040516102119190611a0e565b60405180910390f35b610222610718565b005b34801561023057600080fd5b50610239610869565b6040516102469190611a29565b60405180910390f35b34801561025b57600080fd5b5061026461086f565b005b61026e610a5c565b005b34801561027c57600080fd5b5061029760048036038101906102929190611352565b610d93565b005b3480156102a557600080fd5b506102ae610ea4565b6040516102bb91906117ed565b60405180910390f35b3480156102d057600080fd5b506102d9610eca565b6040516102e69190611a29565b60405180910390f35b3480156102fb57600080fd5b50610304610ed0565b6040516103119190611831565b60405180910390f35b34801561032657600080fd5b5061032f610ee3565b60405161033c9190611a29565b60405180910390f35b34801561035157600080fd5b5061035a610ee9565b005b34801561036857600080fd5b50610371611054565b60405161037e919061184c565b60405180910390f35b34801561039357600080fd5b5061039c6110e2565b6040516103a991906117ed565b60405180910390f35b3480156103be57600080fd5b506103d960048036038101906103d49190611352565b611106565b6040516103e893929190611a6d565b60405180910390f35b3480156103fd57600080fd5b5061041860048036038101906104139190611329565b611140565b6040516104259190611a29565b60405180910390f35b34801561043a57600080fd5b50610443611158565b60405161045091906117ed565b60405180910390f35b34801561046557600080fd5b5061046e61117e565b60405161047b9190611831565b60405180910390f35b34801561049057600080fd5b50610499611191565b6040516104a69190611a29565b60405180910390f35b3480156104bb57600080fd5b506104c4611197565b6040516104d19190611a29565b60405180910390f35b600860009054906101000a900460ff1681565b60045481565b60008054906101000a900473ffffffffffffffffffffffffffffffffffffffff1673ffffffffffffffffffffffffffffffffffffffff163373ffffffffffffffffffffffffffffffffffffffff16148061059a5750600160009054906101000a900473ffffffffffffffffffffffffffffffffffffffff1673ffffffffffffffffffffffffffffffffffffffff163373ffffffffffffffffffffffffffffffffffffffff16145b806105f25750600260009054906101000a900473ffffffffffffffffffffffffffffffffffffffff1673ffffffffffffffffffffffffffffffffffffffff163373ffffffffffffffffffffffffffffffffffffffff16145b610631576040517f08c379a0000000000000000000000000000000000000000000000000000000008152600401610628906118ae565b60405180910390fd5b6000600860006101000a81548160ff0219169083151502179055507f5760684a9ae00ee4a9ccadd1b4cc0c9bc48ff36d7c91399445204ca23ec188574260405161067b9190611a29565b60405180910390a1565b600260159054906101000a900460ff1681565b6106a06112de565b600b82815481106106da577f4e487b7100000000000000000000000000000000000000000000000000000000600052603260045260246000fd5b906000526020600020906003020160405180606001604052908160008201548152602001600182015481526020016002820154815250509050919050565b600160009054906101000a900473ffffffffffffffffffffffffffffffffffffffff1673ffffffffffffffffffffffffffffffffffffffff163373ffffffffffffffffffffffffffffffffffffffff16146107a8576040517f08c379a000000000000000000000000000000000000000000000000000000000815260040161079f9061190e565b60405180910390fd5b600260169054906101000a900460ff16156107f8576040517f08c379a00000000000000000000000000000000000000000000000000000000081526004016107ef9061186e565b60405180910390fd5b600454341461080657600080fd5b346007819055506001600260166101000a81548160ff0219169083151502179055507f488a0a49d4886026f694d753c0642d9174e8d821a25c5992b222c4970a006211426040516108579190611a29565b60405180910390a161086761119d565b565b60055481565b60008054906101000a900473ffffffffffffffffffffffffffffffffffffffff1673ffffffffffffffffffffffffffffffffffffffff163373ffffffffffffffffffffffffffffffffffffffff16146108fd576040517f08c379a00000000000000000000000000000000000000000000000000000000081526004016108f49061188e565b60405180910390fd5b600060075411610942576040517f08c379a0000000000000000000000000000000000000000000000000000000008152600401610939906119ae565b60405180910390fd5b6000600754905060006007819055506000600160009054906101000a900473ffffffffffffffffffffffffffffffffffffffff1673ffffffffffffffffffffffffffffffffffffffff1682604051610999906117d8565b60006040518083038185875af1925050503d80600081146109d6576040519150601f19603f3d011682016040523d82523d6000602084013e6109db565b606091505b5050905080610a1f576040517f08c379a0000000000000000000000000000000000000000000000000000000008152600401610a16906118ce565b60405180910390fd5b7f43f1a62374b03888ce7ed69d5599d19e6aa7c4e5863ab594bdaae22bd3637aae8242604051610a50929190611a44565b60405180910390a15050565b600160009054906101000a900473ffffffffffffffffffffffffffffffffffffffff1673ffffffffffffffffffffffffffffffffffffffff163373ffffffffffffffffffffffffffffffffffffffff1614610aec576040517f08c379a0000000000000000000000000000000000000000000000000000000008152600401610ae39061190e565b60405180910390fd5b600860009054906101000a900460ff16610b3b576040517f08c379a0000000000000000000000000000000000000000000000000000000008152600401610b32906119ce565b60405180910390fd5b6003543414610b7f576040517f08c379a0000000000000000000000000000000000000000000000000000000008152600401610b769061192e565b60405180910390fd5b600a54421115610bc4576040517f08c379a0000000000000000000000000000000000000000000000000000000008152600401610bbb9061194e565b60405180910390fd5b6000606460055434610bd69190611b52565b610be09190611b21565b905060008134610bf09190611bac565b905080600c60008060009054906101000a900473ffffffffffffffffffffffffffffffffffffffff1673ffffffffffffffffffffffffffffffffffffffff1673ffffffffffffffffffffffffffffffffffffffff1681526020019081526020016000206000828254610c629190611acb565b9250508190555081600c6000600260009054906101000a900473ffffffffffffffffffffffffffffffffffffffff1673ffffffffffffffffffffffffffffffffffffffff1673ffffffffffffffffffffffffffffffffffffffff1681526020019081526020016000206000828254610cda9190611acb565b92505081905550600b60405180606001604052806001600b80549050610d009190611acb565b815260200134815260200142815250908060018154018082558091505060019003906000526020600020906003020160009091909190915060008201518160000155602082015181600101556040820151816002015550507f6f6f663a95cfc56731d5c426da5aa1a62df862a4b97f25aac9f299409791628a42604051610d879190611a29565b60405180910390a15050565b600754811115610dd8576040517f08c379a0000000000000000000000000000000000000000000000000000000008152600401610dcf906119ee565b60405180910390fd5b8060076000828254610dea9190611bac565b9250508190555080600c60008060009054906101000a900473ffffffffffffffffffffffffffffffffffffffff1673ffffffffffffffffffffffffffffffffffffffff1673ffffffffffffffffffffffffffffffffffffffff1681526020019081526020016000206000828254610e619190611acb565b925050819055507fe9a7bf6a4ff808bee0de7a737fb73a2c5f2a5977125e17c58c30cf6b1bb5bdb28142604051610e99929190611a44565b60405180910390a150565b600160009054906101000a900473ffffffffffffffffffffffffffffffffffffffff1681565b60095481565b600260149054906101000a900460ff1681565b60075481565b600160009054906101000a900473ffffffffffffffffffffffffffffffffffffffff1673ffffffffffffffffffffffffffffffffffffffff163373ffffffffffffffffffffffffffffffffffffffff161415610f5f576001600260146101000a81548160ff021916908315150217905550611011565b600260009054906101000a900473ffffffffffffffffffffffffffffffffffffffff1673ffffffffffffffffffffffffffffffffffffffff163373ffffffffffffffffffffffffffffffffffffffff161415610fd5576001600260156101000a81548160ff021916908315150217905550611010565b6040517f08c379a0000000000000000000000000000000000000000000000000000000008152600401611007906118ae565b60405180910390fd5b5b7fc87f5d9973d13782a473eaa8ad5386eeb7b6e5d9eb3136cf46385dfea7d455f33342604051611042929190611808565b60405180910390a161105261119d565b565b6006805461106190611c5b565b80601f016020809104026020016040519081016040528092919081815260200182805461108d90611c5b565b80156110da5780601f106110af576101008083540402835291602001916110da565b820191906000526020600020905b8154815290600101906020018083116110bd57829003601f168201915b505050505081565b60008054906101000a900473ffffffffffffffffffffffffffffffffffffffff1681565b600b818154811061111657600080fd5b90600052602060002090600302016000915090508060000154908060010154908060020154905083565b600c6020528060005260406000206000915090505481565b600260009054906101000a900473ffffffffffffffffffffffffffffffffffffffff1681565b600260169054906101000a900460ff1681565b600a5481565b60035481565b600260149054906101000a900460ff166111ec576040517f08c379a00000000000000000000000000000000000000000000000000000000081526004016111e39061196e565b60405180910390fd5b600260159054906101000a900460ff1661123b576040517f08c379a00000000000000000000000000000000000000000000000000000000081526004016112329061198e565b60405180910390fd5b600260169054906101000a900460ff1661128a576040517f08c379a0000000000000000000000000000000000000000000000000000000008152600401611281906118ee565b60405180910390fd5b6001600860006101000a81548160ff0219169083151502179055507faf3c49f5413fd292e2325b0fe214de144a222b00cb6ec21214fdc04b5d6c5913426040516112d49190611a29565b60405180910390a1565b60405180606001604052806000815260200160008152602001600081525090565b60008135905061130e81611d2b565b92915050565b60008135905061132381611d42565b92915050565b60006020828403121561133b57600080fd5b6000611349848285016112ff565b91505092915050565b60006020828403121561136457600080fd5b600061137284828501611314565b91505092915050565b61138481611be0565b82525050565b61139381611bf2565b82525050565b60006113a482611aa4565b6113ae8185611aba565b93506113be818560208601611c28565b6113c781611d1a565b840191505092915050565b60006113df601483611aba565b91507f4465706f73697420616c726561647920706169640000000000000000000000006000830152602082019050919050565b600061141f601683611aba565b91507f4f6e6c79206c616e646c6f726420616c6c6f7765642e000000000000000000006000830152602082019050919050565b600061145f601c83611aba565b91507f4e6f74206120706172747920696e207468697320636f6e7472616374000000006000830152602082019050919050565b600061149f600f83611aba565b91507f5472616e73666572206661696c656400000000000000000000000000000000006000830152602082019050919050565b60006114df602183611aba565b91507f5365637572697479206465706f736974206861736e2774206265656e2070616960008301527f64000000000000000000000000000000000000000000000000000000000000006020830152604082019050919050565b6000611545601783611aba565b91507f4f6e6c792074656e616e7420697320616c6c6f7765642e0000000000000000006000830152602082019050919050565b6000611585600d83611aba565b91507f57726f6e6720616d6f756e742e000000000000000000000000000000000000006000830152602082019050919050565b60006115c5601083611aba565b91507f4c656173652068617320656e6465642e000000000000000000000000000000006000830152602082019050919050565b6000611605601d83611aba565b91507f54656e616e74206861736e27742061677265656420746f207465726d730000006000830152602082019050919050565b6000611645602783611aba565b91507f50726f7065727479206d616e61676572206861736e277420616772656564207460008301527f6f207465726d73000000000000000000000000000000000000000000000000006020830152604082019050919050565b60006116ab600f83611aba565b91507f4e6f206465706f736974206c65667400000000000000000000000000000000006000830152602082019050919050565b60006116eb600083611aaf565b9150600082019050919050565b6000611705601a83611aba565b91507f4c6561736520686173206e6f74206265656e207369676e65642e0000000000006000830152602082019050919050565b6000611745601c83611aba565b91507f4e6f7420656e6f756768206d6f6e657920696e206465706f7369742e000000006000830152602082019050919050565b60608201600082015161178e60008501826117ba565b5060208201516117a160208501826117ba565b5060408201516117b460408501826117ba565b50505050565b6117c381611c1e565b82525050565b6117d281611c1e565b82525050565b60006117e3826116de565b9150819050919050565b6000602082019050611802600083018461137b565b92915050565b600060408201905061181d600083018561137b565b61182a60208301846117c9565b9392505050565b6000602082019050611846600083018461138a565b92915050565b600060208201905081810360008301526118668184611399565b905092915050565b60006020820190508181036000830152611887816113d2565b9050919050565b600060208201905081810360008301526118a781611412565b9050919050565b600060208201905081810360008301526118c781611452565b9050919050565b600060208201905081810360008301526118e781611492565b9050919050565b60006020820190508181036000830152611907816114d2565b9050919050565b6000602082019050818103600083015261192781611538565b9050919050565b6000602082019050818103600083015261194781611578565b9050919050565b60006020820190508181036000830152611967816115b8565b9050919050565b60006020820190508181036000830152611987816115f8565b9050919050565b600060208201905081810360008301526119a781611638565b9050919050565b600060208201905081810360008301526119c78161169e565b9050919050565b600060208201905081810360008301526119e7816116f8565b9050919050565b60006020820190508181036000830152611a0781611738565b9050919050565b6000606082019050611a236000830184611778565b92915050565b6000602082019050611a3e60008301846117c9565b92915050565b6000604082019050611a5960008301856117c9565b611a6660208301846117c9565b9392505050565b6000606082019050611a8260008301866117c9565b611a8f60208301856117c9565b611a9c60408301846117c9565b949350505050565b600081519050919050565b600081905092915050565b600082825260208201905092915050565b6000611ad682611c1e565b9150611ae183611c1e565b9250827fffffffffffffffffffffffffffffffffffffffffffffffffffffffffffffffff03821115611b1657611b15611c8d565b5b828201905092915050565b6000611b2c82611c1e565b9150611b3783611c1e565b925082611b4757611b46611cbc565b5b828204905092915050565b6000611b5d82611c1e565b9150611b6883611c1e565b9250817fffffffffffffffffffffffffffffffffffffffffffffffffffffffffffffffff0483118215151615611ba157611ba0611c8d565b5b828202905092915050565b6000611bb782611c1e565b9150611bc283611c1e565b925082821015611bd557611bd4611c8d565b5b828203905092915050565b6000611beb82611bfe565b9050919050565b60008115159050919050565b600073ffffffffffffffffffffffffffffffffffffffff82169050919050565b6000819050919050565b60005b83811015611c46578082015181840152602081019050611c2b565b83811115611c55576000848401525b50505050565b60006002820490506001821680611c7357607f821691505b60208210811415611c8757611c86611ceb565b5b50919050565b7f4e487b7100000000000000000000000000000000000000000000000000000000600052601160045260246000fd5b7f4e487b7100000000000000000000000000000000000000000000000000000000600052601260045260246000fd5b7f4e487b7100000000000000000000000000000000000000000000000000000000600052602260045260246000fd5b6000601f19601f8301169050919050565b611d3481611be0565b8114611d3f57600080fd5b50565b611d4b81611c1e565b8114611d5657600080fd5b5056fea26469706673582212204c9a3bef92e4be5a414378ac98dd14d0a04c4608fa777509807e6db29a38420464736f6c63430008000033",
  "immutableReferences": {},
  "source": "// SPDX-License-Identifier: MIT\r\npragma solidity ^0.8.0;\r\n\r\ncontract RentalAgreement{\r\n   address public landlord;\r\n   address public tenant;\r\n   address public propertyManager;\r\n\r\n   bool public tenantAgreed;\r\n   bool public propertyManagerAgreed;\r\n   bool public depositPaid;\r\n\r\n   uint public rentCost;\r\n   uint public securityDeposit;\r\n   uint public managementFeePercent;\r\n   string public houseAddress;\r\n   \r\n   uint public depositHeld;\r\n   bool public active;\r\n\r\n   uint public start;\r\n   uint public end;\r\n\r\n   struct Payment{\r\n      uint id;\r\n      uint value;\r\n      uint timestamp;\r\n   }\r\n\r\n   Payment[] public paidRent;\r\n\r\n   mapping(address => uint) public balance; \r\n\r\n   event RentPaid(uint timestamp);\r\n   event ContractSigned(uint timestamp);\r\n   event ContractTerminated(uint timestamp);\r\n   event AgreedToTerms(address party, uint timestamp);\r\n   event DepositPaid(uint timestamp);\r\n   event DamagesClaimed(uint amount, uint timestamp);\r\n   event DepositReturned(uint amount, uint timestamp);\r\n\r\n   constructor (\r\n      address _tenant,\r\n      address _propertyManager,\r\n      string memory _houseAddress,\r\n      uint _rentCost,\r\n      uint _securityDeposit,\r\n      uint _managementFeePercent, \r\n      uint _start, \r\n      uint _end\r\n   ) {\r\n      landlord = msg.sender;\r\n      tenant = _tenant;\r\n      propertyManager = _propertyManager;\r\n      houseAddress = _houseAddress;\r\n      rentCost = _rentCost;\r\n      securityDeposit = _securityDeposit;\r\n      managementFeePercent = _managementFeePercent;\r\n      start = _start;\r\n      end = _end;\r\n      active = false;\r\n   }\r\n\r\n   function agreeToTerms() external {\r\n      if(msg.sender == tenant) tenantAgreed = true;\r\n      else if(msg.sender == propertyManager) propertyManagerAgreed = true;\r\n      else revert(\"Not a party in this contract\");\r\n\r\n      emit AgreedToTerms(msg.sender, block.timestamp);\r\n\r\n      signContract();\r\n   }\r\n\r\n   function payDeposit() external payable{\r\n      require(msg.sender == tenant, \"Only tenant is allowed.\");\r\n      require(!depositPaid, \"Deposit already paid\");\r\n      require(msg.value == securityDeposit);\r\n\r\n      depositHeld = msg.value;\r\n      depositPaid = true;\r\n\r\n      emit DepositPaid(block.timestamp);\r\n\r\n      signContract();\r\n   }\r\n\r\n   function signContract() internal {\r\n      require(tenantAgreed, \"Tenant hasn't agreed to terms\");\r\n      require(propertyManagerAgreed, \"Property manager hasn't agreed to terms\");\r\n      require(depositPaid, \"Security deposit hasn't been paid\");\r\n\r\n      active = true;\r\n      emit ContractSigned(block.timestamp);\r\n   }\r\n\r\n   function payRent () external payable {\r\n      require(msg.sender == tenant, \"Only tenant is allowed.\");\r\n      require(active, \"Lease has not been signed.\");\r\n      require(msg.value == rentCost, \"Wrong amount.\");\r\n      require(block.timestamp <= end, \"Lease has ended.\");\r\n\r\n      uint managementFee = (msg.value * managementFeePercent) /100;\r\n      uint landlordFee = msg.value - managementFee;\r\n\r\n      balance[landlord] += landlordFee;\r\n      balance[propertyManager] += managementFee;\r\n\r\n      paidRent.push(Payment({\r\n         id : paidRent.length + 1,\r\n         value : msg.value,\r\n         timestamp : block.timestamp\r\n      }));\r\n\r\n      emit RentPaid(block.timestamp);\r\n   }\r\n\r\n   function terminateContract() external {\r\n      require(msg.sender == landlord || \r\n      msg.sender == tenant || \r\n      msg.sender == propertyManager, \r\n      \"Not a party in this contract\");\r\n      active = false;\r\n      emit ContractTerminated(block.timestamp);\r\n   }\r\n\r\n   function claimDamages(uint amount) external {\r\n      require(amount <= depositHeld, \"Not enough money in deposit.\");\r\n      depositHeld -= amount;\r\n      balance[landlord] += amount;\r\n\r\n      emit DamagesClaimed(amount, block.timestamp);\r\n   }\r\n\r\n   function returnDeposit() external {\r\n      require(msg.sender == landlord, \"Only landlord allowed.\");\r\n      require(depositHeld > 0, \"No deposit left\");\r\n\r\n      uint amountToReturn = depositHeld;\r\n      depositHeld = 0;\r\n      (bool returned, ) = payable(tenant).call{value: amountToReturn}(\"\");\r\n      require(returned, \"Transfer failed\");\r\n      \r\n      emit DepositReturned(amountToReturn, block.timestamp);\r\n   }\r\n\r\n   function getPayment(uint paymentIndex) public view returns(Payment memory) {\r\n      return paidRent[paymentIndex];\r\n   }\r\n}",
  "sourcePath": "C:\\Users\\tamel\\Documents\\uni\\3 semestras\\blockchain\\blockchain-04\\contracts\\RentalAgreement.sol",
  "compiler": {
    "name": "solc",
    "version": "0.8.0+commit.c7dfd78e.Emscripten.clang"
  },
  "schemaVersion": "3.4.16",
  "updatedAt": "2025-12-05T16:40:51.610Z",
  "devdoc": {
    "kind": "dev",
    "methods": {},
    "version": 1
  },
  "userdoc": {
    "kind": "user",
    "methods": {},
    "version": 1
  }
}