{
  "contractName": "RentalAgreement",
  "abi": [
    {
      "inputs": [
        {
          "internalType": "uint256",
          "name": "_rentCost",
          "type": "uint256"
        },
        {
          "internalType": "uint256",
          "name": "_securityDeposit",
          "type": "uint256"
        },
        {
          "internalType": "uint256",
          "name": "_managementFeePercent",
          "type": "uint256"
        },
        {
          "internalType": "uint256",
          "name": "_start",
          "type": "uint256"
        },
        {
          "internalType": "uint256",
          "name": "_end",
          "type": "uint256"
        }
      ],
      "stateMutability": "nonpayable",
      "type": "constructor"
    },
    {
      "anonymous": false,
      "inputs": [
        {
          "indexed": false,
          "internalType": "address",
          "name": "party",
          "type": "address"
        },
        {
          "indexed": false,
          "internalType": "uint256",
          "name": "timestamp",
          "type": "uint256"
        }
      ],
      "name": "AgreedToTerms",
      "type": "event"
    },
    {
      "anonymous": false,
      "inputs": [
        {
          "indexed": false,
          "internalType": "uint256",
          "name": "timestamp",
          "type": "uint256"
        }
      ],
      "name": "ContractSigned",
      "type": "event"
    },
    {
      "anonymous": false,
      "inputs": [
        {
          "indexed": false,
          "internalType": "uint256",
          "name": "timestamp",
          "type": "uint256"
        }
      ],
      "name": "ContractTerminated",
      "type": "event"
    },
    {
      "anonymous": false,
      "inputs": [
        {
          "indexed": false,
          "internalType": "uint256",
          "name": "amount",
          "type": "uint256"
        },
        {
          "indexed": false,
          "internalType": "uint256",
          "name": "timestamp",
          "type": "uint256"
        }
      ],
      "name": "DamagesClaimed",
      "type": "event"
    },
    {
      "anonymous": false,
      "inputs": [
        {
          "indexed": false,
          "internalType": "uint256",
          "name": "timestamp",
          "type": "uint256"
        }
      ],
      "name": "DepositPaid",
      "type": "event"
    },
    {
      "anonymous": false,
      "inputs": [
        {
          "indexed": false,
          "internalType": "uint256",
          "name": "amount",
          "type": "uint256"
        },
        {
          "indexed": false,
          "internalType": "uint256",
          "name": "timestamp",
          "type": "uint256"
        }
      ],
      "name": "DepositReturned",
      "type": "event"
    },
    {
      "anonymous": false,
      "inputs": [
        {
          "indexed": false,
          "internalType": "uint256",
          "name": "timestamp",
          "type": "uint256"
        }
      ],
      "name": "RentPaid",
      "type": "event"
    },
    {
      "anonymous": false,
      "inputs": [
        {
          "indexed": false,
          "internalType": "uint256",
          "name": "timestamp",
          "type": "uint256"
        }
      ],
      "name": "TermsChanged",
      "type": "event"
    },
    {
      "inputs": [],
      "name": "active",
      "outputs": [
        {
          "internalType": "bool",
          "name": "",
          "type": "bool"
        }
      ],
      "stateMutability": "view",
      "type": "function"
    },
    {
      "inputs": [
        {
          "internalType": "address",
          "name": "",
          "type": "address"
        }
      ],
      "name": "balance",
      "outputs": [
        {
          "internalType": "uint256",
          "name": "",
          "type": "uint256"
        }
      ],
      "stateMutability": "view",
      "type": "function"
    },
    {
      "inputs": [],
      "name": "depositHeld",
      "outputs": [
        {
          "internalType": "uint256",
          "name": "",
          "type": "uint256"
        }
      ],
      "stateMutability": "view",
      "type": "function"
    },
    {
      "inputs": [],
      "name": "depositPaid",
      "outputs": [
        {
          "internalType": "bool",
          "name": "",
          "type": "bool"
        }
      ],
      "stateMutability": "view",
      "type": "function"
    },
    {
      "inputs": [],
      "name": "end",
      "outputs": [
        {
          "internalType": "uint256",
          "name": "",
          "type": "uint256"
        }
      ],
      "stateMutability": "view",
      "type": "function"
    },
    {
      "inputs": [],
      "name": "landlord",
      "outputs": [
        {
          "internalType": "address",
          "name": "",
          "type": "address"
        }
      ],
      "stateMutability": "view",
      "type": "function"
    },
    {
      "inputs": [],
      "name": "managementFeePercent",
      "outputs": [
        {
          "internalType": "uint256",
          "name": "",
          "type": "uint256"
        }
      ],
      "stateMutability": "view",
      "type": "function"
    },
    {
      "inputs": [
        {
          "internalType": "uint256",
          "name": "",
          "type": "uint256"
        }
      ],
      "name": "paidRent",
      "outputs": [
        {
          "internalType": "uint256",
          "name": "id",
          "type": "uint256"
        },
        {
          "internalType": "uint256",
          "name": "value",
          "type": "uint256"
        },
        {
          "internalType": "uint256",
          "name": "timestamp",
          "type": "uint256"
        }
      ],
      "stateMutability": "view",
      "type": "function"
    },
    {
      "inputs": [],
      "name": "propertyManager",
      "outputs": [
        {
          "internalType": "address",
          "name": "",
          "type": "address"
        }
      ],
      "stateMutability": "view",
      "type": "function"
    },
    {
      "inputs": [],
      "name": "propertyManagerAgreed",
      "outputs": [
        {
          "internalType": "bool",
          "name": "",
          "type": "bool"
        }
      ],
      "stateMutability": "view",
      "type": "function"
    },
    {
      "inputs": [],
      "name": "rentCost",
      "outputs": [
        {
          "internalType": "uint256",
          "name": "",
          "type": "uint256"
        }
      ],
      "stateMutability": "view",
      "type": "function"
    },
    {
      "inputs": [],
      "name": "securityDeposit",
      "outputs": [
        {
          "internalType": "uint256",
          "name": "",
          "type": "uint256"
        }
      ],
      "stateMutability": "view",
      "type": "function"
    },
    {
      "inputs": [],
      "name": "start",
      "outputs": [
        {
          "internalType": "uint256",
          "name": "",
          "type": "uint256"
        }
      ],
      "stateMutability": "view",
      "type": "function"
    },
    {
      "inputs": [],
      "name": "tenant",
      "outputs": [
        {
          "internalType": "address",
          "name": "",
          "type": "address"
        }
      ],
      "stateMutability": "view",
      "type": "function"
    },
    {
      "inputs": [],
      "name": "tenantAgreed",
      "outputs": [
        {
          "internalType": "bool",
          "name": "",
          "type": "bool"
        }
      ],
      "stateMutability": "view",
      "type": "function"
    },
    {
      "inputs": [],
      "name": "signAsTenant",
      "outputs": [],
      "stateMutability": "nonpayable",
      "type": "function"
    },
    {
      "inputs": [],
      "name": "signAsPropertyManager",
      "outputs": [],
      "stateMutability": "nonpayable",
      "type": "function"
    },
    {
      "inputs": [],
      "name": "payDeposit",
      "outputs": [],
      "stateMutability": "payable",
      "type": "function"
    },
    {
      "inputs": [],
      "name": "payRent",
      "outputs": [],
      "stateMutability": "payable",
      "type": "function"
    },
    {
      "inputs": [],
      "name": "terminateContract",
      "outputs": [],
      "stateMutability": "nonpayable",
      "type": "function"
    },
    {
      "inputs": [
        {
          "internalType": "uint256",
          "name": "cost",
          "type": "uint256"
        }
      ],
      "name": "changeRentCost",
      "outputs": [],
      "stateMutability": "nonpayable",
      "type": "function"
    },
    {
      "inputs": [
        {
          "internalType": "uint256",
          "name": "cost",
          "type": "uint256"
        }
      ],
      "name": "changeDepositValue",
      "outputs": [],
      "stateMutability": "nonpayable",
      "type": "function"
    },
    {
      "inputs": [
        {
          "internalType": "uint256",
          "name": "percentage",
          "type": "uint256"
        }
      ],
      "name": "changeManagementFee",
      "outputs": [],
      "stateMutability": "nonpayable",
      "type": "function"
    },
    {
      "inputs": [
        {
          "internalType": "uint256",
          "name": "date",
          "type": "uint256"
        }
      ],
      "name": "changeStartDate",
      "outputs": [],
      "stateMutability": "nonpayable",
      "type": "function"
    },
    {
      "inputs": [
        {
          "internalType": "uint256",
          "name": "date",
          "type": "uint256"
        }
      ],
      "name": "changeEndDate",
      "outputs": [],
      "stateMutability": "nonpayable",
      "type": "function"
    },
    {
      "inputs": [
        {
          "internalType": "uint256",
          "name": "amount",
          "type": "uint256"
        }
      ],
      "name": "claimDamages",
      "outputs": [],
      "stateMutability": "nonpayable",
      "type": "function"
    },
    {
      "inputs": [],
      "name": "returnDeposit",
      "outputs": [],
      "stateMutability": "nonpayable",
      "type": "function"
    },
    {
      "inputs": [],
      "name": "withdraw",
      "outputs": [],
      "stateMutability": "nonpayable",
      "type": "function"
    },
    {
      "inputs": [
        {
          "internalType": "uint256",
          "name": "paymentIndex",
          "type": "uint256"
        }
      ],
      "name": "getPayment",
      "outputs": [
        {
          "components": [
            {
              "internalType": "uint256",
              "name": "id",
              "type": "uint256"
            },
            {
              "internalType": "uint256",
              "name": "value",
              "type": "uint256"
            },
            {
              "internalType": "uint256",
              "name": "timestamp",
              "type": "uint256"
            }
          ],
          "internalType": "struct RentalAgreement.Payment",
          "name": "",
          "type": "tuple"
        }
      ],
      "stateMutability": "view",
      "type": "function"
    }
  ],
  "bytecode": "0x60806040523480156200001157600080fd5b5060405162002b0038038062002b008339818101604052810190620000379190620000d7565b336000806101000a81548173ffffffffffffffffffffffffffffffffffffffff021916908373ffffffffffffffffffffffffffffffffffffffff16021790555084600381905550836004819055508260058190555081600881905550806009819055506000600760006101000a81548160ff02191690831515021790555050505050506200017d565b600081519050620000d18162000163565b92915050565b600080600080600060a08688031215620000f057600080fd5b60006200010088828901620000c0565b95505060206200011388828901620000c0565b94505060406200012688828901620000c0565b93505060606200013988828901620000c0565b92505060806200014c88828901620000c0565b9150509295509295909350565b6000819050919050565b6200016e8162000159565b81146200017a57600080fd5b50565b612973806200018d6000396000f3fe6080604052600436106101c15760003560e01c8063a709c4fe116100f7578063dbae72c311610095578063e7356cb511610064578063e7356cb51461057f578063ef3ab330146105aa578063efbe1c1c146105d5578063f747606814610600576101c1565b8063dbae72c3146104af578063dc1997ea146104d8578063de56cd8114610503578063e3d670d714610542576101c1565b8063bb98d98f116100d1578063bb98d98f14610405578063be9a65551461042e578063c2e2df5214610459578063c6da861114610484576101c1565b8063a709c4fe146103a7578063a989eeb6146103b1578063adf07791146103da576101c1565b80633ccfd60b116101645780635c274b861161013e5780635c274b861461034457806373e5be311461034e57806373f351c8146103655780637e88f60314610390576101c1565b80633ccfd60b146102ed57806345737b1e1461030457806348b41c811461032d576101c1565b80632d2cba47116101a05780632d2cba47146102455780632fd949ca1461026e5780632fe9794e146102855780633280a836146102b0576101c1565b8062739f2a146101c657806302fb0c5e146101ef578063220e5ab31461021a575b600080fd5b3480156101d257600080fd5b506101ed60048036038101906101e89190611ed5565b61062b565b005b3480156101fb57600080fd5b50610204610786565b6040516102119190612487565b60405180910390f35b34801561022657600080fd5b5061022f610799565b60405161023c91906126bd565b60405180910390f35b34801561025157600080fd5b5061026c60048036038101906102679190611ed5565b61079f565b005b34801561027a57600080fd5b506102836108fa565b005b34801561029157600080fd5b5061029a610b83565b6040516102a79190612487565b60405180910390f35b3480156102bc57600080fd5b506102d760048036038101906102d29190611ed5565b610b96565b6040516102e491906126a2565b60405180910390f35b3480156102f957600080fd5b50610302610c16565b005b34801561031057600080fd5b5061032b60048036038101906103269190611ed5565b610d92565b005b34801561033957600080fd5b50610342610eed565b005b61034c61103f565b005b34801561035a57600080fd5b506103636111a2565b005b34801561037157600080fd5b5061037a611383565b60405161038791906126bd565b60405180910390f35b34801561039c57600080fd5b506103a5611389565b005b6103af611576565b005b3480156103bd57600080fd5b506103d860048036038101906103d39190611ed5565b6118ad565b005b3480156103e657600080fd5b506103ef6119be565b6040516103fc9190612443565b60405180910390f35b34801561041157600080fd5b5061042c60048036038101906104279190611ed5565b6119e4565b005b34801561043a57600080fd5b50610443611b3f565b60405161045091906126bd565b60405180910390f35b34801561046557600080fd5b5061046e611b45565b60405161047b9190612487565b60405180910390f35b34801561049057600080fd5b50610499611b58565b6040516104a691906126bd565b60405180910390f35b3480156104bb57600080fd5b506104d660048036038101906104d19190611ed5565b611b5e565b005b3480156104e457600080fd5b506104ed611cb9565b6040516104fa9190612443565b60405180910390f35b34801561050f57600080fd5b5061052a60048036038101906105259190611ed5565b611cdd565b60405161053993929190612701565b60405180910390f35b34801561054e57600080fd5b5061056960048036038101906105649190611eac565b611d17565b60405161057691906126bd565b60405180910390f35b34801561058b57600080fd5b50610594611d2f565b6040516105a19190612443565b60405180910390f35b3480156105b657600080fd5b506105bf611d55565b6040516105cc9190612487565b60405180910390f35b3480156105e157600080fd5b506105ea611d68565b6040516105f791906126bd565b60405180910390f35b34801561060c57600080fd5b50610615611d6e565b60405161062291906126bd565b60405180910390f35b60001515600760009054906101000a900460ff16151514610681576040517f08c379a0000000000000000000000000000000000000000000000000000000008152600401610678906125a2565b60405180910390fd5b60008054906101000a900473ffffffffffffffffffffffffffffffffffffffff1673ffffffffffffffffffffffffffffffffffffffff163373ffffffffffffffffffffffffffffffffffffffff161461070f576040517f08c379a000000000000000000000000000000000000000000000000000000000815260040161070690612502565b60405180910390fd5b806008819055506000600260146101000a81548160ff0219169083151502179055506000600260156101000a81548160ff0219169083151502179055507fd2835878ea6162878fc85888082376470d4b4277d91c0fadb875a36d70ba1af54260405161077b91906126bd565b60405180910390a150565b600760009054906101000a900460ff1681565b60045481565b60001515600760009054906101000a900460ff161515146107f5576040517f08c379a00000000000000000000000000000000000000000000000000000000081526004016107ec906125a2565b60405180910390fd5b60008054906101000a900473ffffffffffffffffffffffffffffffffffffffff1673ffffffffffffffffffffffffffffffffffffffff163373ffffffffffffffffffffffffffffffffffffffff1614610883576040517f08c379a000000000000000000000000000000000000000000000000000000000815260040161087a90612502565b60405180910390fd5b806005819055506000600260146101000a81548160ff0219169083151502179055506000600260156101000a81548160ff0219169083151502179055507fd2835878ea6162878fc85888082376470d4b4277d91c0fadb875a36d70ba1af5426040516108ef91906126bd565b60405180910390a150565b60008054906101000a900473ffffffffffffffffffffffffffffffffffffffff1673ffffffffffffffffffffffffffffffffffffffff163373ffffffffffffffffffffffffffffffffffffffff1614806109a15750600160009054906101000a900473ffffffffffffffffffffffffffffffffffffffff1673ffffffffffffffffffffffffffffffffffffffff163373ffffffffffffffffffffffffffffffffffffffff16145b806109f95750600260009054906101000a900473ffffffffffffffffffffffffffffffffffffffff1673ffffffffffffffffffffffffffffffffffffffff163373ffffffffffffffffffffffffffffffffffffffff16145b610a38576040517f08c379a0000000000000000000000000000000000000000000000000000000008152600401610a2f90612522565b60405180910390fd5b6000600760006101000a81548160ff02191690831515021790555060006006541115610a6757610a66611389565b5b6000600160006101000a81548173ffffffffffffffffffffffffffffffffffffffff021916908373ffffffffffffffffffffffffffffffffffffffff1602179055506000600260006101000a81548173ffffffffffffffffffffffffffffffffffffffff021916908373ffffffffffffffffffffffffffffffffffffffff1602179055506000600260146101000a81548160ff0219169083151502179055506000600260156101000a81548160ff0219169083151502179055506000600260166101000a81548160ff021916908315150217905550600a6000610b4a9190611e0e565b7f5760684a9ae00ee4a9ccadd1b4cc0c9bc48ff36d7c91399445204ca23ec1885742604051610b7991906126bd565b60405180910390a1565b600260159054906101000a900460ff1681565b610b9e611e32565b600a8281548110610bd8577f4e487b7100000000000000000000000000000000000000000000000000000000600052603260045260246000fd5b906000526020600020906003020160405180606001604052908160008201548152602001600182015481526020016002820154815250509050919050565b6000600b60003373ffffffffffffffffffffffffffffffffffffffff1673ffffffffffffffffffffffffffffffffffffffff16815260200190815260200160002054905060008111610c9d576040517f08c379a0000000000000000000000000000000000000000000000000000000008152600401610c9490612622565b60405180910390fd5b6000600b60003373ffffffffffffffffffffffffffffffffffffffff1673ffffffffffffffffffffffffffffffffffffffff1681526020019081526020016000208190555060003373ffffffffffffffffffffffffffffffffffffffff1682604051610d089061242e565b60006040518083038185875af1925050503d8060008114610d45576040519150601f19603f3d011682016040523d82523d6000602084013e610d4a565b606091505b5050905080610d8e576040517f08c379a0000000000000000000000000000000000000000000000000000000008152600401610d8590612542565b60405180910390fd5b5050565b60001515600760009054906101000a900460ff16151514610de8576040517f08c379a0000000000000000000000000000000000000000000000000000000008152600401610ddf906125a2565b60405180910390fd5b60008054906101000a900473ffffffffffffffffffffffffffffffffffffffff1673ffffffffffffffffffffffffffffffffffffffff163373ffffffffffffffffffffffffffffffffffffffff1614610e76576040517f08c379a0000000000000000000000000000000000000000000000000000000008152600401610e6d90612502565b60405180910390fd5b806009819055506000600260146101000a81548160ff0219169083151502179055506000600260156101000a81548160ff0219169083151502179055507fd2835878ea6162878fc85888082376470d4b4277d91c0fadb875a36d70ba1af542604051610ee291906126bd565b60405180910390a150565b600160009054906101000a900473ffffffffffffffffffffffffffffffffffffffff1673ffffffffffffffffffffffffffffffffffffffff163373ffffffffffffffffffffffffffffffffffffffff161415610f7e576040517f08c379a0000000000000000000000000000000000000000000000000000000008152600401610f7590612682565b60405180910390fd5b33600260006101000a81548173ffffffffffffffffffffffffffffffffffffffff021916908373ffffffffffffffffffffffffffffffffffffffff1602179055506001600260156101000a81548160ff021916908315150217905550610fe2611d74565b7fc87f5d9973d13782a473eaa8ad5386eeb7b6e5d9eb3136cf46385dfea7d455f3600260009054906101000a900473ffffffffffffffffffffffffffffffffffffffff164260405161103592919061245e565b60405180910390a1565b600160009054906101000a900473ffffffffffffffffffffffffffffffffffffffff1673ffffffffffffffffffffffffffffffffffffffff163373ffffffffffffffffffffffffffffffffffffffff16146110cf576040517f08c379a00000000000000000000000000000000000000000000000000000000081526004016110c690612562565b60405180910390fd5b600760009054906101000a900460ff161561111f576040517f08c379a0000000000000000000000000000000000000000000000000000000008152600401611116906124a2565b60405180910390fd5b600454341461112d57600080fd5b346006600082825461113f9190612754565b925050819055506001600260166101000a81548160ff0219169083151502179055507f488a0a49d4886026f694d753c0642d9174e8d821a25c5992b222c4970a0062114260405161119091906126bd565b60405180910390a16111a0611d74565b565b60008054906101000a900473ffffffffffffffffffffffffffffffffffffffff1673ffffffffffffffffffffffffffffffffffffffff163373ffffffffffffffffffffffffffffffffffffffff161415611231576040517f08c379a0000000000000000000000000000000000000000000000000000000008152600401611228906124e2565b60405180910390fd5b600260009054906101000a900473ffffffffffffffffffffffffffffffffffffffff1673ffffffffffffffffffffffffffffffffffffffff163373ffffffffffffffffffffffffffffffffffffffff1614156112c2576040517f08c379a00000000000000000000000000000000000000000000000000000000081526004016112b9906125c2565b60405180910390fd5b33600160006101000a81548173ffffffffffffffffffffffffffffffffffffffff021916908373ffffffffffffffffffffffffffffffffffffffff1602179055506001600260146101000a81548160ff021916908315150217905550611326611d74565b7fc87f5d9973d13782a473eaa8ad5386eeb7b6e5d9eb3136cf46385dfea7d455f3600160009054906101000a900473ffffffffffffffffffffffffffffffffffffffff164260405161137992919061245e565b60405180910390a1565b60055481565b60008054906101000a900473ffffffffffffffffffffffffffffffffffffffff1673ffffffffffffffffffffffffffffffffffffffff163373ffffffffffffffffffffffffffffffffffffffff1614611417576040517f08c379a000000000000000000000000000000000000000000000000000000000815260040161140e906124c2565b60405180910390fd5b60006006541161145c576040517f08c379a000000000000000000000000000000000000000000000000000000000815260040161145390612602565b60405180910390fd5b6000600654905060006006819055506000600160009054906101000a900473ffffffffffffffffffffffffffffffffffffffff1673ffffffffffffffffffffffffffffffffffffffff16826040516114b39061242e565b60006040518083038185875af1925050503d80600081146114f0576040519150601f19603f3d011682016040523d82523d6000602084013e6114f5565b606091505b5050905080611539576040517f08c379a000000000000000000000000000000000000000000000000000000000815260040161153090612542565b60405180910390fd5b7f43f1a62374b03888ce7ed69d5599d19e6aa7c4e5863ab594bdaae22bd3637aae824260405161156a9291906126d8565b60405180910390a15050565b600160009054906101000a900473ffffffffffffffffffffffffffffffffffffffff1673ffffffffffffffffffffffffffffffffffffffff163373ffffffffffffffffffffffffffffffffffffffff1614611606576040517f08c379a00000000000000000000000000000000000000000000000000000000081526004016115fd90612562565b60405180910390fd5b600760009054906101000a900460ff16611655576040517f08c379a000000000000000000000000000000000000000000000000000000000815260040161164c90612642565b60405180910390fd5b6003543414611699576040517f08c379a000000000000000000000000000000000000000000000000000000000815260040161169090612582565b60405180910390fd5b6009544211156116de576040517f08c379a00000000000000000000000000000000000000000000000000000000081526004016116d5906125e2565b60405180910390fd5b60006064600554346116f091906127db565b6116fa91906127aa565b90506000813461170a9190612835565b905080600b60008060009054906101000a900473ffffffffffffffffffffffffffffffffffffffff1673ffffffffffffffffffffffffffffffffffffffff1673ffffffffffffffffffffffffffffffffffffffff168152602001908152602001600020600082825461177c9190612754565b9250508190555081600b6000600260009054906101000a900473ffffffffffffffffffffffffffffffffffffffff1673ffffffffffffffffffffffffffffffffffffffff1673ffffffffffffffffffffffffffffffffffffffff16815260200190815260200160002060008282546117f49190612754565b92505081905550600a60405180606001604052806001600a8054905061181a9190612754565b815260200134815260200142815250908060018154018082558091505060019003906000526020600020906003020160009091909190915060008201518160000155602082015181600101556040820151816002015550507f6f6f663a95cfc56731d5c426da5aa1a62df862a4b97f25aac9f299409791628a426040516118a191906126bd565b60405180910390a15050565b6006548111156118f2576040517f08c379a00000000000000000000000000000000000000000000000000000000081526004016118e990612662565b60405180910390fd5b80600660008282546119049190612835565b9250508190555080600b60008060009054906101000a900473ffffffffffffffffffffffffffffffffffffffff1673ffffffffffffffffffffffffffffffffffffffff1673ffffffffffffffffffffffffffffffffffffffff168152602001908152602001600020600082825461197b9190612754565b925050819055507fe9a7bf6a4ff808bee0de7a737fb73a2c5f2a5977125e17c58c30cf6b1bb5bdb281426040516119b39291906126d8565b60405180910390a150565b600160009054906101000a900473ffffffffffffffffffffffffffffffffffffffff1681565b60001515600760009054906101000a900460ff16151514611a3a576040517f08c379a0000000000000000000000000000000000000000000000000000000008152600401611a31906125a2565b60405180910390fd5b60008054906101000a900473ffffffffffffffffffffffffffffffffffffffff1673ffffffffffffffffffffffffffffffffffffffff163373ffffffffffffffffffffffffffffffffffffffff1614611ac8576040517f08c379a0000000000000000000000000000000000000000000000000000000008152600401611abf90612502565b60405180910390fd5b806003819055506000600260146101000a81548160ff0219169083151502179055506000600260156101000a81548160ff0219169083151502179055507fd2835878ea6162878fc85888082376470d4b4277d91c0fadb875a36d70ba1af542604051611b3491906126bd565b60405180910390a150565b60085481565b600260149054906101000a900460ff1681565b60065481565b60001515600760009054906101000a900460ff16151514611bb4576040517f08c379a0000000000000000000000000000000000000000000000000000000008152600401611bab906125a2565b60405180910390fd5b60008054906101000a900473ffffffffffffffffffffffffffffffffffffffff1673ffffffffffffffffffffffffffffffffffffffff163373ffffffffffffffffffffffffffffffffffffffff1614611c42576040517f08c379a0000000000000000000000000000000000000000000000000000000008152600401611c3990612502565b60405180910390fd5b806004819055506000600260146101000a81548160ff0219169083151502179055506000600260156101000a81548160ff0219169083151502179055507fd2835878ea6162878fc85888082376470d4b4277d91c0fadb875a36d70ba1af542604051611cae91906126bd565b60405180910390a150565b60008054906101000a900473ffffffffffffffffffffffffffffffffffffffff1681565b600a8181548110611ced57600080fd5b90600052602060002090600302016000915090508060000154908060010154908060020154905083565b600b6020528060005260406000206000915090505481565b600260009054906101000a900473ffffffffffffffffffffffffffffffffffffffff1681565b600260169054906101000a900460ff1681565b60095481565b60035481565b600260149054906101000a900460ff168015611d9c5750600260159054906101000a900460ff165b8015611db45750600260169054906101000a900460ff165b15611e0c576001600760006101000a81548160ff0219169083151502179055507faf3c49f5413fd292e2325b0fe214de144a222b00cb6ec21214fdc04b5d6c591342604051611e0391906126bd565b60405180910390a15b565b5080546000825560030290600052602060002090810190611e2f9190611e53565b50565b60405180606001604052806000815260200160008152602001600081525090565b5b80821115611e7e576000808201600090556001820160009055600282016000905550600301611e54565b5090565b600081359050611e918161290f565b92915050565b600081359050611ea681612926565b92915050565b600060208284031215611ebe57600080fd5b6000611ecc84828501611e82565b91505092915050565b600060208284031215611ee757600080fd5b6000611ef584828501611e97565b91505092915050565b611f0781612869565b82525050565b611f168161287b565b82525050565b6000611f29602b83612743565b91507f43616e6e6f7420706179206465706f736974207768696c6520636f6e7472616360008301527f74206973206163746976650000000000000000000000000000000000000000006020830152604082019050919050565b6000611f8f601683612743565b91507f4f6e6c79206c616e646c6f726420616c6c6f7765642e000000000000000000006000830152602082019050919050565b6000611fcf602083612743565b91507f4c616e646c6f72642063616e277420626520686973206f776e2074656e616e746000830152602082019050919050565b600061200f600e83612743565b91507f4c616e646c6f7264206f6e6c792e0000000000000000000000000000000000006000830152602082019050919050565b600061204f601c83612743565b91507f4e6f74206120706172747920696e207468697320636f6e7472616374000000006000830152602082019050919050565b600061208f600f83612743565b91507f5472616e73666572206661696c656400000000000000000000000000000000006000830152602082019050919050565b60006120cf601783612743565b91507f4f6e6c792074656e616e7420697320616c6c6f7765642e0000000000000000006000830152602082019050919050565b600061210f600d83612743565b91507f57726f6e6720616d6f756e742e000000000000000000000000000000000000006000830152602082019050919050565b600061214f602d83612743565b91507f43616e2774206368616e676520746865207465726d73206f6620616e2061637460008301527f69766520636f6e74726163742e000000000000000000000000000000000000006020830152604082019050919050565b60006121b5603083612743565b91507f43616e6e6f7420626520612074656e616e74206f6e20612070726f706572747960008301527f207468617420796f75206d616e616765000000000000000000000000000000006020830152604082019050919050565b600061221b601083612743565b91507f4c656173652068617320656e6465642e000000000000000000000000000000006000830152602082019050919050565b600061225b600f83612743565b91507f4e6f206465706f736974206c65667400000000000000000000000000000000006000830152602082019050919050565b600061229b601683612743565b91507f4e6f2062616c616e636520746f207769746864726177000000000000000000006000830152602082019050919050565b60006122db600083612738565b9150600082019050919050565b60006122f5601a83612743565b91507f4c6561736520686173206e6f74206265656e207369676e65642e0000000000006000830152602082019050919050565b6000612335601c83612743565b91507f4e6f7420656e6f756768206d6f6e657920696e206465706f7369742e000000006000830152602082019050919050565b6000612375603183612743565b91507f54656e616e742063616e2774206d616e616765207468652070726f706572747960008301527f2074686579206172652072656e74696e670000000000000000000000000000006020830152604082019050919050565b6060820160008201516123e46000850182612410565b5060208201516123f76020850182612410565b50604082015161240a6040850182612410565b50505050565b612419816128a7565b82525050565b612428816128a7565b82525050565b6000612439826122ce565b9150819050919050565b60006020820190506124586000830184611efe565b92915050565b60006040820190506124736000830185611efe565b612480602083018461241f565b9392505050565b600060208201905061249c6000830184611f0d565b92915050565b600060208201905081810360008301526124bb81611f1c565b9050919050565b600060208201905081810360008301526124db81611f82565b9050919050565b600060208201905081810360008301526124fb81611fc2565b9050919050565b6000602082019050818103600083015261251b81612002565b9050919050565b6000602082019050818103600083015261253b81612042565b9050919050565b6000602082019050818103600083015261255b81612082565b9050919050565b6000602082019050818103600083015261257b816120c2565b9050919050565b6000602082019050818103600083015261259b81612102565b9050919050565b600060208201905081810360008301526125bb81612142565b9050919050565b600060208201905081810360008301526125db816121a8565b9050919050565b600060208201905081810360008301526125fb8161220e565b9050919050565b6000602082019050818103600083015261261b8161224e565b9050919050565b6000602082019050818103600083015261263b8161228e565b9050919050565b6000602082019050818103600083015261265b816122e8565b9050919050565b6000602082019050818103600083015261267b81612328565b9050919050565b6000602082019050818103600083015261269b81612368565b9050919050565b60006060820190506126b760008301846123ce565b92915050565b60006020820190506126d2600083018461241f565b92915050565b60006040820190506126ed600083018561241f565b6126fa602083018461241f565b9392505050565b6000606082019050612716600083018661241f565b612723602083018561241f565b612730604083018461241f565b949350505050565b600081905092915050565b600082825260208201905092915050565b600061275f826128a7565b915061276a836128a7565b9250827fffffffffffffffffffffffffffffffffffffffffffffffffffffffffffffffff0382111561279f5761279e6128b1565b5b828201905092915050565b60006127b5826128a7565b91506127c0836128a7565b9250826127d0576127cf6128e0565b5b828204905092915050565b60006127e6826128a7565b91506127f1836128a7565b9250817fffffffffffffffffffffffffffffffffffffffffffffffffffffffffffffffff048311821515161561282a576128296128b1565b5b828202905092915050565b6000612840826128a7565b915061284b836128a7565b92508282101561285e5761285d6128b1565b5b828203905092915050565b600061287482612887565b9050919050565b60008115159050919050565b600073ffffffffffffffffffffffffffffffffffffffff82169050919050565b6000819050919050565b7f4e487b7100000000000000000000000000000000000000000000000000000000600052601160045260246000fd5b7f4e487b7100000000000000000000000000000000000000000000000000000000600052601260045260246000fd5b61291881612869565b811461292357600080fd5b50565b61292f816128a7565b811461293a57600080fd5b5056fea264697066735822122052778360423e8979a8b31c272e7db8fe4fd1cdd03f8bf2c7933ef5043efb096664736f6c63430008000033",
  "immutableReferences": {},
  "source": "// SPDX-License-Identifier: MIT\r\npragma solidity ^0.8.0;\r\n\r\ncontract RentalAgreement{\r\n   address public landlord;\r\n   address public tenant;\r\n   address public propertyManager;\r\n\r\n   bool public tenantAgreed;\r\n   bool public propertyManagerAgreed;\r\n   bool public depositPaid;\r\n\r\n   uint public rentCost;\r\n   uint public securityDeposit;\r\n   uint public managementFeePercent;\r\n   \r\n   uint public depositHeld;\r\n   bool public active;\r\n\r\n   uint public start;\r\n   uint public end;\r\n\r\n   struct Payment{\r\n      uint id;\r\n      uint value;\r\n      uint timestamp;\r\n   }\r\n\r\n   Payment[] public paidRent;\r\n\r\n   mapping(address => uint) public balance; \r\n\r\n   event RentPaid(uint timestamp);\r\n   event ContractSigned(uint timestamp);\r\n   event ContractTerminated(uint timestamp);\r\n   event AgreedToTerms(address party, uint timestamp);\r\n   event DepositPaid(uint timestamp);\r\n   event DamagesClaimed(uint amount, uint timestamp);\r\n   event DepositReturned(uint amount, uint timestamp);\r\n   event TermsChanged(uint timestamp);\r\n\r\n   constructor (\r\n      uint _rentCost,\r\n      uint _securityDeposit,\r\n      uint _managementFeePercent, \r\n      uint _start, \r\n      uint _end\r\n   ) {\r\n      landlord = msg.sender;\r\n      rentCost = _rentCost;\r\n      securityDeposit = _securityDeposit;\r\n      managementFeePercent = _managementFeePercent;\r\n      start = _start;\r\n      end = _end;\r\n      active = false;\r\n   }\r\n\r\n   function signAsTenant() external {\r\n      require(msg.sender!=landlord, \"Landlord can't be his own tenant\");\r\n      require(msg.sender!=propertyManager, \"Cannot be a tenant on a property that you manage\");\r\n      tenant = msg.sender;\r\n      tenantAgreed = true;\r\n      signContract();\r\n\r\n      emit AgreedToTerms(tenant, block.timestamp);\r\n   }\r\n\r\n   function signAsPropertyManager() external {\r\n      require(msg.sender != tenant, \"Tenant can't manage the property they are renting\");\r\n      propertyManager = msg.sender;\r\n      propertyManagerAgreed = true;\r\n      signContract();\r\n\r\n      emit AgreedToTerms(propertyManager, block.timestamp);\r\n}\r\n\r\n   function payDeposit() external payable{\r\n      require(msg.sender == tenant, \"Only tenant is allowed.\");\r\n      require(!active, \"Cannot pay deposit while contract is active\"); // Changed this\r\n      require(msg.value == securityDeposit);\r\n\r\n      depositHeld += msg.value;\r\n      depositPaid = true;\r\n\r\n      emit DepositPaid(block.timestamp);\r\n\r\n      signContract();\r\n}\r\n\r\n\r\n   function signContract() internal {\r\n      if(tenantAgreed && propertyManagerAgreed && depositPaid){\r\n      active = true;\r\n      emit ContractSigned(block.timestamp);}\r\n   }\r\n\r\n   function payRent () external payable {\r\n      require(msg.sender == tenant, \"Only tenant is allowed.\");\r\n      require(active, \"Lease has not been signed.\");\r\n      require(msg.value == rentCost, \"Wrong amount.\");\r\n      require(block.timestamp <= end, \"Lease has ended.\");\r\n\r\n      uint managementFee = (msg.value * managementFeePercent) /100;\r\n      uint landlordFee = msg.value - managementFee;\r\n\r\n      balance[landlord] += landlordFee;\r\n      balance[propertyManager] += managementFee;\r\n\r\n      paidRent.push(Payment({\r\n         id : paidRent.length + 1,\r\n         value : msg.value,\r\n         timestamp : block.timestamp\r\n      }));\r\n\r\n      emit RentPaid(block.timestamp);\r\n   }\r\n\r\n   function terminateContract() external {\r\n      require(msg.sender == landlord || \r\n      msg.sender == tenant || \r\n      msg.sender == propertyManager, \r\n      \"Not a party in this contract\");\r\n   \r\n      active = false;\r\n   \r\n      if (depositHeld > 0) {\r\n         returnDeposit();\r\n      }\r\n\r\n      tenant = address(0);\r\n      propertyManager = address(0);\r\n      tenantAgreed = false;\r\n      propertyManagerAgreed = false;\r\n      depositPaid = false;\r\n      delete paidRent;\r\n\r\n      emit ContractTerminated(block.timestamp);\r\n   }\r\n\r\n   function changeRentCost(uint cost) external {\r\n      require(active==false, \"Can't change the terms of an active contract.\");\r\n      require(msg.sender == landlord, \"Landlord only.\");\r\n      rentCost = cost;\r\n      tenantAgreed = false;\r\n      propertyManagerAgreed = false;\r\n\r\n      emit TermsChanged(block.timestamp);\r\n   }\r\n\r\n   function changeDepositValue(uint cost) external {\r\n      require(active==false, \"Can't change the terms of an active contract.\");\r\n      require(msg.sender == landlord, \"Landlord only.\");\r\n      securityDeposit = cost;\r\n      tenantAgreed = false;\r\n      propertyManagerAgreed = false;\r\n\r\n      emit TermsChanged(block.timestamp);\r\n   }\r\n\r\n   function changeManagementFee(uint percentage) external {\r\n      require(active==false, \"Can't change the terms of an active contract.\");\r\n      require(msg.sender == landlord, \"Landlord only.\");\r\n      managementFeePercent = percentage;\r\n      tenantAgreed = false;\r\n      propertyManagerAgreed = false;\r\n\r\n      emit TermsChanged(block.timestamp);\r\n   }\r\n\r\n      function changeStartDate(uint date) external {\r\n      require(active==false, \"Can't change the terms of an active contract.\");\r\n      require(msg.sender == landlord, \"Landlord only.\");\r\n      start = date;\r\n      tenantAgreed = false;\r\n      propertyManagerAgreed = false;\r\n\r\n      emit TermsChanged(block.timestamp);\r\n   }\r\n\r\n   function changeEndDate(uint date) external {\r\n      require(active==false, \"Can't change the terms of an active contract.\");\r\n      require(msg.sender == landlord, \"Landlord only.\");\r\n      end = date;\r\n      tenantAgreed = false;\r\n      propertyManagerAgreed = false;\r\n\r\n      emit TermsChanged(block.timestamp);\r\n   }\r\n\r\n   function claimDamages(uint amount) external {\r\n      require(amount <= depositHeld, \"Not enough money in deposit.\");\r\n      depositHeld -= amount;\r\n      balance[landlord] += amount;\r\n\r\n      emit DamagesClaimed(amount, block.timestamp);\r\n   }\r\n\r\n   function returnDeposit() public {\r\n      require(msg.sender == landlord, \"Only landlord allowed.\");\r\n      require(depositHeld > 0, \"No deposit left\");\r\n\r\n      uint amountToReturn = depositHeld;\r\n      depositHeld = 0;\r\n      (bool returned, ) = payable(tenant).call{value: amountToReturn}(\"\");\r\n      require(returned, \"Transfer failed\");\r\n      \r\n      emit DepositReturned(amountToReturn, block.timestamp);\r\n   }\r\n\r\n   function withdraw() external {\r\n      uint amount = balance[msg.sender];\r\n      require(amount > 0, \"No balance to withdraw\");\r\n   \r\n      balance[msg.sender] = 0;\r\n      (bool sent, ) = payable(msg.sender).call{value: amount}(\"\");\r\n      require(sent, \"Transfer failed\");\r\n   }\r\n\r\n   function getPayment(uint paymentIndex) public view returns(Payment memory) {\r\n      return paidRent[paymentIndex];\r\n   }\r\n}\r\n\r\n",
  "sourcePath": "C:\\Users\\tamel\\Documents\\uni\\3 semestras\\blockchain\\blockchain-04\\contracts\\RentalAgreement.sol",
  "compiler": {
    "name": "solc",
    "version": "0.8.0+commit.c7dfd78e.Emscripten.clang"
  },
  "schemaVersion": "3.4.16",
  "updatedAt": "2025-12-16T15:03:54.104Z",
  "devdoc": {
    "kind": "dev",
    "methods": {},
    "version": 1
  },
  "userdoc": {
    "kind": "user",
    "methods": {},
    "version": 1
  }
}