{
  "contractName": "RentalAgreement",
  "abi": [
    {
      "inputs": [
        {
          "internalType": "address",
          "name": "_landlord",
          "type": "address"
        },
        {
          "internalType": "address",
          "name": "_tenant",
          "type": "address"
        },
        {
          "internalType": "address",
          "name": "_propertyManager",
          "type": "address"
        },
        {
          "internalType": "string",
          "name": "_houseAddress",
          "type": "string"
        },
        {
          "internalType": "uint256",
          "name": "_rentCost",
          "type": "uint256"
        },
        {
          "internalType": "uint256",
          "name": "_securityDeposit",
          "type": "uint256"
        },
        {
          "internalType": "uint256",
          "name": "_managementFeePercent",
          "type": "uint256"
        },
        {
          "internalType": "uint256",
          "name": "_start",
          "type": "uint256"
        },
        {
          "internalType": "uint256",
          "name": "_end",
          "type": "uint256"
        }
      ],
      "stateMutability": "nonpayable",
      "type": "constructor"
    },
    {
      "anonymous": false,
      "inputs": [
        {
          "indexed": false,
          "internalType": "uint256",
          "name": "timestamp",
          "type": "uint256"
        }
      ],
      "name": "ContractSigned",
      "type": "event"
    },
    {
      "anonymous": false,
      "inputs": [
        {
          "indexed": false,
          "internalType": "address",
          "name": "tenant",
          "type": "address"
        },
        {
          "indexed": false,
          "internalType": "uint256",
          "name": "amount",
          "type": "uint256"
        },
        {
          "indexed": false,
          "internalType": "uint256",
          "name": "timestamp",
          "type": "uint256"
        }
      ],
      "name": "RentPaid",
      "type": "event"
    },
    {
      "inputs": [],
      "name": "active",
      "outputs": [
        {
          "internalType": "bool",
          "name": "",
          "type": "bool"
        }
      ],
      "stateMutability": "view",
      "type": "function"
    },
    {
      "inputs": [
        {
          "internalType": "address",
          "name": "",
          "type": "address"
        }
      ],
      "name": "balance",
      "outputs": [
        {
          "internalType": "uint256",
          "name": "",
          "type": "uint256"
        }
      ],
      "stateMutability": "view",
      "type": "function"
    },
    {
      "inputs": [],
      "name": "depositHeld",
      "outputs": [
        {
          "internalType": "uint256",
          "name": "",
          "type": "uint256"
        }
      ],
      "stateMutability": "view",
      "type": "function"
    },
    {
      "inputs": [],
      "name": "depositPaid",
      "outputs": [
        {
          "internalType": "bool",
          "name": "",
          "type": "bool"
        }
      ],
      "stateMutability": "view",
      "type": "function"
    },
    {
      "inputs": [],
      "name": "end",
      "outputs": [
        {
          "internalType": "uint256",
          "name": "",
          "type": "uint256"
        }
      ],
      "stateMutability": "view",
      "type": "function"
    },
    {
      "inputs": [],
      "name": "houseAddress",
      "outputs": [
        {
          "internalType": "string",
          "name": "",
          "type": "string"
        }
      ],
      "stateMutability": "view",
      "type": "function"
    },
    {
      "inputs": [],
      "name": "landlord",
      "outputs": [
        {
          "internalType": "address",
          "name": "",
          "type": "address"
        }
      ],
      "stateMutability": "view",
      "type": "function"
    },
    {
      "inputs": [],
      "name": "landlordAgreed",
      "outputs": [
        {
          "internalType": "bool",
          "name": "",
          "type": "bool"
        }
      ],
      "stateMutability": "view",
      "type": "function"
    },
    {
      "inputs": [],
      "name": "lastPayment",
      "outputs": [
        {
          "internalType": "uint256",
          "name": "",
          "type": "uint256"
        }
      ],
      "stateMutability": "view",
      "type": "function"
    },
    {
      "inputs": [],
      "name": "managementFeePercent",
      "outputs": [
        {
          "internalType": "uint256",
          "name": "",
          "type": "uint256"
        }
      ],
      "stateMutability": "view",
      "type": "function"
    },
    {
      "inputs": [
        {
          "internalType": "uint256",
          "name": "",
          "type": "uint256"
        }
      ],
      "name": "paidRent",
      "outputs": [
        {
          "internalType": "uint256",
          "name": "id",
          "type": "uint256"
        },
        {
          "internalType": "uint256",
          "name": "value",
          "type": "uint256"
        },
        {
          "internalType": "uint256",
          "name": "timestamp",
          "type": "uint256"
        }
      ],
      "stateMutability": "view",
      "type": "function"
    },
    {
      "inputs": [],
      "name": "propertyManager",
      "outputs": [
        {
          "internalType": "address",
          "name": "",
          "type": "address"
        }
      ],
      "stateMutability": "view",
      "type": "function"
    },
    {
      "inputs": [],
      "name": "propertyManagerAgreed",
      "outputs": [
        {
          "internalType": "bool",
          "name": "",
          "type": "bool"
        }
      ],
      "stateMutability": "view",
      "type": "function"
    },
    {
      "inputs": [],
      "name": "rentCost",
      "outputs": [
        {
          "internalType": "uint256",
          "name": "",
          "type": "uint256"
        }
      ],
      "stateMutability": "view",
      "type": "function"
    },
    {
      "inputs": [],
      "name": "securityDeposit",
      "outputs": [
        {
          "internalType": "uint256",
          "name": "",
          "type": "uint256"
        }
      ],
      "stateMutability": "view",
      "type": "function"
    },
    {
      "inputs": [],
      "name": "start",
      "outputs": [
        {
          "internalType": "uint256",
          "name": "",
          "type": "uint256"
        }
      ],
      "stateMutability": "view",
      "type": "function"
    },
    {
      "inputs": [],
      "name": "tenant",
      "outputs": [
        {
          "internalType": "address",
          "name": "",
          "type": "address"
        }
      ],
      "stateMutability": "view",
      "type": "function"
    },
    {
      "inputs": [],
      "name": "tenantAgreed",
      "outputs": [
        {
          "internalType": "bool",
          "name": "",
          "type": "bool"
        }
      ],
      "stateMutability": "view",
      "type": "function"
    },
    {
      "inputs": [],
      "name": "agreeToTerms",
      "outputs": [],
      "stateMutability": "nonpayable",
      "type": "function"
    },
    {
      "inputs": [],
      "name": "payDeposit",
      "outputs": [],
      "stateMutability": "payable",
      "type": "function"
    },
    {
      "inputs": [],
      "name": "payRent",
      "outputs": [],
      "stateMutability": "payable",
      "type": "function"
    }
  ],
  "bytecode": "0x60806040523480156200001157600080fd5b5060405162001b4638038062001b468339818101604052810190620000379190620002af565b886000806101000a81548173ffffffffffffffffffffffffffffffffffffffff021916908373ffffffffffffffffffffffffffffffffffffffff16021790555087600160006101000a81548173ffffffffffffffffffffffffffffffffffffffff021916908373ffffffffffffffffffffffffffffffffffffffff16021790555086600260006101000a81548173ffffffffffffffffffffffffffffffffffffffff021916908373ffffffffffffffffffffffffffffffffffffffff1602179055508560069080519060200190620001119291906200015f565b5084600381905550836004819055508260058190555081600a8190555080600b819055506000600960006101000a81548160ff02191690831515021790555050505050505050505062000544565b8280546200016d906200047c565b90600052602060002090601f016020900481019282620001915760008555620001dd565b82601f10620001ac57805160ff1916838001178555620001dd565b82800160010185558215620001dd579182015b82811115620001dc578251825591602001919060010190620001bf565b5b509050620001ec9190620001f0565b5090565b5b808211156200020b576000816000905550600101620001f1565b5090565b6000620002266200022084620003d5565b620003a1565b9050828152602081018484840111156200023f57600080fd5b6200024c84828562000446565b509392505050565b600081519050620002658162000510565b92915050565b600082601f8301126200027d57600080fd5b81516200028f8482602086016200020f565b91505092915050565b600081519050620002a9816200052a565b92915050565b60008060008060008060008060006101208a8c031215620002cf57600080fd5b6000620002df8c828d0162000254565b9950506020620002f28c828d0162000254565b9850506040620003058c828d0162000254565b97505060608a015167ffffffffffffffff8111156200032357600080fd5b620003318c828d016200026b565b9650506080620003448c828d0162000298565b95505060a0620003578c828d0162000298565b94505060c06200036a8c828d0162000298565b93505060e06200037d8c828d0162000298565b925050610100620003918c828d0162000298565b9150509295985092959850929598565b6000604051905081810181811067ffffffffffffffff82111715620003cb57620003ca620004e1565b5b8060405250919050565b600067ffffffffffffffff821115620003f357620003f2620004e1565b5b601f19601f8301169050602081019050919050565b600062000415826200041c565b9050919050565b600073ffffffffffffffffffffffffffffffffffffffff82169050919050565b6000819050919050565b60005b838110156200046657808201518184015260208101905062000449565b8381111562000476576000848401525b50505050565b600060028204905060018216806200049557607f821691505b60208210811415620004ac57620004ab620004b2565b5b50919050565b7f4e487b7100000000000000000000000000000000000000000000000000000000600052602260045260246000fd5b7f4e487b7100000000000000000000000000000000000000000000000000000000600052604160045260246000fd5b6200051b8162000408565b81146200052757600080fd5b50565b62000535816200043c565b81146200054157600080fd5b50565b6115f280620005546000396000f3fe60806040526004361061012a5760003560e01c8063c6da8611116100ab578063e3d670d71161006f578063e3d670d714610372578063e7356cb5146103af578063ef3ab330146103da578063efbe1c1c14610405578063f747606814610430578063f7d494521461045b5761012a565b8063c6da86111461029b578063d17d3503146102c6578063d7cee31e146102dd578063dc1997ea14610308578063de56cd81146103335761012a565b806381e170de116100f257806381e170de146101e5578063a709c4fe14610210578063adf077911461021a578063be9a655514610245578063c2e2df52146102705761012a565b806302fb0c5e1461012f578063220e5ab31461015a5780632fe9794e146101855780635c274b86146101b057806373f351c8146101ba575b600080fd5b34801561013b57600080fd5b50610144610486565b6040516101519190611163565b60405180910390f35b34801561016657600080fd5b5061016f610499565b60405161017c91906112c0565b60405180910390f35b34801561019157600080fd5b5061019a61049f565b6040516101a79190611163565b60405180910390f35b6101b86104b2565b005b3480156101c657600080fd5b506101cf6105cc565b6040516101dc91906112c0565b60405180910390f35b3480156101f157600080fd5b506101fa6105d2565b60405161020791906112c0565b60405180910390f35b6102186105d8565b005b34801561022657600080fd5b5061022f6108cb565b60405161023c9190611111565b60405180910390f35b34801561025157600080fd5b5061025a6108f1565b60405161026791906112c0565b60405180910390f35b34801561027c57600080fd5b506102856108f7565b6040516102929190611163565b60405180910390f35b3480156102a757600080fd5b506102b061090a565b6040516102bd91906112c0565b60405180910390f35b3480156102d257600080fd5b506102db610910565b005b3480156102e957600080fd5b506102f2610ab7565b6040516102ff919061117e565b60405180910390f35b34801561031457600080fd5b5061031d610b45565b60405161032a9190611111565b60405180910390f35b34801561033f57600080fd5b5061035a60048036038101906103559190610df6565b610b69565b604051610369939291906112db565b60405180910390f35b34801561037e57600080fd5b5061039960048036038101906103949190610dcd565b610ba3565b6040516103a691906112c0565b60405180910390f35b3480156103bb57600080fd5b506103c4610bbb565b6040516103d19190611111565b60405180910390f35b3480156103e657600080fd5b506103ef610be1565b6040516103fc9190611163565b60405180910390f35b34801561041157600080fd5b5061041a610bf4565b60405161042791906112c0565b60405180910390f35b34801561043c57600080fd5b50610445610bfa565b60405161045291906112c0565b60405180910390f35b34801561046757600080fd5b50610470610c00565b60405161047d9190611163565b60405180910390f35b600960009054906101000a900460ff1681565b60045481565b600260169054906101000a900460ff1681565b600160009054906101000a900473ffffffffffffffffffffffffffffffffffffffff1673ffffffffffffffffffffffffffffffffffffffff163373ffffffffffffffffffffffffffffffffffffffff1614610542576040517f08c379a000000000000000000000000000000000000000000000000000000000815260040161053990611220565b60405180910390fd5b600260179054906101000a900460ff1615610592576040517f08c379a0000000000000000000000000000000000000000000000000000000008152600401610589906111c0565b60405180910390fd5b60045434146105a057600080fd5b346008819055506001600260176101000a81548160ff0219169083151502179055506105ca610c13565b565b60055481565b60075481565b600160009054906101000a900473ffffffffffffffffffffffffffffffffffffffff1673ffffffffffffffffffffffffffffffffffffffff163373ffffffffffffffffffffffffffffffffffffffff1614610668576040517f08c379a000000000000000000000000000000000000000000000000000000000815260040161065f90611220565b60405180910390fd5b60035434146106ac576040517f08c379a00000000000000000000000000000000000000000000000000000000081526004016106a390611240565b60405180910390fd5b600b544211156106f1576040517f08c379a00000000000000000000000000000000000000000000000000000000081526004016106e890611260565b60405180910390fd5b600060646005543461070391906113b5565b61070d9190611384565b90506000813461071d919061140f565b905080600d60008060009054906101000a900473ffffffffffffffffffffffffffffffffffffffff1673ffffffffffffffffffffffffffffffffffffffff1673ffffffffffffffffffffffffffffffffffffffff168152602001908152602001600020600082825461078f919061132e565b9250508190555081600d6000600260009054906101000a900473ffffffffffffffffffffffffffffffffffffffff1673ffffffffffffffffffffffffffffffffffffffff1673ffffffffffffffffffffffffffffffffffffffff1681526020019081526020016000206000828254610807919061132e565b92505081905550600c60405180606001604052806001600c8054905061082d919061132e565b81526020013481526020014281525090806001815401808255809150506001900390600052602060002090600302016000909190919091506000820151816000015560208201518160010155604082015181600201555050426007819055507f33d9ffd7947b17c37c9905165c01183282058f1cb2252c9be395887d078572ad3334426040516108bf9392919061112c565b60405180910390a15050565b600160009054906101000a900473ffffffffffffffffffffffffffffffffffffffff1681565b600a5481565b600260159054906101000a900460ff1681565b60085481565b60008054906101000a900473ffffffffffffffffffffffffffffffffffffffff1673ffffffffffffffffffffffffffffffffffffffff163373ffffffffffffffffffffffffffffffffffffffff161415610984576001600260146101000a81548160ff021916908315150217905550610aad565b600160009054906101000a900473ffffffffffffffffffffffffffffffffffffffff1673ffffffffffffffffffffffffffffffffffffffff163373ffffffffffffffffffffffffffffffffffffffff1614156109fa576001600260156101000a81548160ff021916908315150217905550610aac565b600260009054906101000a900473ffffffffffffffffffffffffffffffffffffffff1673ffffffffffffffffffffffffffffffffffffffff163373ffffffffffffffffffffffffffffffffffffffff161415610a70576001600260166101000a81548160ff021916908315150217905550610aab565b6040517f08c379a0000000000000000000000000000000000000000000000000000000008152600401610aa2906111e0565b60405180910390fd5b5b5b610ab5610c13565b565b60068054610ac4906114be565b80601f0160208091040260200160405190810160405280929190818152602001828054610af0906114be565b8015610b3d5780601f10610b1257610100808354040283529160200191610b3d565b820191906000526020600020905b815481529060010190602001808311610b2057829003601f168201915b505050505081565b60008054906101000a900473ffffffffffffffffffffffffffffffffffffffff1681565b600c8181548110610b7957600080fd5b90600052602060002090600302016000915090508060000154908060010154908060020154905083565b600d6020528060005260406000206000915090505481565b600260009054906101000a900473ffffffffffffffffffffffffffffffffffffffff1681565b600260179054906101000a900460ff1681565b600b5481565b60035481565b600260149054906101000a900460ff1681565b600260159054906101000a900460ff16610c62576040517f08c379a0000000000000000000000000000000000000000000000000000000008152600401610c5990611280565b60405180910390fd5b600260149054906101000a900460ff16610cb1576040517f08c379a0000000000000000000000000000000000000000000000000000000008152600401610ca8906111a0565b60405180910390fd5b600260169054906101000a900460ff16610d00576040517f08c379a0000000000000000000000000000000000000000000000000000000008152600401610cf7906112a0565b60405180910390fd5b600260179054906101000a900460ff16610d4f576040517f08c379a0000000000000000000000000000000000000000000000000000000008152600401610d4690611200565b60405180910390fd5b6001600960006101000a81548160ff0219169083151502179055507faf3c49f5413fd292e2325b0fe214de144a222b00cb6ec21214fdc04b5d6c591342604051610d9991906112c0565b60405180910390a1565b600081359050610db28161158e565b92915050565b600081359050610dc7816115a5565b92915050565b600060208284031215610ddf57600080fd5b6000610ded84828501610da3565b91505092915050565b600060208284031215610e0857600080fd5b6000610e1684828501610db8565b91505092915050565b610e2881611443565b82525050565b610e3781611455565b82525050565b6000610e4882611312565b610e52818561131d565b9350610e6281856020860161148b565b610e6b8161157d565b840191505092915050565b6000610e83601f8361131d565b91507f4c616e646c6f7264206861736e27742061677265656420746f207465726d73006000830152602082019050919050565b6000610ec360148361131d565b91507f4465706f73697420616c726561647920706169640000000000000000000000006000830152602082019050919050565b6000610f03601c8361131d565b91507f4e6f74206120706172747920696e207468697320636f6e7472616374000000006000830152602082019050919050565b6000610f4360218361131d565b91507f5365637572697479206465706f736974206861736e2774206265656e2070616960008301527f64000000000000000000000000000000000000000000000000000000000000006020830152604082019050919050565b6000610fa960178361131d565b91507f4f6e6c792074656e616e7420697320616c6c6f7765642e0000000000000000006000830152602082019050919050565b6000610fe9600d8361131d565b91507f57726f6e6720616d6f756e742e000000000000000000000000000000000000006000830152602082019050919050565b600061102960108361131d565b91507f4c656173652068617320656e6465642e000000000000000000000000000000006000830152602082019050919050565b6000611069601d8361131d565b91507f54656e616e74206861736e27742061677265656420746f207465726d730000006000830152602082019050919050565b60006110a960278361131d565b91507f50726f7065727479206d616e61676572206861736e277420616772656564207460008301527f6f207465726d73000000000000000000000000000000000000000000000000006020830152604082019050919050565b61110b81611481565b82525050565b60006020820190506111266000830184610e1f565b92915050565b60006060820190506111416000830186610e1f565b61114e6020830185611102565b61115b6040830184611102565b949350505050565b60006020820190506111786000830184610e2e565b92915050565b600060208201905081810360008301526111988184610e3d565b905092915050565b600060208201905081810360008301526111b981610e76565b9050919050565b600060208201905081810360008301526111d981610eb6565b9050919050565b600060208201905081810360008301526111f981610ef6565b9050919050565b6000602082019050818103600083015261121981610f36565b9050919050565b6000602082019050818103600083015261123981610f9c565b9050919050565b6000602082019050818103600083015261125981610fdc565b9050919050565b600060208201905081810360008301526112798161101c565b9050919050565b600060208201905081810360008301526112998161105c565b9050919050565b600060208201905081810360008301526112b98161109c565b9050919050565b60006020820190506112d56000830184611102565b92915050565b60006060820190506112f06000830186611102565b6112fd6020830185611102565b61130a6040830184611102565b949350505050565b600081519050919050565b600082825260208201905092915050565b600061133982611481565b915061134483611481565b9250827fffffffffffffffffffffffffffffffffffffffffffffffffffffffffffffffff03821115611379576113786114f0565b5b828201905092915050565b600061138f82611481565b915061139a83611481565b9250826113aa576113a961151f565b5b828204905092915050565b60006113c082611481565b91506113cb83611481565b9250817fffffffffffffffffffffffffffffffffffffffffffffffffffffffffffffffff0483118215151615611404576114036114f0565b5b828202905092915050565b600061141a82611481565b915061142583611481565b925082821015611438576114376114f0565b5b828203905092915050565b600061144e82611461565b9050919050565b60008115159050919050565b600073ffffffffffffffffffffffffffffffffffffffff82169050919050565b6000819050919050565b60005b838110156114a957808201518184015260208101905061148e565b838111156114b8576000848401525b50505050565b600060028204905060018216806114d657607f821691505b602082108114156114ea576114e961154e565b5b50919050565b7f4e487b7100000000000000000000000000000000000000000000000000000000600052601160045260246000fd5b7f4e487b7100000000000000000000000000000000000000000000000000000000600052601260045260246000fd5b7f4e487b7100000000000000000000000000000000000000000000000000000000600052602260045260246000fd5b6000601f19601f8301169050919050565b61159781611443565b81146115a257600080fd5b50565b6115ae81611481565b81146115b957600080fd5b5056fea26469706673582212208cccd47a6fccb69225de64705774263920c23c86f173a2c5a2ea456178faf16d64736f6c63430008000033",
  "immutableReferences": {},
  "source": "pragma solidity ^0.8.0;\r\n\r\ncontract RentalAgreement{\r\n   address public landlord;\r\n   address public tenant;\r\n   address public propertyManager;\r\n\r\n   bool public landlordAgreed;\r\n   bool public tenantAgreed;\r\n   bool public propertyManagerAgreed;\r\n   bool public depositPaid;\r\n\r\n   uint public rentCost;\r\n   uint public securityDeposit;\r\n   uint public managementFeePercent;\r\n   string public houseAddress;\r\n   \r\n   uint public lastPayment;\r\n   uint public depositHeld;\r\n   bool public active;\r\n\r\n   uint public start;\r\n   uint public end;\r\n\r\n   struct Payment{\r\n      uint id;\r\n      uint value;\r\n      uint timestamp;\r\n   }\r\n\r\n   Payment[] public paidRent;\r\n\r\n   mapping(address => uint) public balance; \r\n\r\n   event RentPaid(address tenant, uint amount, uint timestamp);\r\n   event ContractSigned(uint timestamp);\r\n\r\n   constructor (\r\n      address _landlord,\r\n      address _tenant,\r\n      address _propertyManager,\r\n      string memory _houseAddress,\r\n      uint _rentCost,\r\n      uint _securityDeposit,\r\n      uint _managementFeePercent, \r\n      uint _start, \r\n      uint _end\r\n   ) {\r\n      landlord = _landlord;\r\n      tenant = _tenant;\r\n      propertyManager = _propertyManager;\r\n      houseAddress = _houseAddress;\r\n      rentCost = _rentCost;\r\n      securityDeposit = _securityDeposit;\r\n      managementFeePercent = _managementFeePercent;\r\n      start = _start;\r\n      end = _end;\r\n      active = false;\r\n   }\r\n\r\n   function agreeToTerms() external {\r\n      if(msg.sender == landlord) landlordAgreed = true;\r\n      else if (msg.sender == tenant) tenantAgreed = true;\r\n      else if(msg.sender == propertyManager) propertyManagerAgreed = true;\r\n      else revert(\"Not a party in this contract\");\r\n\r\n      signContract();\r\n   }\r\n\r\n   function payDeposit() external payable{\r\n      require(msg.sender == tenant, \"Only tenant is allowed.\");\r\n      require(!depositPaid, \"Deposit already paid\");\r\n      require(msg.value == securityDeposit);\r\n\r\n      depositHeld = msg.value;\r\n      depositPaid = true;\r\n\r\n      signContract();\r\n   }\r\n\r\n   function signContract() internal {\r\n      require(tenantAgreed, \"Tenant hasn't agreed to terms\");\r\n      require(landlordAgreed, \"Landlord hasn't agreed to terms\");\r\n      require(propertyManagerAgreed, \"Property manager hasn't agreed to terms\");\r\n      require(depositPaid, \"Security deposit hasn't been paid\");\r\n\r\n      active = true;\r\n      emit ContractSigned(block.timestamp);\r\n   }\r\n\r\n   function payRent () external payable {\r\n      require(msg.sender == tenant, \"Only tenant is allowed.\");\r\n      require(msg.value == rentCost, \"Wrong amount.\");\r\n      require(block.timestamp <= end, \"Lease has ended.\");\r\n\r\n      uint managementFee = (msg.value * managementFeePercent) /100;\r\n      uint landlordFee = msg.value - managementFee;\r\n\r\n      balance[landlord] += landlordFee;\r\n      balance[propertyManager] += managementFee;\r\n\r\n      paidRent.push(Payment({\r\n         id : paidRent.length + 1,\r\n         value : msg.value,\r\n         timestamp : block.timestamp\r\n      }));\r\n\r\n      lastPayment = block.timestamp;\r\n\r\n      emit RentPaid(msg.sender, msg.value, block.timestamp);\r\n   }\r\n}",
  "sourcePath": "C:\\Users\\tamel\\Documents\\uni\\3 semestras\\blockchain\\blockchain-04\\contracts\\RentalAgreement.sol",
  "compiler": {
    "name": "solc",
    "version": "0.8.0+commit.c7dfd78e.Emscripten.clang"
  },
  "schemaVersion": "3.4.16",
  "updatedAt": "2025-12-04T20:28:13.674Z",
  "devdoc": {
    "kind": "dev",
    "methods": {},
    "version": 1
  },
  "userdoc": {
    "kind": "user",
    "methods": {},
    "version": 1
  }
}