{
  "contractName": "RentalAgreement",
  "abi": [
    {
      "inputs": [
        {
          "internalType": "string",
          "name": "_houseAddress",
          "type": "string"
        },
        {
          "internalType": "uint256",
          "name": "_rentCost",
          "type": "uint256"
        },
        {
          "internalType": "uint256",
          "name": "_securityDeposit",
          "type": "uint256"
        },
        {
          "internalType": "uint256",
          "name": "_managementFeePercent",
          "type": "uint256"
        },
        {
          "internalType": "uint256",
          "name": "_start",
          "type": "uint256"
        },
        {
          "internalType": "uint256",
          "name": "_end",
          "type": "uint256"
        }
      ],
      "stateMutability": "nonpayable",
      "type": "constructor"
    },
    {
      "anonymous": false,
      "inputs": [
        {
          "indexed": false,
          "internalType": "address",
          "name": "party",
          "type": "address"
        },
        {
          "indexed": false,
          "internalType": "uint256",
          "name": "timestamp",
          "type": "uint256"
        }
      ],
      "name": "AgreedToTerms",
      "type": "event"
    },
    {
      "anonymous": false,
      "inputs": [
        {
          "indexed": false,
          "internalType": "uint256",
          "name": "timestamp",
          "type": "uint256"
        }
      ],
      "name": "ContractSigned",
      "type": "event"
    },
    {
      "anonymous": false,
      "inputs": [
        {
          "indexed": false,
          "internalType": "uint256",
          "name": "timestamp",
          "type": "uint256"
        }
      ],
      "name": "ContractTerminated",
      "type": "event"
    },
    {
      "anonymous": false,
      "inputs": [
        {
          "indexed": false,
          "internalType": "uint256",
          "name": "amount",
          "type": "uint256"
        },
        {
          "indexed": false,
          "internalType": "uint256",
          "name": "timestamp",
          "type": "uint256"
        }
      ],
      "name": "DamagesClaimed",
      "type": "event"
    },
    {
      "anonymous": false,
      "inputs": [
        {
          "indexed": false,
          "internalType": "uint256",
          "name": "timestamp",
          "type": "uint256"
        }
      ],
      "name": "DepositPaid",
      "type": "event"
    },
    {
      "anonymous": false,
      "inputs": [
        {
          "indexed": false,
          "internalType": "uint256",
          "name": "amount",
          "type": "uint256"
        },
        {
          "indexed": false,
          "internalType": "uint256",
          "name": "timestamp",
          "type": "uint256"
        }
      ],
      "name": "DepositReturned",
      "type": "event"
    },
    {
      "anonymous": false,
      "inputs": [
        {
          "indexed": false,
          "internalType": "uint256",
          "name": "timestamp",
          "type": "uint256"
        }
      ],
      "name": "RentPaid",
      "type": "event"
    },
    {
      "inputs": [],
      "name": "active",
      "outputs": [
        {
          "internalType": "bool",
          "name": "",
          "type": "bool"
        }
      ],
      "stateMutability": "view",
      "type": "function",
      "constant": true
    },
    {
      "inputs": [
        {
          "internalType": "address",
          "name": "",
          "type": "address"
        }
      ],
      "name": "balance",
      "outputs": [
        {
          "internalType": "uint256",
          "name": "",
          "type": "uint256"
        }
      ],
      "stateMutability": "view",
      "type": "function",
      "constant": true
    },
    {
      "inputs": [],
      "name": "depositHeld",
      "outputs": [
        {
          "internalType": "uint256",
          "name": "",
          "type": "uint256"
        }
      ],
      "stateMutability": "view",
      "type": "function",
      "constant": true
    },
    {
      "inputs": [],
      "name": "depositPaid",
      "outputs": [
        {
          "internalType": "bool",
          "name": "",
          "type": "bool"
        }
      ],
      "stateMutability": "view",
      "type": "function",
      "constant": true
    },
    {
      "inputs": [],
      "name": "end",
      "outputs": [
        {
          "internalType": "uint256",
          "name": "",
          "type": "uint256"
        }
      ],
      "stateMutability": "view",
      "type": "function",
      "constant": true
    },
    {
      "inputs": [],
      "name": "houseAddress",
      "outputs": [
        {
          "internalType": "string",
          "name": "",
          "type": "string"
        }
      ],
      "stateMutability": "view",
      "type": "function",
      "constant": true
    },
    {
      "inputs": [],
      "name": "landlord",
      "outputs": [
        {
          "internalType": "address",
          "name": "",
          "type": "address"
        }
      ],
      "stateMutability": "view",
      "type": "function",
      "constant": true
    },
    {
      "inputs": [],
      "name": "managementFeePercent",
      "outputs": [
        {
          "internalType": "uint256",
          "name": "",
          "type": "uint256"
        }
      ],
      "stateMutability": "view",
      "type": "function",
      "constant": true
    },
    {
      "inputs": [
        {
          "internalType": "uint256",
          "name": "",
          "type": "uint256"
        }
      ],
      "name": "paidRent",
      "outputs": [
        {
          "internalType": "uint256",
          "name": "id",
          "type": "uint256"
        },
        {
          "internalType": "uint256",
          "name": "value",
          "type": "uint256"
        },
        {
          "internalType": "uint256",
          "name": "timestamp",
          "type": "uint256"
        }
      ],
      "stateMutability": "view",
      "type": "function",
      "constant": true
    },
    {
      "inputs": [],
      "name": "propertyManager",
      "outputs": [
        {
          "internalType": "address",
          "name": "",
          "type": "address"
        }
      ],
      "stateMutability": "view",
      "type": "function",
      "constant": true
    },
    {
      "inputs": [],
      "name": "propertyManagerAgreed",
      "outputs": [
        {
          "internalType": "bool",
          "name": "",
          "type": "bool"
        }
      ],
      "stateMutability": "view",
      "type": "function",
      "constant": true
    },
    {
      "inputs": [],
      "name": "rentCost",
      "outputs": [
        {
          "internalType": "uint256",
          "name": "",
          "type": "uint256"
        }
      ],
      "stateMutability": "view",
      "type": "function",
      "constant": true
    },
    {
      "inputs": [],
      "name": "securityDeposit",
      "outputs": [
        {
          "internalType": "uint256",
          "name": "",
          "type": "uint256"
        }
      ],
      "stateMutability": "view",
      "type": "function",
      "constant": true
    },
    {
      "inputs": [],
      "name": "start",
      "outputs": [
        {
          "internalType": "uint256",
          "name": "",
          "type": "uint256"
        }
      ],
      "stateMutability": "view",
      "type": "function",
      "constant": true
    },
    {
      "inputs": [],
      "name": "tenant",
      "outputs": [
        {
          "internalType": "address",
          "name": "",
          "type": "address"
        }
      ],
      "stateMutability": "view",
      "type": "function",
      "constant": true
    },
    {
      "inputs": [],
      "name": "tenantAgreed",
      "outputs": [
        {
          "internalType": "bool",
          "name": "",
          "type": "bool"
        }
      ],
      "stateMutability": "view",
      "type": "function",
      "constant": true
    },
    {
      "inputs": [],
      "name": "signAsTenant",
      "outputs": [],
      "stateMutability": "nonpayable",
      "type": "function"
    },
    {
      "inputs": [],
      "name": "signAsPropertyManager",
      "outputs": [],
      "stateMutability": "nonpayable",
      "type": "function"
    },
    {
      "inputs": [],
      "name": "payDeposit",
      "outputs": [],
      "stateMutability": "payable",
      "type": "function",
      "payable": true
    },
    {
      "inputs": [],
      "name": "payRent",
      "outputs": [],
      "stateMutability": "payable",
      "type": "function",
      "payable": true
    },
    {
      "inputs": [],
      "name": "terminateContract",
      "outputs": [],
      "stateMutability": "nonpayable",
      "type": "function"
    },
    {
      "inputs": [
        {
          "internalType": "uint256",
          "name": "amount",
          "type": "uint256"
        }
      ],
      "name": "claimDamages",
      "outputs": [],
      "stateMutability": "nonpayable",
      "type": "function"
    },
    {
      "inputs": [],
      "name": "returnDeposit",
      "outputs": [],
      "stateMutability": "nonpayable",
      "type": "function"
    },
    {
      "inputs": [
        {
          "internalType": "uint256",
          "name": "paymentIndex",
          "type": "uint256"
        }
      ],
      "name": "getPayment",
      "outputs": [
        {
          "components": [
            {
              "internalType": "uint256",
              "name": "id",
              "type": "uint256"
            },
            {
              "internalType": "uint256",
              "name": "value",
              "type": "uint256"
            },
            {
              "internalType": "uint256",
              "name": "timestamp",
              "type": "uint256"
            }
          ],
          "internalType": "struct RentalAgreement.Payment",
          "name": "",
          "type": "tuple"
        }
      ],
      "stateMutability": "view",
      "type": "function",
      "constant": true
    }
  ],
  "bytecode": "0x60806040523480156200001157600080fd5b50604051620022f9380380620022f9833981810160405281019062000037919062000213565b336000806101000a81548173ffffffffffffffffffffffffffffffffffffffff021916908373ffffffffffffffffffffffffffffffffffffffff16021790555085600690805190602001906200008f929190620000da565b508460038190555083600481905550826005819055508160098190555080600a819055506000600860006101000a81548160ff02191690831515021790555050505050505062000417565b828054620000e89062000369565b90600052602060002090601f0160209004810192826200010c576000855562000158565b82601f106200012757805160ff191683800117855562000158565b8280016001018555821562000158579182015b82811115620001575782518255916020019190600101906200013a565b5b5090506200016791906200016b565b5090565b5b80821115620001865760008160009055506001016200016c565b5090565b6000620001a16200019b84620002f6565b620002c2565b905082815260208101848484011115620001ba57600080fd5b620001c784828562000333565b509392505050565b600082601f830112620001e157600080fd5b8151620001f38482602086016200018a565b91505092915050565b6000815190506200020d81620003fd565b92915050565b60008060008060008060c087890312156200022d57600080fd5b600087015167ffffffffffffffff8111156200024857600080fd5b6200025689828a01620001cf565b96505060206200026989828a01620001fc565b95505060406200027c89828a01620001fc565b94505060606200028f89828a01620001fc565b9350506080620002a289828a01620001fc565b92505060a0620002b589828a01620001fc565b9150509295509295509295565b6000604051905081810181811067ffffffffffffffff82111715620002ec57620002eb620003ce565b5b8060405250919050565b600067ffffffffffffffff821115620003145762000313620003ce565b5b601f19601f8301169050602081019050919050565b6000819050919050565b60005b838110156200035357808201518184015260208101905062000336565b8381111562000363576000848401525b50505050565b600060028204905060018216806200038257607f821691505b602082108114156200039957620003986200039f565b5b50919050565b7f4e487b7100000000000000000000000000000000000000000000000000000000600052602260045260246000fd5b7f4e487b7100000000000000000000000000000000000000000000000000000000600052604160045260246000fd5b620004088162000329565b81146200041457600080fd5b50565b611ed280620004276000396000f3fe60806040526004361061014b5760003560e01c8063adf07791116100b6578063de56cd811161006f578063de56cd81146103d4578063e3d670d714610413578063e7356cb514610450578063ef3ab3301461047b578063efbe1c1c146104a6578063f7476068146104d15761014b565b8063adf07791146102d2578063be9a6555146102fd578063c2e2df5214610328578063c6da861114610353578063d7cee31e1461037e578063dc1997ea146103a95761014b565b80635c274b86116101085780635c274b861461023c57806373e5be311461024657806373f351c81461025d5780637e88f60314610288578063a709c4fe1461029f578063a989eeb6146102a95761014b565b806302fb0c5e14610150578063220e5ab31461017b5780632fd949ca146101a65780632fe9794e146101bd5780633280a836146101e857806348b41c8114610225575b600080fd5b34801561015c57600080fd5b506101656104fc565b6040516101729190611974565b60405180910390f35b34801561018757600080fd5b5061019061050f565b60405161019d9190611b6c565b60405180910390f35b3480156101b257600080fd5b506101bb610515565b005b3480156101c957600080fd5b506101d26106a7565b6040516101df9190611974565b60405180910390f35b3480156101f457600080fd5b5061020f600480360381019061020a9190611495565b6106ba565b60405161021c9190611b51565b60405180910390f35b34801561023157600080fd5b5061023a61073a565b005b61024461088c565b005b34801561025257600080fd5b5061025b6109dd565b005b34801561026957600080fd5b50610272610bbe565b60405161027f9190611b6c565b60405180910390f35b34801561029457600080fd5b5061029d610bc4565b005b6102a7610db1565b005b3480156102b557600080fd5b506102d060048036038101906102cb9190611495565b6110e8565b005b3480156102de57600080fd5b506102e76111f9565b6040516102f49190611930565b60405180910390f35b34801561030957600080fd5b5061031261121f565b60405161031f9190611b6c565b60405180910390f35b34801561033457600080fd5b5061033d611225565b60405161034a9190611974565b60405180910390f35b34801561035f57600080fd5b50610368611238565b6040516103759190611b6c565b60405180910390f35b34801561038a57600080fd5b5061039361123e565b6040516103a0919061198f565b60405180910390f35b3480156103b557600080fd5b506103be6112cc565b6040516103cb9190611930565b60405180910390f35b3480156103e057600080fd5b506103fb60048036038101906103f69190611495565b6112f0565b60405161040a93929190611bb0565b60405180910390f35b34801561041f57600080fd5b5061043a6004803603810190610435919061146c565b61132a565b6040516104479190611b6c565b60405180910390f35b34801561045c57600080fd5b50610465611342565b6040516104729190611930565b60405180910390f35b34801561048757600080fd5b50610490611368565b60405161049d9190611974565b60405180910390f35b3480156104b257600080fd5b506104bb61137b565b6040516104c89190611b6c565b60405180910390f35b3480156104dd57600080fd5b506104e6611381565b6040516104f39190611b6c565b60405180910390f35b600860009054906101000a900460ff1681565b60045481565b60008054906101000a900473ffffffffffffffffffffffffffffffffffffffff1673ffffffffffffffffffffffffffffffffffffffff163373ffffffffffffffffffffffffffffffffffffffff1614806105bc5750600160009054906101000a900473ffffffffffffffffffffffffffffffffffffffff1673ffffffffffffffffffffffffffffffffffffffff163373ffffffffffffffffffffffffffffffffffffffff16145b806106145750600260009054906101000a900473ffffffffffffffffffffffffffffffffffffffff1673ffffffffffffffffffffffffffffffffffffffff163373ffffffffffffffffffffffffffffffffffffffff16145b610653576040517f08c379a000000000000000000000000000000000000000000000000000000000815260040161064a90611a11565b60405180910390fd5b6000600860006101000a81548160ff0219169083151502179055507f5760684a9ae00ee4a9ccadd1b4cc0c9bc48ff36d7c91399445204ca23ec188574260405161069d9190611b6c565b60405180910390a1565b600260159054906101000a900460ff1681565b6106c2611421565b600b82815481106106fc577f4e487b7100000000000000000000000000000000000000000000000000000000600052603260045260246000fd5b906000526020600020906003020160405180606001604052908160008201548152602001600182015481526020016002820154815250509050919050565b600160009054906101000a900473ffffffffffffffffffffffffffffffffffffffff1673ffffffffffffffffffffffffffffffffffffffff163373ffffffffffffffffffffffffffffffffffffffff1614156107cb576040517f08c379a00000000000000000000000000000000000000000000000000000000081526004016107c290611b31565b60405180910390fd5b33600260006101000a81548173ffffffffffffffffffffffffffffffffffffffff021916908373ffffffffffffffffffffffffffffffffffffffff1602179055506001600260156101000a81548160ff02191690831515021790555061082f611387565b7fc87f5d9973d13782a473eaa8ad5386eeb7b6e5d9eb3136cf46385dfea7d455f3600260009054906101000a900473ffffffffffffffffffffffffffffffffffffffff164260405161088292919061194b565b60405180910390a1565b600160009054906101000a900473ffffffffffffffffffffffffffffffffffffffff1673ffffffffffffffffffffffffffffffffffffffff163373ffffffffffffffffffffffffffffffffffffffff161461091c576040517f08c379a000000000000000000000000000000000000000000000000000000000815260040161091390611a51565b60405180910390fd5b600260169054906101000a900460ff161561096c576040517f08c379a0000000000000000000000000000000000000000000000000000000008152600401610963906119b1565b60405180910390fd5b600454341461097a57600080fd5b346007819055506001600260166101000a81548160ff0219169083151502179055507f488a0a49d4886026f694d753c0642d9174e8d821a25c5992b222c4970a006211426040516109cb9190611b6c565b60405180910390a16109db611387565b565b60008054906101000a900473ffffffffffffffffffffffffffffffffffffffff1673ffffffffffffffffffffffffffffffffffffffff163373ffffffffffffffffffffffffffffffffffffffff161415610a6c576040517f08c379a0000000000000000000000000000000000000000000000000000000008152600401610a63906119f1565b60405180910390fd5b600260009054906101000a900473ffffffffffffffffffffffffffffffffffffffff1673ffffffffffffffffffffffffffffffffffffffff163373ffffffffffffffffffffffffffffffffffffffff161415610afd576040517f08c379a0000000000000000000000000000000000000000000000000000000008152600401610af490611a91565b60405180910390fd5b33600160006101000a81548173ffffffffffffffffffffffffffffffffffffffff021916908373ffffffffffffffffffffffffffffffffffffffff1602179055506001600260146101000a81548160ff021916908315150217905550610b61611387565b7fc87f5d9973d13782a473eaa8ad5386eeb7b6e5d9eb3136cf46385dfea7d455f3600160009054906101000a900473ffffffffffffffffffffffffffffffffffffffff1642604051610bb492919061194b565b60405180910390a1565b60055481565b60008054906101000a900473ffffffffffffffffffffffffffffffffffffffff1673ffffffffffffffffffffffffffffffffffffffff163373ffffffffffffffffffffffffffffffffffffffff1614610c52576040517f08c379a0000000000000000000000000000000000000000000000000000000008152600401610c49906119d1565b60405180910390fd5b600060075411610c97576040517f08c379a0000000000000000000000000000000000000000000000000000000008152600401610c8e90611ad1565b60405180910390fd5b6000600754905060006007819055506000600160009054906101000a900473ffffffffffffffffffffffffffffffffffffffff1673ffffffffffffffffffffffffffffffffffffffff1682604051610cee9061191b565b60006040518083038185875af1925050503d8060008114610d2b576040519150601f19603f3d011682016040523d82523d6000602084013e610d30565b606091505b5050905080610d74576040517f08c379a0000000000000000000000000000000000000000000000000000000008152600401610d6b90611a31565b60405180910390fd5b7f43f1a62374b03888ce7ed69d5599d19e6aa7c4e5863ab594bdaae22bd3637aae8242604051610da5929190611b87565b60405180910390a15050565b600160009054906101000a900473ffffffffffffffffffffffffffffffffffffffff1673ffffffffffffffffffffffffffffffffffffffff163373ffffffffffffffffffffffffffffffffffffffff1614610e41576040517f08c379a0000000000000000000000000000000000000000000000000000000008152600401610e3890611a51565b60405180910390fd5b600860009054906101000a900460ff16610e90576040517f08c379a0000000000000000000000000000000000000000000000000000000008152600401610e8790611af1565b60405180910390fd5b6003543414610ed4576040517f08c379a0000000000000000000000000000000000000000000000000000000008152600401610ecb90611a71565b60405180910390fd5b600a54421115610f19576040517f08c379a0000000000000000000000000000000000000000000000000000000008152600401610f1090611ab1565b60405180910390fd5b6000606460055434610f2b9190611c95565b610f359190611c64565b905060008134610f459190611cef565b905080600c60008060009054906101000a900473ffffffffffffffffffffffffffffffffffffffff1673ffffffffffffffffffffffffffffffffffffffff1673ffffffffffffffffffffffffffffffffffffffff1681526020019081526020016000206000828254610fb79190611c0e565b9250508190555081600c6000600260009054906101000a900473ffffffffffffffffffffffffffffffffffffffff1673ffffffffffffffffffffffffffffffffffffffff1673ffffffffffffffffffffffffffffffffffffffff168152602001908152602001600020600082825461102f9190611c0e565b92505081905550600b60405180606001604052806001600b805490506110559190611c0e565b815260200134815260200142815250908060018154018082558091505060019003906000526020600020906003020160009091909190915060008201518160000155602082015181600101556040820151816002015550507f6f6f663a95cfc56731d5c426da5aa1a62df862a4b97f25aac9f299409791628a426040516110dc9190611b6c565b60405180910390a15050565b60075481111561112d576040517f08c379a000000000000000000000000000000000000000000000000000000000815260040161112490611b11565b60405180910390fd5b806007600082825461113f9190611cef565b9250508190555080600c60008060009054906101000a900473ffffffffffffffffffffffffffffffffffffffff1673ffffffffffffffffffffffffffffffffffffffff1673ffffffffffffffffffffffffffffffffffffffff16815260200190815260200160002060008282546111b69190611c0e565b925050819055507fe9a7bf6a4ff808bee0de7a737fb73a2c5f2a5977125e17c58c30cf6b1bb5bdb281426040516111ee929190611b87565b60405180910390a150565b600160009054906101000a900473ffffffffffffffffffffffffffffffffffffffff1681565b60095481565b600260149054906101000a900460ff1681565b60075481565b6006805461124b90611d9e565b80601f016020809104026020016040519081016040528092919081815260200182805461127790611d9e565b80156112c45780601f10611299576101008083540402835291602001916112c4565b820191906000526020600020905b8154815290600101906020018083116112a757829003601f168201915b505050505081565b60008054906101000a900473ffffffffffffffffffffffffffffffffffffffff1681565b600b818154811061130057600080fd5b90600052602060002090600302016000915090508060000154908060010154908060020154905083565b600c6020528060005260406000206000915090505481565b600260009054906101000a900473ffffffffffffffffffffffffffffffffffffffff1681565b600260169054906101000a900460ff1681565b600a5481565b60035481565b600260149054906101000a900460ff1680156113af5750600260159054906101000a900460ff165b80156113c75750600260169054906101000a900460ff165b1561141f576001600860006101000a81548160ff0219169083151502179055507faf3c49f5413fd292e2325b0fe214de144a222b00cb6ec21214fdc04b5d6c5913426040516114169190611b6c565b60405180910390a15b565b60405180606001604052806000815260200160008152602001600081525090565b60008135905061145181611e6e565b92915050565b60008135905061146681611e85565b92915050565b60006020828403121561147e57600080fd5b600061148c84828501611442565b91505092915050565b6000602082840312156114a757600080fd5b60006114b584828501611457565b91505092915050565b6114c781611d23565b82525050565b6114d681611d35565b82525050565b60006114e782611be7565b6114f18185611bfd565b9350611501818560208601611d6b565b61150a81611e5d565b840191505092915050565b6000611522601483611bfd565b91507f4465706f73697420616c726561647920706169640000000000000000000000006000830152602082019050919050565b6000611562601683611bfd565b91507f4f6e6c79206c616e646c6f726420616c6c6f7765642e000000000000000000006000830152602082019050919050565b60006115a2602083611bfd565b91507f4c616e646c6f72642063616e277420626520686973206f776e2074656e616e746000830152602082019050919050565b60006115e2601c83611bfd565b91507f4e6f74206120706172747920696e207468697320636f6e7472616374000000006000830152602082019050919050565b6000611622600f83611bfd565b91507f5472616e73666572206661696c656400000000000000000000000000000000006000830152602082019050919050565b6000611662601783611bfd565b91507f4f6e6c792074656e616e7420697320616c6c6f7765642e0000000000000000006000830152602082019050919050565b60006116a2600d83611bfd565b91507f57726f6e6720616d6f756e742e000000000000000000000000000000000000006000830152602082019050919050565b60006116e2603083611bfd565b91507f43616e6e6f7420626520612074656e616e74206f6e20612070726f706572747960008301527f207468617420796f75206d616e616765000000000000000000000000000000006020830152604082019050919050565b6000611748601083611bfd565b91507f4c656173652068617320656e6465642e000000000000000000000000000000006000830152602082019050919050565b6000611788600f83611bfd565b91507f4e6f206465706f736974206c65667400000000000000000000000000000000006000830152602082019050919050565b60006117c8600083611bf2565b9150600082019050919050565b60006117e2601a83611bfd565b91507f4c6561736520686173206e6f74206265656e207369676e65642e0000000000006000830152602082019050919050565b6000611822601c83611bfd565b91507f4e6f7420656e6f756768206d6f6e657920696e206465706f7369742e000000006000830152602082019050919050565b6000611862603183611bfd565b91507f54656e616e742063616e2774206d616e616765207468652070726f706572747960008301527f2074686579206172652072656e74696e670000000000000000000000000000006020830152604082019050919050565b6060820160008201516118d160008501826118fd565b5060208201516118e460208501826118fd565b5060408201516118f760408501826118fd565b50505050565b61190681611d61565b82525050565b61191581611d61565b82525050565b6000611926826117bb565b9150819050919050565b600060208201905061194560008301846114be565b92915050565b600060408201905061196060008301856114be565b61196d602083018461190c565b9392505050565b600060208201905061198960008301846114cd565b92915050565b600060208201905081810360008301526119a981846114dc565b905092915050565b600060208201905081810360008301526119ca81611515565b9050919050565b600060208201905081810360008301526119ea81611555565b9050919050565b60006020820190508181036000830152611a0a81611595565b9050919050565b60006020820190508181036000830152611a2a816115d5565b9050919050565b60006020820190508181036000830152611a4a81611615565b9050919050565b60006020820190508181036000830152611a6a81611655565b9050919050565b60006020820190508181036000830152611a8a81611695565b9050919050565b60006020820190508181036000830152611aaa816116d5565b9050919050565b60006020820190508181036000830152611aca8161173b565b9050919050565b60006020820190508181036000830152611aea8161177b565b9050919050565b60006020820190508181036000830152611b0a816117d5565b9050919050565b60006020820190508181036000830152611b2a81611815565b9050919050565b60006020820190508181036000830152611b4a81611855565b9050919050565b6000606082019050611b6660008301846118bb565b92915050565b6000602082019050611b81600083018461190c565b92915050565b6000604082019050611b9c600083018561190c565b611ba9602083018461190c565b9392505050565b6000606082019050611bc5600083018661190c565b611bd2602083018561190c565b611bdf604083018461190c565b949350505050565b600081519050919050565b600081905092915050565b600082825260208201905092915050565b6000611c1982611d61565b9150611c2483611d61565b9250827fffffffffffffffffffffffffffffffffffffffffffffffffffffffffffffffff03821115611c5957611c58611dd0565b5b828201905092915050565b6000611c6f82611d61565b9150611c7a83611d61565b925082611c8a57611c89611dff565b5b828204905092915050565b6000611ca082611d61565b9150611cab83611d61565b9250817fffffffffffffffffffffffffffffffffffffffffffffffffffffffffffffffff0483118215151615611ce457611ce3611dd0565b5b828202905092915050565b6000611cfa82611d61565b9150611d0583611d61565b925082821015611d1857611d17611dd0565b5b828203905092915050565b6000611d2e82611d41565b9050919050565b60008115159050919050565b600073ffffffffffffffffffffffffffffffffffffffff82169050919050565b6000819050919050565b60005b83811015611d89578082015181840152602081019050611d6e565b83811115611d98576000848401525b50505050565b60006002820490506001821680611db657607f821691505b60208210811415611dca57611dc9611e2e565b5b50919050565b7f4e487b7100000000000000000000000000000000000000000000000000000000600052601160045260246000fd5b7f4e487b7100000000000000000000000000000000000000000000000000000000600052601260045260246000fd5b7f4e487b7100000000000000000000000000000000000000000000000000000000600052602260045260246000fd5b6000601f19601f8301169050919050565b611e7781611d23565b8114611e8257600080fd5b50565b611e8e81611d61565b8114611e9957600080fd5b5056fea2646970667358221220ba9cb0ad16a08af70673d9ae0a4aad846dd2535c4fe64ae7b3d5c6d945e306c364736f6c63430008000033",
  "immutableReferences": {},
  "source": "// SPDX-License-Identifier: MIT\r\npragma solidity ^0.8.0;\r\n\r\ncontract RentalAgreement{\r\n   address public landlord;\r\n   address public tenant;\r\n   address public propertyManager;\r\n\r\n   bool public tenantAgreed;\r\n   bool public propertyManagerAgreed;\r\n   bool public depositPaid;\r\n\r\n   uint public rentCost;\r\n   uint public securityDeposit;\r\n   uint public managementFeePercent;\r\n   string public houseAddress;\r\n   \r\n   uint public depositHeld;\r\n   bool public active;\r\n\r\n   uint public start;\r\n   uint public end;\r\n\r\n   struct Payment{\r\n      uint id;\r\n      uint value;\r\n      uint timestamp;\r\n   }\r\n\r\n   Payment[] public paidRent;\r\n\r\n   mapping(address => uint) public balance; \r\n\r\n   event RentPaid(uint timestamp);\r\n   event ContractSigned(uint timestamp);\r\n   event ContractTerminated(uint timestamp);\r\n   event AgreedToTerms(address party, uint timestamp);\r\n   event DepositPaid(uint timestamp);\r\n   event DamagesClaimed(uint amount, uint timestamp);\r\n   event DepositReturned(uint amount, uint timestamp);\r\n\r\n   constructor (\r\n      string memory _houseAddress,\r\n      uint _rentCost,\r\n      uint _securityDeposit,\r\n      uint _managementFeePercent, \r\n      uint _start, \r\n      uint _end\r\n   ) {\r\n      landlord = msg.sender;\r\n      houseAddress = _houseAddress;\r\n      rentCost = _rentCost;\r\n      securityDeposit = _securityDeposit;\r\n      managementFeePercent = _managementFeePercent;\r\n      start = _start;\r\n      end = _end;\r\n      active = false;\r\n   }\r\n\r\n   function signAsTenant() external {\r\n      require(msg.sender!=landlord, \"Landlord can't be his own tenant\");\r\n      require(msg.sender!=propertyManager, \"Cannot be a tenant on a property that you manage\");\r\n      tenant = msg.sender;\r\n      tenantAgreed = true;\r\n      signContract();\r\n\r\n      emit AgreedToTerms(tenant, block.timestamp);\r\n   }\r\n\r\n   function signAsPropertyManager() external {\r\n      require(msg.sender!=tenant, \"Tenant can't manage the property they are renting\");\r\n      propertyManager = msg.sender;\r\n      propertyManagerAgreed = true;\r\n      signContract();\r\n\r\n      emit AgreedToTerms(propertyManager, block.timestamp);\r\n   }\r\n\r\n   function payDeposit() external payable{\r\n      require(msg.sender == tenant, \"Only tenant is allowed.\");\r\n      require(!depositPaid, \"Deposit already paid\");\r\n      require(msg.value == securityDeposit);\r\n\r\n      depositHeld = msg.value;\r\n      depositPaid = true;\r\n\r\n      emit DepositPaid(block.timestamp);\r\n\r\n      signContract();\r\n   }\r\n\r\n   function signContract() internal {\r\n      if(tenantAgreed && propertyManagerAgreed && depositPaid){\r\n      active = true;\r\n      emit ContractSigned(block.timestamp);}\r\n   }\r\n\r\n   function payRent () external payable {\r\n      require(msg.sender == tenant, \"Only tenant is allowed.\");\r\n      require(active, \"Lease has not been signed.\");\r\n      require(msg.value == rentCost, \"Wrong amount.\");\r\n      require(block.timestamp <= end, \"Lease has ended.\");\r\n\r\n      uint managementFee = (msg.value * managementFeePercent) /100;\r\n      uint landlordFee = msg.value - managementFee;\r\n\r\n      balance[landlord] += landlordFee;\r\n      balance[propertyManager] += managementFee;\r\n\r\n      paidRent.push(Payment({\r\n         id : paidRent.length + 1,\r\n         value : msg.value,\r\n         timestamp : block.timestamp\r\n      }));\r\n\r\n      emit RentPaid(block.timestamp);\r\n   }\r\n\r\n   function terminateContract() external {\r\n      require(msg.sender == landlord || \r\n      msg.sender == tenant || \r\n      msg.sender == propertyManager, \r\n      \"Not a party in this contract\");\r\n      active = false;\r\n\r\n      emit ContractTerminated(block.timestamp);\r\n   }\r\n\r\n   function claimDamages(uint amount) external {\r\n      require(amount <= depositHeld, \"Not enough money in deposit.\");\r\n      depositHeld -= amount;\r\n      balance[landlord] += amount;\r\n\r\n      emit DamagesClaimed(amount, block.timestamp);\r\n   }\r\n\r\n   function returnDeposit() external {\r\n      require(msg.sender == landlord, \"Only landlord allowed.\");\r\n      require(depositHeld > 0, \"No deposit left\");\r\n\r\n      uint amountToReturn = depositHeld;\r\n      depositHeld = 0;\r\n      (bool returned, ) = payable(tenant).call{value: amountToReturn}(\"\");\r\n      require(returned, \"Transfer failed\");\r\n      \r\n      emit DepositReturned(amountToReturn, block.timestamp);\r\n   }\r\n\r\n   function getPayment(uint paymentIndex) public view returns(Payment memory) {\r\n      return paidRent[paymentIndex];\r\n   }\r\n}",
  "sourcePath": "C:\\Users\\tamel\\Documents\\uni\\3 semestras\\blockchain\\blockchain-04\\contracts\\RentalAgreement.sol",
  "compiler": {
    "name": "solc",
    "version": "0.8.0+commit.c7dfd78e.Emscripten.clang"
  },
  "schemaVersion": "3.4.16",
  "updatedAt": "2025-12-07T14:05:38.580Z",
  "networkType": "ethereum",
  "devdoc": {
    "kind": "dev",
    "methods": {},
    "version": 1
  },
  "userdoc": {
    "kind": "user",
    "methods": {},
    "version": 1
  }
}